{
  "contracts/StakingContract.sol": {
    "StakingContract": {
      "abi": [
        {
          "inputs": [
            {
              "internalType": "contract IERC20",
              "name": "tokenAddress",
              "type": "address"
            },
            {
              "internalType": "address",
              "name": "treasuryOwner",
              "type": "address"
            },
            {
              "internalType": "address",
              "name": "treasuryAddress",
              "type": "address"
            }
          ],
          "stateMutability": "nonpayable",
          "type": "constructor"
        },
        {
          "anonymous": false,
          "inputs": [
            {
              "indexed": true,
              "internalType": "bytes32",
              "name": "role",
              "type": "bytes32"
            },
            {
              "indexed": true,
              "internalType": "bytes32",
              "name": "previousAdminRole",
              "type": "bytes32"
            },
            {
              "indexed": true,
              "internalType": "bytes32",
              "name": "newAdminRole",
              "type": "bytes32"
            }
          ],
          "name": "RoleAdminChanged",
          "type": "event"
        },
        {
          "anonymous": false,
          "inputs": [
            {
              "indexed": true,
              "internalType": "bytes32",
              "name": "role",
              "type": "bytes32"
            },
            {
              "indexed": true,
              "internalType": "address",
              "name": "account",
              "type": "address"
            },
            {
              "indexed": true,
              "internalType": "address",
              "name": "sender",
              "type": "address"
            }
          ],
          "name": "RoleGranted",
          "type": "event"
        },
        {
          "anonymous": false,
          "inputs": [
            {
              "indexed": true,
              "internalType": "bytes32",
              "name": "role",
              "type": "bytes32"
            },
            {
              "indexed": true,
              "internalType": "address",
              "name": "account",
              "type": "address"
            },
            {
              "indexed": true,
              "internalType": "address",
              "name": "sender",
              "type": "address"
            }
          ],
          "name": "RoleRevoked",
          "type": "event"
        },
        {
          "anonymous": false,
          "inputs": [
            {
              "indexed": false,
              "internalType": "address",
              "name": "",
              "type": "address"
            },
            {
              "indexed": false,
              "internalType": "uint256",
              "name": "",
              "type": "uint256"
            },
            {
              "indexed": false,
              "internalType": "uint256",
              "name": "",
              "type": "uint256"
            }
          ],
          "name": "StakedEvent",
          "type": "event"
        },
        {
          "anonymous": false,
          "inputs": [
            {
              "indexed": false,
              "internalType": "address",
              "name": "",
              "type": "address"
            }
          ],
          "name": "TreasuryAddressChanged",
          "type": "event"
        },
        {
          "anonymous": false,
          "inputs": [
            {
              "indexed": false,
              "internalType": "address",
              "name": "",
              "type": "address"
            },
            {
              "indexed": false,
              "internalType": "uint256",
              "name": "",
              "type": "uint256"
            },
            {
              "indexed": false,
              "internalType": "uint256",
              "name": "",
              "type": "uint256"
            }
          ],
          "name": "UnstakedEvent",
          "type": "event"
        },
        {
          "inputs": [],
          "name": "DEFAULT_ADMIN_ROLE",
          "outputs": [
            {
              "internalType": "bytes32",
              "name": "",
              "type": "bytes32"
            }
          ],
          "stateMutability": "view",
          "type": "function"
        },
        {
          "inputs": [],
          "name": "TREASURY_ROLE",
          "outputs": [
            {
              "internalType": "bytes32",
              "name": "",
              "type": "bytes32"
            }
          ],
          "stateMutability": "view",
          "type": "function"
        },
        {
          "inputs": [
            {
              "internalType": "bytes32",
              "name": "c__0x79e07839",
              "type": "bytes32"
            }
          ],
          "name": "c_0x79e07839",
          "outputs": [],
          "stateMutability": "pure",
          "type": "function"
        },
        {
          "inputs": [
            {
              "internalType": "address",
              "name": "newTreasuryAddress",
              "type": "address"
            }
          ],
          "name": "changeTreasuryAddress",
          "outputs": [],
          "stateMutability": "nonpayable",
          "type": "function"
        },
        {
          "inputs": [],
          "name": "collectFees",
          "outputs": [],
          "stateMutability": "nonpayable",
          "type": "function"
        },
        {
          "inputs": [],
          "name": "erc20Address",
          "outputs": [
            {
              "internalType": "contract IERC20",
              "name": "",
              "type": "address"
            }
          ],
          "stateMutability": "view",
          "type": "function"
        },
        {
          "inputs": [],
          "name": "feesCollected",
          "outputs": [
            {
              "internalType": "uint256",
              "name": "",
              "type": "uint256"
            }
          ],
          "stateMutability": "view",
          "type": "function"
        },
        {
          "inputs": [
            {
              "internalType": "bytes32",
              "name": "role",
              "type": "bytes32"
            }
          ],
          "name": "getRoleAdmin",
          "outputs": [
            {
              "internalType": "bytes32",
              "name": "",
              "type": "bytes32"
            }
          ],
          "stateMutability": "view",
          "type": "function"
        },
        {
          "inputs": [
            {
              "internalType": "bytes32",
              "name": "role",
              "type": "bytes32"
            },
            {
              "internalType": "address",
              "name": "account",
              "type": "address"
            }
          ],
          "name": "grantRole",
          "outputs": [],
          "stateMutability": "nonpayable",
          "type": "function"
        },
        {
          "inputs": [
            {
              "internalType": "bytes32",
              "name": "role",
              "type": "bytes32"
            },
            {
              "internalType": "address",
              "name": "account",
              "type": "address"
            }
          ],
          "name": "hasRole",
          "outputs": [
            {
              "internalType": "bool",
              "name": "",
              "type": "bool"
            }
          ],
          "stateMutability": "view",
          "type": "function"
        },
        {
          "inputs": [
            {
              "internalType": "bytes32",
              "name": "role",
              "type": "bytes32"
            },
            {
              "internalType": "address",
              "name": "account",
              "type": "address"
            }
          ],
          "name": "renounceRole",
          "outputs": [],
          "stateMutability": "nonpayable",
          "type": "function"
        },
        {
          "inputs": [
            {
              "internalType": "bytes32",
              "name": "role",
              "type": "bytes32"
            },
            {
              "internalType": "address",
              "name": "account",
              "type": "address"
            }
          ],
          "name": "revokeRole",
          "outputs": [],
          "stateMutability": "nonpayable",
          "type": "function"
        },
        {
          "inputs": [
            {
              "internalType": "uint256",
              "name": "amount",
              "type": "uint256"
            }
          ],
          "name": "stake",
          "outputs": [],
          "stateMutability": "nonpayable",
          "type": "function"
        },
        {
          "inputs": [
            {
              "internalType": "address",
              "name": "",
              "type": "address"
            }
          ],
          "name": "staked",
          "outputs": [
            {
              "internalType": "uint256",
              "name": "stakedAmount",
              "type": "uint256"
            },
            {
              "internalType": "uint256",
              "name": "stakedTimestamp",
              "type": "uint256"
            }
          ],
          "stateMutability": "view",
          "type": "function"
        },
        {
          "inputs": [
            {
              "internalType": "bytes4",
              "name": "interfaceId",
              "type": "bytes4"
            }
          ],
          "name": "supportsInterface",
          "outputs": [
            {
              "internalType": "bool",
              "name": "",
              "type": "bool"
            }
          ],
          "stateMutability": "view",
          "type": "function"
        },
        {
          "inputs": [],
          "name": "treasury",
          "outputs": [
            {
              "internalType": "address",
              "name": "",
              "type": "address"
            }
          ],
          "stateMutability": "view",
          "type": "function"
        },
        {
          "inputs": [
            {
              "internalType": "uint256",
              "name": "amount",
              "type": "uint256"
            }
          ],
          "name": "unStake",
          "outputs": [],
          "stateMutability": "nonpayable",
          "type": "function"
        }
      ],
      "evm": {
        "bytecode": {
          "linkReferences": {},
          "object": "60a06040523480156200001157600080fd5b5060405162002b6938038062002b6983398181016040528101906200003791906200047d565b6200006b7f19f9aa7af194d1a49debab1cca017446b71dd8bc9ae1fc9993f4a292f65e54a760001b620002d360201b60201c565b6200009f7f28739ca6a5f156514f519be774359192b28dc25cbf01b474cab8f4ba55c6a38d60001b620002d360201b60201c565b620000d37f4db23740c1e35ffdad34235301d2e5810dedfb3027d7c7cf71b102ebd42c6cce60001b620002d360201b60201c565b620000e86000801b33620002d660201b60201c565b6200011c7f8fa2fd8e31693bbb088d5eb353054d57d531ba59b6537771ee7e4f0ef75c6d2b60001b620002d360201b60201c565b620001507ff4010d803fd35a23194a8405676954e1ac3451c3d767352808ce5a3d4ed600e160001b620002d360201b60201c565b620001827fe1dcbdb91df27212a29bc27177c840cf2f819ecf2187432e1fac86c2dd5dfca983620002d660201b60201c565b620001b67fbae2422904c4672467c0678324bd120e3e6d40df05aa1010f43bea3af3b8f67560001b620002d360201b60201c565b620001ea7f45edb48f68c4619298a3c211e690f6310d5ab588df6fdcc57415ececb250f8ad60001b620002d360201b60201c565b8273ffffffffffffffffffffffffffffffffffffffff1660808173ffffffffffffffffffffffffffffffffffffffff1660601b81525050620002557f60026f347cc8adda30bc5d0bdd446105cdfe1b344efd9bd375e0010a8f288f2860001b620002d360201b60201c565b620002897f42a135fddb8bb3e0f7be7886cea4d88eacad7a2a0f0a81aabe1bf38b5c69c19a60001b620002d360201b60201c565b80600360006101000a81548173ffffffffffffffffffffffffffffffffffffffff021916908373ffffffffffffffffffffffffffffffffffffffff1602179055505050506200054f565b50565b620002e88282620002ec60201b60201c565b5050565b620002fe8282620003dd60201b60201c565b620003d957600160008084815260200190815260200160002060000160008373ffffffffffffffffffffffffffffffffffffffff1673ffffffffffffffffffffffffffffffffffffffff16815260200190815260200160002060006101000a81548160ff0219169083151502179055506200037e6200044760201b60201c565b73ffffffffffffffffffffffffffffffffffffffff168173ffffffffffffffffffffffffffffffffffffffff16837f2f8788117e7eff1d82e926ec794901d17c78024a50270940304540a733656f0d60405160405180910390a45b5050565b600080600084815260200190815260200160002060000160008373ffffffffffffffffffffffffffffffffffffffff1673ffffffffffffffffffffffffffffffffffffffff16815260200190815260200160002060009054906101000a900460ff16905092915050565b600033905090565b60008151905062000460816200051b565b92915050565b600081519050620004778162000535565b92915050565b6000806000606084860312156200049357600080fd5b6000620004a38682870162000466565b9350506020620004b6868287016200044f565b9250506040620004c9868287016200044f565b9150509250925092565b6000620004e082620004fb565b9050919050565b6000620004f482620004d3565b9050919050565b600073ffffffffffffffffffffffffffffffffffffffff82169050919050565b6200052681620004d3565b81146200053257600080fd5b50565b6200054081620004e7565b81146200054c57600080fd5b50565b60805160601c6125e662000583600039600081816103d00152818161083501528181610a57015261107301526125e66000f3fe608060405234801561001057600080fd5b506004361061010b5760003560e01c806391d14854116100a2578063a6f353f011610071578063a6f353f0146102b7578063c8796572146102d3578063d11a57ec146102dd578063d547741f146102fb578063f071db5a146103175761010b565b806391d148541461021c57806398807d841461024c578063a217fddf1461027d578063a694fc3a1461029b5761010b565b80632f2ff15d116100de5780632f2ff15d146101aa57806336568abe146101c65780635d3eea91146101e257806361d027b3146101fe5761010b565b806301ffc9a714610110578063248a9ca314610140578063276184ae146101705780632cd42e291461018e575b600080fd5b61012a60048036038101906101259190611b73565b610335565b60405161013791906120c6565b60405180910390f35b61015a60048036038101906101559190611b0e565b6103af565b60405161016791906120e1565b60405180910390f35b6101786103ce565b60405161018591906120fc565b60405180910390f35b6101a860048036038101906101a39190611b0e565b6103f2565b005b6101c460048036038101906101bf9190611b37565b6103f5565b005b6101e060048036038101906101db9190611b37565b61041e565b005b6101fc60048036038101906101f79190611b9c565b6104a1565b005b610206610910565b6040516102139190612014565b60405180910390f35b61023660048036038101906102319190611b37565b610936565b60405161024391906120c6565b60405180910390f35b61026660048036038101906102619190611abc565b6109a0565b604051610274929190612254565b60405180910390f35b6102856109c4565b60405161029291906120e1565b60405180910390f35b6102b560048036038101906102b09190611b9c565b6109cb565b005b6102d160048036038101906102cc9190611abc565b610ce8565b005b6102db610f92565b005b6102e56110ba565b6040516102f291906120e1565b60405180910390f35b61031560048036038101906103109190611b37565b6110de565b005b61031f611107565b60405161032c9190612239565b60405180910390f35b60007f7965db0b000000000000000000000000000000000000000000000000000000007bffffffffffffffffffffffffffffffffffffffffffffffffffffffff1916827bffffffffffffffffffffffffffffffffffffffffffffffffffffffff191614806103a857506103a78261110d565b5b9050919050565b6000806000838152602001908152602001600020600101549050919050565b7f000000000000000000000000000000000000000000000000000000000000000081565b50565b6103fe826103af565b61040f8161040a611177565b61117f565b610419838361121c565b505050565b610426611177565b73ffffffffffffffffffffffffffffffffffffffff168173ffffffffffffffffffffffffffffffffffffffff1614610493576040517f08c379a000000000000000000000000000000000000000000000000000000000815260040161048a90612219565b60405180910390fd5b61049d82826112fc565b5050565b6104cd7fca92f347e69378195195346d5612955cd79128253a20c7b925a4b8b70951ec8660001b6103f2565b6104f97ff79de88fc968ac0c94f352616d61d09986b9cedfae22ae71bb0cd191ffb2719f60001b6103f2565b6105257fdf247b2821887ace4573560c37c035d7227f2405fe6c4a741e1736929919166160001b6103f2565b6000600160003373ffffffffffffffffffffffffffffffffffffffff1673ffffffffffffffffffffffffffffffffffffffff16815260200190815260200160002090506105947f58629ce8371ec829dba1ff8cf41ed56407c14e43bb78c481e798af83e8120d6260001b6103f2565b6105c07f656373fda4c9aa5abbcfd8bfb7e31c2340fa3c1345618c1c7201fba4f61fa9a360001b6103f2565b6105ec7f2809763ee828cbe29ce19fecb908bd083f552c644e8a30e125aebd640a71261f60001b6103f2565b611c208160010154426105ff919061239b565b1015610640576040517f08c379a000000000000000000000000000000000000000000000000000000000815260040161063790612179565b60405180910390fd5b61066c7f0943998b752ca3165f84729a826529cec8d3cb4a6506042d975d61c6f3f0c97e60001b6103f2565b6106987fa518b06c844095125bdf2f4fea12910937b17a0447890a573d2581820e5c64d160001b6103f2565b6106c47facc1363942dd9f830ecf8a74511da63c9125336caef79f8f07282c0e2b468d4f60001b6103f2565b6106f07f8f5c7d38147ddaddd32df0f0f1c1c8483edc28063df37ae9f9c334526dec950660001b6103f2565b8181600001541015610737576040517f08c379a000000000000000000000000000000000000000000000000000000000815260040161072e906121b9565b60405180910390fd5b6107637f04a8e35fa0d33ee372891a7f406f573561ad7f8a9137b97de5a6289f20d106cb60001b6103f2565b61078f7f513261616e9444aea748507c08897659bd46b38b90d33bf0533438bf62a7608360001b6103f2565b6107bb7fee7d88e981c658ab8e7c89b8d0439b2905a4242f0c216eb08baba77372b000da60001b6103f2565b818160000160008282546107cf919061239b565b925050819055506108027fd570294f3225eee76b4a97a5bac7e03ff88285fb396bbb7d45c2104b5099689860001b6103f2565b61082e7fa8b5148d74a29220b8ac4713d06a7f213cdf4f6eb6123c9217735891cc8dd28860001b6103f2565b61087933837f000000000000000000000000000000000000000000000000000000000000000073ffffffffffffffffffffffffffffffffffffffff166113dd9092919063ffffffff16565b6108a57f13b0f4a9976627897261a8c4a7100f88ad6310bc3025ae457feec54f7167f18260001b6103f2565b6108d17f1d3aea78a06a3f43c8d7047d4f2b363f6885420856ba3950a6c089eed265139560001b6103f2565b7f267a093b38a82a99fd51624aac25cecd7fb617ec39af258f03f9680540d6bba23383426040516109049392919061208f565b60405180910390a15050565b600360009054906101000a900473ffffffffffffffffffffffffffffffffffffffff1681565b600080600084815260200190815260200160002060000160008373ffffffffffffffffffffffffffffffffffffffff1673ffffffffffffffffffffffffffffffffffffffff16815260200190815260200160002060009054906101000a900460ff16905092915050565b60016020528060005260406000206000915090508060000154908060010154905082565b6000801b81565b6109f77f3170820d83106a65c510a78ce26869801124ab5b0c68813219653fca87ff0e5e60001b6103f2565b610a237f1bc07521aa0a9fae0af5d6d3c9cb20e198dd205600efe4ff2e0f146fbf4430f660001b6103f2565b610a4f7fa0f29d31b9619673fc98c61d59d537d039a3c6fbc9e0ea549b0a517ac02286ce60001b6103f2565b610a9c3330837f000000000000000000000000000000000000000000000000000000000000000073ffffffffffffffffffffffffffffffffffffffff16611463909392919063ffffffff16565b610ac87f52a97c65c40019fc66806dbff9d9109f875f74167c8c2bb6d12f1208bc769b4a60001b6103f2565b610af47f33e31ba5f00bb8591dd3ddbaf501bfb362dcfdb8b0e24b808f94174ea95a9cff60001b6103f2565b60006103e8600283610b069190612341565b610b109190612310565b9050610b3e7f1e93a58de61defbeeee1b6af98f186a26cef640bd7e754ce7a4873e871b4fc0260001b6103f2565b610b6a7f3c9f2684ca927704660fadbd3adf41ac27f124b24b47b61db156861d6b85e50960001b6103f2565b8060026000828254610b7c91906122ba565b92505081905550610baf7f29e725c4f2c9ebb66a94595011e92351f31c8524676851874b8f2a4f1c3386db60001b6103f2565b610bdb7f6f9e35de10f7dfed16bb0463890f0b68179e80ef2ccdf48df788d4b904f8017d60001b6103f2565b60405180604001604052808284610bf2919061239b565b815260200142815250600160003373ffffffffffffffffffffffffffffffffffffffff1673ffffffffffffffffffffffffffffffffffffffff1681526020019081526020016000206000820151816000015560208201518160010155905050610c7d7fe8cb288ca3672969a5d34770366312e3a747ec55f77fdf81fcea4ed2e453b87260001b6103f2565b610ca97fe20600211afbf7102385cc9947ad4b49a5ab4eb8e75bcc9da28a5d08d2b3b37360001b6103f2565b7f9c124b95a803ee32203c8a3b4c3364da0aadeba2bd44cf4c2b80c1ecc9bf4082338342604051610cdc9392919061208f565b60405180910390a15050565b7fe1dcbdb91df27212a29bc27177c840cf2f819ecf2187432e1fac86c2dd5dfca9610d1a81610d15611177565b61117f565b610d467f61050a95486b9444b3096889510e40e478cc0481c1d927eed8ff6e090ec064f660001b6103f2565b610d727f5b470afd4c2f44c808dc75ddf76a53b86e7aea3ed8fb1b3e1c755235f220455a60001b6103f2565b610d9e7f73e9be0a9d0e6020cd333bfb9d6fb1f13b4f9b66fdaeb905974d94800491e2b860001b6103f2565b610dca7f33251ac694983db1e12ded9f2bcf7a5241407bd9c0e9de213b37879e3537ad3d60001b6103f2565b600073ffffffffffffffffffffffffffffffffffffffff168273ffffffffffffffffffffffffffffffffffffffff161415610e3a576040517f08c379a0000000000000000000000000000000000000000000000000000000008152600401610e3190612139565b60405180910390fd5b610e667fcd45f0d170c11587da222a6e6ac0bbdde573b7dbcd8a735b58e39ced3ace33e060001b6103f2565b610e927f6ce2202a1707de7aed8bb32dccfede06271d00996caea9e468685d193586604160001b6103f2565b610ebe7fca44d4e38a11005a9d53e95b4a5f3070dfe93e2f13de2a71c94627ad44e79c3b60001b6103f2565b81600360006101000a81548173ffffffffffffffffffffffffffffffffffffffff021916908373ffffffffffffffffffffffffffffffffffffffff160217905550610f2b7fabc99a08d50549a3d2562c2468de437b5a2b3041c11890e3629da96b2966c9a260001b6103f2565b610f577f68d8efa7cb0afe548c8cbd7270a6489da10d26729fd6d19968954b051e4fdcd060001b6103f2565b7f9073dfac663173e64aa95665faedae52e2246f9bcdd3890fbfaf6733b46bba1382604051610f869190612014565b60405180910390a15050565b7fe1dcbdb91df27212a29bc27177c840cf2f819ecf2187432e1fac86c2dd5dfca9610fc481610fbf611177565b61117f565b610ff07f9e92a7050759d9c7211d87e87e266d49abff4fd7a852e12496ed9a26a13660ba60001b6103f2565b61101c7fd6760b779ca2b9cb92ba83cc80fef2110ecbe8128262dd3dae9daf4c41a11b4e60001b6103f2565b6110487f3ae9649528f890373fd7f760281cacc5e6567e4d5f585a86c4689d769fef41c760001b6103f2565b6110b7600360009054906101000a900473ffffffffffffffffffffffffffffffffffffffff166002547f000000000000000000000000000000000000000000000000000000000000000073ffffffffffffffffffffffffffffffffffffffff166113dd9092919063ffffffff16565b50565b7fe1dcbdb91df27212a29bc27177c840cf2f819ecf2187432e1fac86c2dd5dfca981565b6110e7826103af565b6110f8816110f3611177565b61117f565b61110283836112fc565b505050565b60025481565b60007f01ffc9a7000000000000000000000000000000000000000000000000000000007bffffffffffffffffffffffffffffffffffffffffffffffffffffffff1916827bffffffffffffffffffffffffffffffffffffffffffffffffffffffff1916149050919050565b600033905090565b6111898282610936565b611218576111ae8173ffffffffffffffffffffffffffffffffffffffff1660146114ec565b6111bc8360001c60206114ec565b6040516020016111cd929190611fda565b6040516020818303038152906040526040517f08c379a000000000000000000000000000000000000000000000000000000000815260040161120f9190612117565b60405180910390fd5b5050565b6112268282610936565b6112f857600160008084815260200190815260200160002060000160008373ffffffffffffffffffffffffffffffffffffffff1673ffffffffffffffffffffffffffffffffffffffff16815260200190815260200160002060006101000a81548160ff02191690831515021790555061129d611177565b73ffffffffffffffffffffffffffffffffffffffff168173ffffffffffffffffffffffffffffffffffffffff16837f2f8788117e7eff1d82e926ec794901d17c78024a50270940304540a733656f0d60405160405180910390a45b5050565b6113068282610936565b156113d957600080600084815260200190815260200160002060000160008373ffffffffffffffffffffffffffffffffffffffff1673ffffffffffffffffffffffffffffffffffffffff16815260200190815260200160002060006101000a81548160ff02191690831515021790555061137e611177565b73ffffffffffffffffffffffffffffffffffffffff168173ffffffffffffffffffffffffffffffffffffffff16837ff6391f5c32d9c69d2a47ea670b442974b53935d1edc7fd64eb21e047a839171b60405160405180910390a45b5050565b61145e8363a9059cbb60e01b84846040516024016113fc929190612066565b604051602081830303815290604052907bffffffffffffffffffffffffffffffffffffffffffffffffffffffff19166020820180517bffffffffffffffffffffffffffffffffffffffffffffffffffffffff83818316178352505050506117e6565b505050565b6114e6846323b872dd60e01b8585856040516024016114849392919061202f565b604051602081830303815290604052907bffffffffffffffffffffffffffffffffffffffffffffffffffffffff19166020820180517bffffffffffffffffffffffffffffffffffffffffffffffffffffffff83818316178352505050506117e6565b50505050565b6060600060028360026114ff9190612341565b61150991906122ba565b67ffffffffffffffff811115611548577f4e487b7100000000000000000000000000000000000000000000000000000000600052604160045260246000fd5b6040519080825280601f01601f19166020018201604052801561157a5781602001600182028036833780820191505090505b5090507f3000000000000000000000000000000000000000000000000000000000000000816000815181106115d8577f4e487b7100000000000000000000000000000000000000000000000000000000600052603260045260246000fd5b60200101907effffffffffffffffffffffffffffffffffffffffffffffffffffffffffffff1916908160001a9053507f780000000000000000000000000000000000000000000000000000000000000081600181518110611662577f4e487b7100000000000000000000000000000000000000000000000000000000600052603260045260246000fd5b60200101907effffffffffffffffffffffffffffffffffffffffffffffffffffffffffffff1916908160001a905350600060018460026116a29190612341565b6116ac91906122ba565b90505b6001811115611798577f3031323334353637383961626364656600000000000000000000000000000000600f861660108110611714577f4e487b7100000000000000000000000000000000000000000000000000000000600052603260045260246000fd5b1a60f81b828281518110611751577f4e487b7100000000000000000000000000000000000000000000000000000000600052603260045260246000fd5b60200101907effffffffffffffffffffffffffffffffffffffffffffffffffffffffffffff1916908160001a905350600485901c945080611791906124a4565b90506116af565b50600084146117dc576040517f08c379a00000000000000000000000000000000000000000000000000000000081526004016117d390612159565b60405180910390fd5b8091505092915050565b6000611848826040518060400160405280602081526020017f5361666545524332303a206c6f772d6c6576656c2063616c6c206661696c65648152508573ffffffffffffffffffffffffffffffffffffffff166118ad9092919063ffffffff16565b90506000815111156118a857808060200190518101906118689190611ae5565b6118a7576040517f08c379a000000000000000000000000000000000000000000000000000000000815260040161189e906121f9565b60405180910390fd5b5b505050565b60606118bc84846000856118c5565b90509392505050565b60608247101561190a576040517f08c379a000000000000000000000000000000000000000000000000000000000815260040161190190612199565b60405180910390fd5b611913856119d9565b611952576040517f08c379a0000000000000000000000000000000000000000000000000000000008152600401611949906121d9565b60405180910390fd5b6000808673ffffffffffffffffffffffffffffffffffffffff16858760405161197b9190611fc3565b60006040518083038185875af1925050503d80600081146119b8576040519150601f19603f3d011682016040523d82523d6000602084013e6119bd565b606091505b50915091506119cd8282866119ec565b92505050949350505050565b600080823b905060008111915050919050565b606083156119fc57829050611a4c565b600083511115611a0f5782518084602001fd5b816040517f08c379a0000000000000000000000000000000000000000000000000000000008152600401611a439190612117565b60405180910390fd5b9392505050565b600081359050611a628161253d565b92915050565b600081519050611a7781612554565b92915050565b600081359050611a8c8161256b565b92915050565b600081359050611aa181612582565b92915050565b600081359050611ab681612599565b92915050565b600060208284031215611ace57600080fd5b6000611adc84828501611a53565b91505092915050565b600060208284031215611af757600080fd5b6000611b0584828501611a68565b91505092915050565b600060208284031215611b2057600080fd5b6000611b2e84828501611a7d565b91505092915050565b60008060408385031215611b4a57600080fd5b6000611b5885828601611a7d565b9250506020611b6985828601611a53565b9150509250929050565b600060208284031215611b8557600080fd5b6000611b9384828501611a92565b91505092915050565b600060208284031215611bae57600080fd5b6000611bbc84828501611aa7565b91505092915050565b611bce816123cf565b82525050565b611bdd816123e1565b82525050565b611bec816123ed565b82525050565b6000611bfd8261227d565b611c078185612293565b9350611c17818560208601612471565b80840191505092915050565b611c2c8161244d565b82525050565b6000611c3d82612288565b611c47818561229e565b9350611c57818560208601612471565b611c608161252c565b840191505092915050565b6000611c7682612288565b611c8081856122af565b9350611c90818560208601612471565b80840191505092915050565b6000611ca960198361229e565b91507f4e6f6e207a65726f2061646472657373207265717569726564000000000000006000830152602082019050919050565b6000611ce960208361229e565b91507f537472696e67733a20686578206c656e67746820696e73756666696369656e746000830152602082019050919050565b6000611d2960188361229e565b91507f5761697420756e74696c20756e6c6f636b20706572696f6400000000000000006000830152602082019050919050565b6000611d6960268361229e565b91507f416464726573733a20696e73756666696369656e742062616c616e636520666f60008301527f722063616c6c00000000000000000000000000000000000000000000000000006020830152604082019050919050565b6000611dcf602e8361229e565b91507f43616e6e6f7420756e7374616b65206d6f7265207468616e207468652064657060008301527f6f736974656420616d6f756e742e0000000000000000000000000000000000006020830152604082019050919050565b6000611e35601d8361229e565b91507f416464726573733a2063616c6c20746f206e6f6e2d636f6e74726163740000006000830152602082019050919050565b6000611e756017836122af565b91507f416363657373436f6e74726f6c3a206163636f756e74200000000000000000006000830152601782019050919050565b6000611eb5602a8361229e565b91507f5361666545524332303a204552433230206f7065726174696f6e20646964206e60008301527f6f742073756363656564000000000000000000000000000000000000000000006020830152604082019050919050565b6000611f1b6011836122af565b91507f206973206d697373696e6720726f6c65200000000000000000000000000000006000830152601182019050919050565b6000611f5b602f8361229e565b91507f416363657373436f6e74726f6c3a2063616e206f6e6c792072656e6f756e636560008301527f20726f6c657320666f722073656c6600000000000000000000000000000000006020830152604082019050919050565b611fbd81612443565b82525050565b6000611fcf8284611bf2565b915081905092915050565b6000611fe582611e68565b9150611ff18285611c6b565b9150611ffc82611f0e565b91506120088284611c6b565b91508190509392505050565b60006020820190506120296000830184611bc5565b92915050565b60006060820190506120446000830186611bc5565b6120516020830185611bc5565b61205e6040830184611fb4565b949350505050565b600060408201905061207b6000830185611bc5565b6120886020830184611fb4565b9392505050565b60006060820190506120a46000830186611bc5565b6120b16020830185611fb4565b6120be6040830184611fb4565b949350505050565b60006020820190506120db6000830184611bd4565b92915050565b60006020820190506120f66000830184611be3565b92915050565b60006020820190506121116000830184611c23565b92915050565b600060208201905081810360008301526121318184611c32565b905092915050565b6000602082019050818103600083015261215281611c9c565b9050919050565b6000602082019050818103600083015261217281611cdc565b9050919050565b6000602082019050818103600083015261219281611d1c565b9050919050565b600060208201905081810360008301526121b281611d5c565b9050919050565b600060208201905081810360008301526121d281611dc2565b9050919050565b600060208201905081810360008301526121f281611e28565b9050919050565b6000602082019050818103600083015261221281611ea8565b9050919050565b6000602082019050818103600083015261223281611f4e565b9050919050565b600060208201905061224e6000830184611fb4565b92915050565b60006040820190506122696000830185611fb4565b6122766020830184611fb4565b9392505050565b600081519050919050565b600081519050919050565b600081905092915050565b600082825260208201905092915050565b600081905092915050565b60006122c582612443565b91506122d083612443565b9250827fffffffffffffffffffffffffffffffffffffffffffffffffffffffffffffffff03821115612305576123046124ce565b5b828201905092915050565b600061231b82612443565b915061232683612443565b925082612336576123356124fd565b5b828204905092915050565b600061234c82612443565b915061235783612443565b9250817fffffffffffffffffffffffffffffffffffffffffffffffffffffffffffffffff04831182151516156123905761238f6124ce565b5b828202905092915050565b60006123a682612443565b91506123b183612443565b9250828210156123c4576123c36124ce565b5b828203905092915050565b60006123da82612423565b9050919050565b60008115159050919050565b6000819050919050565b60007fffffffff0000000000000000000000000000000000000000000000000000000082169050919050565b600073ffffffffffffffffffffffffffffffffffffffff82169050919050565b6000819050919050565b60006124588261245f565b9050919050565b600061246a82612423565b9050919050565b60005b8381101561248f578082015181840152602081019050612474565b8381111561249e576000848401525b50505050565b60006124af82612443565b915060008214156124c3576124c26124ce565b5b600182039050919050565b7f4e487b7100000000000000000000000000000000000000000000000000000000600052601160045260246000fd5b7f4e487b7100000000000000000000000000000000000000000000000000000000600052601260045260246000fd5b6000601f19601f8301169050919050565b612546816123cf565b811461255157600080fd5b50565b61255d816123e1565b811461256857600080fd5b50565b612574816123ed565b811461257f57600080fd5b50565b61258b816123f7565b811461259657600080fd5b50565b6125a281612443565b81146125ad57600080fd5b5056fea2646970667358221220604b59768dde2617513df9bc9b56fd8fa3ce6ce2d8cdd55390472465696786bf64736f6c63430008000033",
          "opcodes": "PUSH1 0xA0 PUSH1 0x40 MSTORE CALLVALUE DUP1 ISZERO PUSH3 0x11 JUMPI PUSH1 0x0 DUP1 REVERT JUMPDEST POP PUSH1 0x40 MLOAD PUSH3 0x2B69 CODESIZE SUB DUP1 PUSH3 0x2B69 DUP4 CODECOPY DUP2 DUP2 ADD PUSH1 0x40 MSTORE DUP2 ADD SWAP1 PUSH3 0x37 SWAP2 SWAP1 PUSH3 0x47D JUMP JUMPDEST PUSH3 0x6B PUSH32 0x19F9AA7AF194D1A49DEBAB1CCA017446B71DD8BC9AE1FC9993F4A292F65E54A7 PUSH1 0x0 SHL PUSH3 0x2D3 PUSH1 0x20 SHL PUSH1 0x20 SHR JUMP JUMPDEST PUSH3 0x9F PUSH32 0x28739CA6A5F156514F519BE774359192B28DC25CBF01B474CAB8F4BA55C6A38D PUSH1 0x0 SHL PUSH3 0x2D3 PUSH1 0x20 SHL PUSH1 0x20 SHR JUMP JUMPDEST PUSH3 0xD3 PUSH32 0x4DB23740C1E35FFDAD34235301D2E5810DEDFB3027D7C7CF71B102EBD42C6CCE PUSH1 0x0 SHL PUSH3 0x2D3 PUSH1 0x20 SHL PUSH1 0x20 SHR JUMP JUMPDEST PUSH3 0xE8 PUSH1 0x0 DUP1 SHL CALLER PUSH3 0x2D6 PUSH1 0x20 SHL PUSH1 0x20 SHR JUMP JUMPDEST PUSH3 0x11C PUSH32 0x8FA2FD8E31693BBB088D5EB353054D57D531BA59B6537771EE7E4F0EF75C6D2B PUSH1 0x0 SHL PUSH3 0x2D3 PUSH1 0x20 SHL PUSH1 0x20 SHR JUMP JUMPDEST PUSH3 0x150 PUSH32 0xF4010D803FD35A23194A8405676954E1AC3451C3D767352808CE5A3D4ED600E1 PUSH1 0x0 SHL PUSH3 0x2D3 PUSH1 0x20 SHL PUSH1 0x20 SHR JUMP JUMPDEST PUSH3 0x182 PUSH32 0xE1DCBDB91DF27212A29BC27177C840CF2F819ECF2187432E1FAC86C2DD5DFCA9 DUP4 PUSH3 0x2D6 PUSH1 0x20 SHL PUSH1 0x20 SHR JUMP JUMPDEST PUSH3 0x1B6 PUSH32 0xBAE2422904C4672467C0678324BD120E3E6D40DF05AA1010F43BEA3AF3B8F675 PUSH1 0x0 SHL PUSH3 0x2D3 PUSH1 0x20 SHL PUSH1 0x20 SHR JUMP JUMPDEST PUSH3 0x1EA PUSH32 0x45EDB48F68C4619298A3C211E690F6310D5AB588DF6FDCC57415ECECB250F8AD PUSH1 0x0 SHL PUSH3 0x2D3 PUSH1 0x20 SHL PUSH1 0x20 SHR JUMP JUMPDEST DUP3 PUSH20 0xFFFFFFFFFFFFFFFFFFFFFFFFFFFFFFFFFFFFFFFF AND PUSH1 0x80 DUP2 PUSH20 0xFFFFFFFFFFFFFFFFFFFFFFFFFFFFFFFFFFFFFFFF AND PUSH1 0x60 SHL DUP2 MSTORE POP POP PUSH3 0x255 PUSH32 0x60026F347CC8ADDA30BC5D0BDD446105CDFE1B344EFD9BD375E0010A8F288F28 PUSH1 0x0 SHL PUSH3 0x2D3 PUSH1 0x20 SHL PUSH1 0x20 SHR JUMP JUMPDEST PUSH3 0x289 PUSH32 0x42A135FDDB8BB3E0F7BE7886CEA4D88EACAD7A2A0F0A81AABE1BF38B5C69C19A PUSH1 0x0 SHL PUSH3 0x2D3 PUSH1 0x20 SHL PUSH1 0x20 SHR JUMP JUMPDEST DUP1 PUSH1 0x3 PUSH1 0x0 PUSH2 0x100 EXP DUP2 SLOAD DUP2 PUSH20 0xFFFFFFFFFFFFFFFFFFFFFFFFFFFFFFFFFFFFFFFF MUL NOT AND SWAP1 DUP4 PUSH20 0xFFFFFFFFFFFFFFFFFFFFFFFFFFFFFFFFFFFFFFFF AND MUL OR SWAP1 SSTORE POP POP POP POP PUSH3 0x54F JUMP JUMPDEST POP JUMP JUMPDEST PUSH3 0x2E8 DUP3 DUP3 PUSH3 0x2EC PUSH1 0x20 SHL PUSH1 0x20 SHR JUMP JUMPDEST POP POP JUMP JUMPDEST PUSH3 0x2FE DUP3 DUP3 PUSH3 0x3DD PUSH1 0x20 SHL PUSH1 0x20 SHR JUMP JUMPDEST PUSH3 0x3D9 JUMPI PUSH1 0x1 PUSH1 0x0 DUP1 DUP5 DUP2 MSTORE PUSH1 0x20 ADD SWAP1 DUP2 MSTORE PUSH1 0x20 ADD PUSH1 0x0 KECCAK256 PUSH1 0x0 ADD PUSH1 0x0 DUP4 PUSH20 0xFFFFFFFFFFFFFFFFFFFFFFFFFFFFFFFFFFFFFFFF AND PUSH20 0xFFFFFFFFFFFFFFFFFFFFFFFFFFFFFFFFFFFFFFFF AND DUP2 MSTORE PUSH1 0x20 ADD SWAP1 DUP2 MSTORE PUSH1 0x20 ADD PUSH1 0x0 KECCAK256 PUSH1 0x0 PUSH2 0x100 EXP DUP2 SLOAD DUP2 PUSH1 0xFF MUL NOT AND SWAP1 DUP4 ISZERO ISZERO MUL OR SWAP1 SSTORE POP PUSH3 0x37E PUSH3 0x447 PUSH1 0x20 SHL PUSH1 0x20 SHR JUMP JUMPDEST PUSH20 0xFFFFFFFFFFFFFFFFFFFFFFFFFFFFFFFFFFFFFFFF AND DUP2 PUSH20 0xFFFFFFFFFFFFFFFFFFFFFFFFFFFFFFFFFFFFFFFF AND DUP4 PUSH32 0x2F8788117E7EFF1D82E926EC794901D17C78024A50270940304540A733656F0D PUSH1 0x40 MLOAD PUSH1 0x40 MLOAD DUP1 SWAP2 SUB SWAP1 LOG4 JUMPDEST POP POP JUMP JUMPDEST PUSH1 0x0 DUP1 PUSH1 0x0 DUP5 DUP2 MSTORE PUSH1 0x20 ADD SWAP1 DUP2 MSTORE PUSH1 0x20 ADD PUSH1 0x0 KECCAK256 PUSH1 0x0 ADD PUSH1 0x0 DUP4 PUSH20 0xFFFFFFFFFFFFFFFFFFFFFFFFFFFFFFFFFFFFFFFF AND PUSH20 0xFFFFFFFFFFFFFFFFFFFFFFFFFFFFFFFFFFFFFFFF AND DUP2 MSTORE PUSH1 0x20 ADD SWAP1 DUP2 MSTORE PUSH1 0x20 ADD PUSH1 0x0 KECCAK256 PUSH1 0x0 SWAP1 SLOAD SWAP1 PUSH2 0x100 EXP SWAP1 DIV PUSH1 0xFF AND SWAP1 POP SWAP3 SWAP2 POP POP JUMP JUMPDEST PUSH1 0x0 CALLER SWAP1 POP SWAP1 JUMP JUMPDEST PUSH1 0x0 DUP2 MLOAD SWAP1 POP PUSH3 0x460 DUP2 PUSH3 0x51B JUMP JUMPDEST SWAP3 SWAP2 POP POP JUMP JUMPDEST PUSH1 0x0 DUP2 MLOAD SWAP1 POP PUSH3 0x477 DUP2 PUSH3 0x535 JUMP JUMPDEST SWAP3 SWAP2 POP POP JUMP JUMPDEST PUSH1 0x0 DUP1 PUSH1 0x0 PUSH1 0x60 DUP5 DUP7 SUB SLT ISZERO PUSH3 0x493 JUMPI PUSH1 0x0 DUP1 REVERT JUMPDEST PUSH1 0x0 PUSH3 0x4A3 DUP7 DUP3 DUP8 ADD PUSH3 0x466 JUMP JUMPDEST SWAP4 POP POP PUSH1 0x20 PUSH3 0x4B6 DUP7 DUP3 DUP8 ADD PUSH3 0x44F JUMP JUMPDEST SWAP3 POP POP PUSH1 0x40 PUSH3 0x4C9 DUP7 DUP3 DUP8 ADD PUSH3 0x44F JUMP JUMPDEST SWAP2 POP POP SWAP3 POP SWAP3 POP SWAP3 JUMP JUMPDEST PUSH1 0x0 PUSH3 0x4E0 DUP3 PUSH3 0x4FB JUMP JUMPDEST SWAP1 POP SWAP2 SWAP1 POP JUMP JUMPDEST PUSH1 0x0 PUSH3 0x4F4 DUP3 PUSH3 0x4D3 JUMP JUMPDEST SWAP1 POP SWAP2 SWAP1 POP JUMP JUMPDEST PUSH1 0x0 PUSH20 0xFFFFFFFFFFFFFFFFFFFFFFFFFFFFFFFFFFFFFFFF DUP3 AND SWAP1 POP SWAP2 SWAP1 POP JUMP JUMPDEST PUSH3 0x526 DUP2 PUSH3 0x4D3 JUMP JUMPDEST DUP2 EQ PUSH3 0x532 JUMPI PUSH1 0x0 DUP1 REVERT JUMPDEST POP JUMP JUMPDEST PUSH3 0x540 DUP2 PUSH3 0x4E7 JUMP JUMPDEST DUP2 EQ PUSH3 0x54C JUMPI PUSH1 0x0 DUP1 REVERT JUMPDEST POP JUMP JUMPDEST PUSH1 0x80 MLOAD PUSH1 0x60 SHR PUSH2 0x25E6 PUSH3 0x583 PUSH1 0x0 CODECOPY PUSH1 0x0 DUP2 DUP2 PUSH2 0x3D0 ADD MSTORE DUP2 DUP2 PUSH2 0x835 ADD MSTORE DUP2 DUP2 PUSH2 0xA57 ADD MSTORE PUSH2 0x1073 ADD MSTORE PUSH2 0x25E6 PUSH1 0x0 RETURN INVALID PUSH1 0x80 PUSH1 0x40 MSTORE CALLVALUE DUP1 ISZERO PUSH2 0x10 JUMPI PUSH1 0x0 DUP1 REVERT JUMPDEST POP PUSH1 0x4 CALLDATASIZE LT PUSH2 0x10B JUMPI PUSH1 0x0 CALLDATALOAD PUSH1 0xE0 SHR DUP1 PUSH4 0x91D14854 GT PUSH2 0xA2 JUMPI DUP1 PUSH4 0xA6F353F0 GT PUSH2 0x71 JUMPI DUP1 PUSH4 0xA6F353F0 EQ PUSH2 0x2B7 JUMPI DUP1 PUSH4 0xC8796572 EQ PUSH2 0x2D3 JUMPI DUP1 PUSH4 0xD11A57EC EQ PUSH2 0x2DD JUMPI DUP1 PUSH4 0xD547741F EQ PUSH2 0x2FB JUMPI DUP1 PUSH4 0xF071DB5A EQ PUSH2 0x317 JUMPI PUSH2 0x10B JUMP JUMPDEST DUP1 PUSH4 0x91D14854 EQ PUSH2 0x21C JUMPI DUP1 PUSH4 0x98807D84 EQ PUSH2 0x24C JUMPI DUP1 PUSH4 0xA217FDDF EQ PUSH2 0x27D JUMPI DUP1 PUSH4 0xA694FC3A EQ PUSH2 0x29B JUMPI PUSH2 0x10B JUMP JUMPDEST DUP1 PUSH4 0x2F2FF15D GT PUSH2 0xDE JUMPI DUP1 PUSH4 0x2F2FF15D EQ PUSH2 0x1AA JUMPI DUP1 PUSH4 0x36568ABE EQ PUSH2 0x1C6 JUMPI DUP1 PUSH4 0x5D3EEA91 EQ PUSH2 0x1E2 JUMPI DUP1 PUSH4 0x61D027B3 EQ PUSH2 0x1FE JUMPI PUSH2 0x10B JUMP JUMPDEST DUP1 PUSH4 0x1FFC9A7 EQ PUSH2 0x110 JUMPI DUP1 PUSH4 0x248A9CA3 EQ PUSH2 0x140 JUMPI DUP1 PUSH4 0x276184AE EQ PUSH2 0x170 JUMPI DUP1 PUSH4 0x2CD42E29 EQ PUSH2 0x18E JUMPI JUMPDEST PUSH1 0x0 DUP1 REVERT JUMPDEST PUSH2 0x12A PUSH1 0x4 DUP1 CALLDATASIZE SUB DUP2 ADD SWAP1 PUSH2 0x125 SWAP2 SWAP1 PUSH2 0x1B73 JUMP JUMPDEST PUSH2 0x335 JUMP JUMPDEST PUSH1 0x40 MLOAD PUSH2 0x137 SWAP2 SWAP1 PUSH2 0x20C6 JUMP JUMPDEST PUSH1 0x40 MLOAD DUP1 SWAP2 SUB SWAP1 RETURN JUMPDEST PUSH2 0x15A PUSH1 0x4 DUP1 CALLDATASIZE SUB DUP2 ADD SWAP1 PUSH2 0x155 SWAP2 SWAP1 PUSH2 0x1B0E JUMP JUMPDEST PUSH2 0x3AF JUMP JUMPDEST PUSH1 0x40 MLOAD PUSH2 0x167 SWAP2 SWAP1 PUSH2 0x20E1 JUMP JUMPDEST PUSH1 0x40 MLOAD DUP1 SWAP2 SUB SWAP1 RETURN JUMPDEST PUSH2 0x178 PUSH2 0x3CE JUMP JUMPDEST PUSH1 0x40 MLOAD PUSH2 0x185 SWAP2 SWAP1 PUSH2 0x20FC JUMP JUMPDEST PUSH1 0x40 MLOAD DUP1 SWAP2 SUB SWAP1 RETURN JUMPDEST PUSH2 0x1A8 PUSH1 0x4 DUP1 CALLDATASIZE SUB DUP2 ADD SWAP1 PUSH2 0x1A3 SWAP2 SWAP1 PUSH2 0x1B0E JUMP JUMPDEST PUSH2 0x3F2 JUMP JUMPDEST STOP JUMPDEST PUSH2 0x1C4 PUSH1 0x4 DUP1 CALLDATASIZE SUB DUP2 ADD SWAP1 PUSH2 0x1BF SWAP2 SWAP1 PUSH2 0x1B37 JUMP JUMPDEST PUSH2 0x3F5 JUMP JUMPDEST STOP JUMPDEST PUSH2 0x1E0 PUSH1 0x4 DUP1 CALLDATASIZE SUB DUP2 ADD SWAP1 PUSH2 0x1DB SWAP2 SWAP1 PUSH2 0x1B37 JUMP JUMPDEST PUSH2 0x41E JUMP JUMPDEST STOP JUMPDEST PUSH2 0x1FC PUSH1 0x4 DUP1 CALLDATASIZE SUB DUP2 ADD SWAP1 PUSH2 0x1F7 SWAP2 SWAP1 PUSH2 0x1B9C JUMP JUMPDEST PUSH2 0x4A1 JUMP JUMPDEST STOP JUMPDEST PUSH2 0x206 PUSH2 0x910 JUMP JUMPDEST PUSH1 0x40 MLOAD PUSH2 0x213 SWAP2 SWAP1 PUSH2 0x2014 JUMP JUMPDEST PUSH1 0x40 MLOAD DUP1 SWAP2 SUB SWAP1 RETURN JUMPDEST PUSH2 0x236 PUSH1 0x4 DUP1 CALLDATASIZE SUB DUP2 ADD SWAP1 PUSH2 0x231 SWAP2 SWAP1 PUSH2 0x1B37 JUMP JUMPDEST PUSH2 0x936 JUMP JUMPDEST PUSH1 0x40 MLOAD PUSH2 0x243 SWAP2 SWAP1 PUSH2 0x20C6 JUMP JUMPDEST PUSH1 0x40 MLOAD DUP1 SWAP2 SUB SWAP1 RETURN JUMPDEST PUSH2 0x266 PUSH1 0x4 DUP1 CALLDATASIZE SUB DUP2 ADD SWAP1 PUSH2 0x261 SWAP2 SWAP1 PUSH2 0x1ABC JUMP JUMPDEST PUSH2 0x9A0 JUMP JUMPDEST PUSH1 0x40 MLOAD PUSH2 0x274 SWAP3 SWAP2 SWAP1 PUSH2 0x2254 JUMP JUMPDEST PUSH1 0x40 MLOAD DUP1 SWAP2 SUB SWAP1 RETURN JUMPDEST PUSH2 0x285 PUSH2 0x9C4 JUMP JUMPDEST PUSH1 0x40 MLOAD PUSH2 0x292 SWAP2 SWAP1 PUSH2 0x20E1 JUMP JUMPDEST PUSH1 0x40 MLOAD DUP1 SWAP2 SUB SWAP1 RETURN JUMPDEST PUSH2 0x2B5 PUSH1 0x4 DUP1 CALLDATASIZE SUB DUP2 ADD SWAP1 PUSH2 0x2B0 SWAP2 SWAP1 PUSH2 0x1B9C JUMP JUMPDEST PUSH2 0x9CB JUMP JUMPDEST STOP JUMPDEST PUSH2 0x2D1 PUSH1 0x4 DUP1 CALLDATASIZE SUB DUP2 ADD SWAP1 PUSH2 0x2CC SWAP2 SWAP1 PUSH2 0x1ABC JUMP JUMPDEST PUSH2 0xCE8 JUMP JUMPDEST STOP JUMPDEST PUSH2 0x2DB PUSH2 0xF92 JUMP JUMPDEST STOP JUMPDEST PUSH2 0x2E5 PUSH2 0x10BA JUMP JUMPDEST PUSH1 0x40 MLOAD PUSH2 0x2F2 SWAP2 SWAP1 PUSH2 0x20E1 JUMP JUMPDEST PUSH1 0x40 MLOAD DUP1 SWAP2 SUB SWAP1 RETURN JUMPDEST PUSH2 0x315 PUSH1 0x4 DUP1 CALLDATASIZE SUB DUP2 ADD SWAP1 PUSH2 0x310 SWAP2 SWAP1 PUSH2 0x1B37 JUMP JUMPDEST PUSH2 0x10DE JUMP JUMPDEST STOP JUMPDEST PUSH2 0x31F PUSH2 0x1107 JUMP JUMPDEST PUSH1 0x40 MLOAD PUSH2 0x32C SWAP2 SWAP1 PUSH2 0x2239 JUMP JUMPDEST PUSH1 0x40 MLOAD DUP1 SWAP2 SUB SWAP1 RETURN JUMPDEST PUSH1 0x0 PUSH32 0x7965DB0B00000000000000000000000000000000000000000000000000000000 PUSH28 0xFFFFFFFFFFFFFFFFFFFFFFFFFFFFFFFFFFFFFFFFFFFFFFFFFFFFFFFF NOT AND DUP3 PUSH28 0xFFFFFFFFFFFFFFFFFFFFFFFFFFFFFFFFFFFFFFFFFFFFFFFFFFFFFFFF NOT AND EQ DUP1 PUSH2 0x3A8 JUMPI POP PUSH2 0x3A7 DUP3 PUSH2 0x110D JUMP JUMPDEST JUMPDEST SWAP1 POP SWAP2 SWAP1 POP JUMP JUMPDEST PUSH1 0x0 DUP1 PUSH1 0x0 DUP4 DUP2 MSTORE PUSH1 0x20 ADD SWAP1 DUP2 MSTORE PUSH1 0x20 ADD PUSH1 0x0 KECCAK256 PUSH1 0x1 ADD SLOAD SWAP1 POP SWAP2 SWAP1 POP JUMP JUMPDEST PUSH32 0x0 DUP2 JUMP JUMPDEST POP JUMP JUMPDEST PUSH2 0x3FE DUP3 PUSH2 0x3AF JUMP JUMPDEST PUSH2 0x40F DUP2 PUSH2 0x40A PUSH2 0x1177 JUMP JUMPDEST PUSH2 0x117F JUMP JUMPDEST PUSH2 0x419 DUP4 DUP4 PUSH2 0x121C JUMP JUMPDEST POP POP POP JUMP JUMPDEST PUSH2 0x426 PUSH2 0x1177 JUMP JUMPDEST PUSH20 0xFFFFFFFFFFFFFFFFFFFFFFFFFFFFFFFFFFFFFFFF AND DUP2 PUSH20 0xFFFFFFFFFFFFFFFFFFFFFFFFFFFFFFFFFFFFFFFF AND EQ PUSH2 0x493 JUMPI PUSH1 0x40 MLOAD PUSH32 0x8C379A000000000000000000000000000000000000000000000000000000000 DUP2 MSTORE PUSH1 0x4 ADD PUSH2 0x48A SWAP1 PUSH2 0x2219 JUMP JUMPDEST PUSH1 0x40 MLOAD DUP1 SWAP2 SUB SWAP1 REVERT JUMPDEST PUSH2 0x49D DUP3 DUP3 PUSH2 0x12FC JUMP JUMPDEST POP POP JUMP JUMPDEST PUSH2 0x4CD PUSH32 0xCA92F347E69378195195346D5612955CD79128253A20C7B925A4B8B70951EC86 PUSH1 0x0 SHL PUSH2 0x3F2 JUMP JUMPDEST PUSH2 0x4F9 PUSH32 0xF79DE88FC968AC0C94F352616D61D09986B9CEDFAE22AE71BB0CD191FFB2719F PUSH1 0x0 SHL PUSH2 0x3F2 JUMP JUMPDEST PUSH2 0x525 PUSH32 0xDF247B2821887ACE4573560C37C035D7227F2405FE6C4A741E17369299191661 PUSH1 0x0 SHL PUSH2 0x3F2 JUMP JUMPDEST PUSH1 0x0 PUSH1 0x1 PUSH1 0x0 CALLER PUSH20 0xFFFFFFFFFFFFFFFFFFFFFFFFFFFFFFFFFFFFFFFF AND PUSH20 0xFFFFFFFFFFFFFFFFFFFFFFFFFFFFFFFFFFFFFFFF AND DUP2 MSTORE PUSH1 0x20 ADD SWAP1 DUP2 MSTORE PUSH1 0x20 ADD PUSH1 0x0 KECCAK256 SWAP1 POP PUSH2 0x594 PUSH32 0x58629CE8371EC829DBA1FF8CF41ED56407C14E43BB78C481E798AF83E8120D62 PUSH1 0x0 SHL PUSH2 0x3F2 JUMP JUMPDEST PUSH2 0x5C0 PUSH32 0x656373FDA4C9AA5ABBCFD8BFB7E31C2340FA3C1345618C1C7201FBA4F61FA9A3 PUSH1 0x0 SHL PUSH2 0x3F2 JUMP JUMPDEST PUSH2 0x5EC PUSH32 0x2809763EE828CBE29CE19FECB908BD083F552C644E8A30E125AEBD640A71261F PUSH1 0x0 SHL PUSH2 0x3F2 JUMP JUMPDEST PUSH2 0x1C20 DUP2 PUSH1 0x1 ADD SLOAD TIMESTAMP PUSH2 0x5FF SWAP2 SWAP1 PUSH2 0x239B JUMP JUMPDEST LT ISZERO PUSH2 0x640 JUMPI PUSH1 0x40 MLOAD PUSH32 0x8C379A000000000000000000000000000000000000000000000000000000000 DUP2 MSTORE PUSH1 0x4 ADD PUSH2 0x637 SWAP1 PUSH2 0x2179 JUMP JUMPDEST PUSH1 0x40 MLOAD DUP1 SWAP2 SUB SWAP1 REVERT JUMPDEST PUSH2 0x66C PUSH32 0x943998B752CA3165F84729A826529CEC8D3CB4A6506042D975D61C6F3F0C97E PUSH1 0x0 SHL PUSH2 0x3F2 JUMP JUMPDEST PUSH2 0x698 PUSH32 0xA518B06C844095125BDF2F4FEA12910937B17A0447890A573D2581820E5C64D1 PUSH1 0x0 SHL PUSH2 0x3F2 JUMP JUMPDEST PUSH2 0x6C4 PUSH32 0xACC1363942DD9F830ECF8A74511DA63C9125336CAEF79F8F07282C0E2B468D4F PUSH1 0x0 SHL PUSH2 0x3F2 JUMP JUMPDEST PUSH2 0x6F0 PUSH32 0x8F5C7D38147DDADDD32DF0F0F1C1C8483EDC28063DF37AE9F9C334526DEC9506 PUSH1 0x0 SHL PUSH2 0x3F2 JUMP JUMPDEST DUP2 DUP2 PUSH1 0x0 ADD SLOAD LT ISZERO PUSH2 0x737 JUMPI PUSH1 0x40 MLOAD PUSH32 0x8C379A000000000000000000000000000000000000000000000000000000000 DUP2 MSTORE PUSH1 0x4 ADD PUSH2 0x72E SWAP1 PUSH2 0x21B9 JUMP JUMPDEST PUSH1 0x40 MLOAD DUP1 SWAP2 SUB SWAP1 REVERT JUMPDEST PUSH2 0x763 PUSH32 0x4A8E35FA0D33EE372891A7F406F573561AD7F8A9137B97DE5A6289F20D106CB PUSH1 0x0 SHL PUSH2 0x3F2 JUMP JUMPDEST PUSH2 0x78F PUSH32 0x513261616E9444AEA748507C08897659BD46B38B90D33BF0533438BF62A76083 PUSH1 0x0 SHL PUSH2 0x3F2 JUMP JUMPDEST PUSH2 0x7BB PUSH32 0xEE7D88E981C658AB8E7C89B8D0439B2905A4242F0C216EB08BABA77372B000DA PUSH1 0x0 SHL PUSH2 0x3F2 JUMP JUMPDEST DUP2 DUP2 PUSH1 0x0 ADD PUSH1 0x0 DUP3 DUP3 SLOAD PUSH2 0x7CF SWAP2 SWAP1 PUSH2 0x239B JUMP JUMPDEST SWAP3 POP POP DUP2 SWAP1 SSTORE POP PUSH2 0x802 PUSH32 0xD570294F3225EEE76B4A97A5BAC7E03FF88285FB396BBB7D45C2104B50996898 PUSH1 0x0 SHL PUSH2 0x3F2 JUMP JUMPDEST PUSH2 0x82E PUSH32 0xA8B5148D74A29220B8AC4713D06A7F213CDF4F6EB6123C9217735891CC8DD288 PUSH1 0x0 SHL PUSH2 0x3F2 JUMP JUMPDEST PUSH2 0x879 CALLER DUP4 PUSH32 0x0 PUSH20 0xFFFFFFFFFFFFFFFFFFFFFFFFFFFFFFFFFFFFFFFF AND PUSH2 0x13DD SWAP1 SWAP3 SWAP2 SWAP1 PUSH4 0xFFFFFFFF AND JUMP JUMPDEST PUSH2 0x8A5 PUSH32 0x13B0F4A9976627897261A8C4A7100F88AD6310BC3025AE457FEEC54F7167F182 PUSH1 0x0 SHL PUSH2 0x3F2 JUMP JUMPDEST PUSH2 0x8D1 PUSH32 0x1D3AEA78A06A3F43C8D7047D4F2B363F6885420856BA3950A6C089EED2651395 PUSH1 0x0 SHL PUSH2 0x3F2 JUMP JUMPDEST PUSH32 0x267A093B38A82A99FD51624AAC25CECD7FB617EC39AF258F03F9680540D6BBA2 CALLER DUP4 TIMESTAMP PUSH1 0x40 MLOAD PUSH2 0x904 SWAP4 SWAP3 SWAP2 SWAP1 PUSH2 0x208F JUMP JUMPDEST PUSH1 0x40 MLOAD DUP1 SWAP2 SUB SWAP1 LOG1 POP POP JUMP JUMPDEST PUSH1 0x3 PUSH1 0x0 SWAP1 SLOAD SWAP1 PUSH2 0x100 EXP SWAP1 DIV PUSH20 0xFFFFFFFFFFFFFFFFFFFFFFFFFFFFFFFFFFFFFFFF AND DUP2 JUMP JUMPDEST PUSH1 0x0 DUP1 PUSH1 0x0 DUP5 DUP2 MSTORE PUSH1 0x20 ADD SWAP1 DUP2 MSTORE PUSH1 0x20 ADD PUSH1 0x0 KECCAK256 PUSH1 0x0 ADD PUSH1 0x0 DUP4 PUSH20 0xFFFFFFFFFFFFFFFFFFFFFFFFFFFFFFFFFFFFFFFF AND PUSH20 0xFFFFFFFFFFFFFFFFFFFFFFFFFFFFFFFFFFFFFFFF AND DUP2 MSTORE PUSH1 0x20 ADD SWAP1 DUP2 MSTORE PUSH1 0x20 ADD PUSH1 0x0 KECCAK256 PUSH1 0x0 SWAP1 SLOAD SWAP1 PUSH2 0x100 EXP SWAP1 DIV PUSH1 0xFF AND SWAP1 POP SWAP3 SWAP2 POP POP JUMP JUMPDEST PUSH1 0x1 PUSH1 0x20 MSTORE DUP1 PUSH1 0x0 MSTORE PUSH1 0x40 PUSH1 0x0 KECCAK256 PUSH1 0x0 SWAP2 POP SWAP1 POP DUP1 PUSH1 0x0 ADD SLOAD SWAP1 DUP1 PUSH1 0x1 ADD SLOAD SWAP1 POP DUP3 JUMP JUMPDEST PUSH1 0x0 DUP1 SHL DUP2 JUMP JUMPDEST PUSH2 0x9F7 PUSH32 0x3170820D83106A65C510A78CE26869801124AB5B0C68813219653FCA87FF0E5E PUSH1 0x0 SHL PUSH2 0x3F2 JUMP JUMPDEST PUSH2 0xA23 PUSH32 0x1BC07521AA0A9FAE0AF5D6D3C9CB20E198DD205600EFE4FF2E0F146FBF4430F6 PUSH1 0x0 SHL PUSH2 0x3F2 JUMP JUMPDEST PUSH2 0xA4F PUSH32 0xA0F29D31B9619673FC98C61D59D537D039A3C6FBC9E0EA549B0A517AC02286CE PUSH1 0x0 SHL PUSH2 0x3F2 JUMP JUMPDEST PUSH2 0xA9C CALLER ADDRESS DUP4 PUSH32 0x0 PUSH20 0xFFFFFFFFFFFFFFFFFFFFFFFFFFFFFFFFFFFFFFFF AND PUSH2 0x1463 SWAP1 SWAP4 SWAP3 SWAP2 SWAP1 PUSH4 0xFFFFFFFF AND JUMP JUMPDEST PUSH2 0xAC8 PUSH32 0x52A97C65C40019FC66806DBFF9D9109F875F74167C8C2BB6D12F1208BC769B4A PUSH1 0x0 SHL PUSH2 0x3F2 JUMP JUMPDEST PUSH2 0xAF4 PUSH32 0x33E31BA5F00BB8591DD3DDBAF501BFB362DCFDB8B0E24B808F94174EA95A9CFF PUSH1 0x0 SHL PUSH2 0x3F2 JUMP JUMPDEST PUSH1 0x0 PUSH2 0x3E8 PUSH1 0x2 DUP4 PUSH2 0xB06 SWAP2 SWAP1 PUSH2 0x2341 JUMP JUMPDEST PUSH2 0xB10 SWAP2 SWAP1 PUSH2 0x2310 JUMP JUMPDEST SWAP1 POP PUSH2 0xB3E PUSH32 0x1E93A58DE61DEFBEEEE1B6AF98F186A26CEF640BD7E754CE7A4873E871B4FC02 PUSH1 0x0 SHL PUSH2 0x3F2 JUMP JUMPDEST PUSH2 0xB6A PUSH32 0x3C9F2684CA927704660FADBD3ADF41AC27F124B24B47B61DB156861D6B85E509 PUSH1 0x0 SHL PUSH2 0x3F2 JUMP JUMPDEST DUP1 PUSH1 0x2 PUSH1 0x0 DUP3 DUP3 SLOAD PUSH2 0xB7C SWAP2 SWAP1 PUSH2 0x22BA JUMP JUMPDEST SWAP3 POP POP DUP2 SWAP1 SSTORE POP PUSH2 0xBAF PUSH32 0x29E725C4F2C9EBB66A94595011E92351F31C8524676851874B8F2A4F1C3386DB PUSH1 0x0 SHL PUSH2 0x3F2 JUMP JUMPDEST PUSH2 0xBDB PUSH32 0x6F9E35DE10F7DFED16BB0463890F0B68179E80EF2CCDF48DF788D4B904F8017D PUSH1 0x0 SHL PUSH2 0x3F2 JUMP JUMPDEST PUSH1 0x40 MLOAD DUP1 PUSH1 0x40 ADD PUSH1 0x40 MSTORE DUP1 DUP3 DUP5 PUSH2 0xBF2 SWAP2 SWAP1 PUSH2 0x239B JUMP JUMPDEST DUP2 MSTORE PUSH1 0x20 ADD TIMESTAMP DUP2 MSTORE POP PUSH1 0x1 PUSH1 0x0 CALLER PUSH20 0xFFFFFFFFFFFFFFFFFFFFFFFFFFFFFFFFFFFFFFFF AND PUSH20 0xFFFFFFFFFFFFFFFFFFFFFFFFFFFFFFFFFFFFFFFF AND DUP2 MSTORE PUSH1 0x20 ADD SWAP1 DUP2 MSTORE PUSH1 0x20 ADD PUSH1 0x0 KECCAK256 PUSH1 0x0 DUP3 ADD MLOAD DUP2 PUSH1 0x0 ADD SSTORE PUSH1 0x20 DUP3 ADD MLOAD DUP2 PUSH1 0x1 ADD SSTORE SWAP1 POP POP PUSH2 0xC7D PUSH32 0xE8CB288CA3672969A5D34770366312E3A747EC55F77FDF81FCEA4ED2E453B872 PUSH1 0x0 SHL PUSH2 0x3F2 JUMP JUMPDEST PUSH2 0xCA9 PUSH32 0xE20600211AFBF7102385CC9947AD4B49A5AB4EB8E75BCC9DA28A5D08D2B3B373 PUSH1 0x0 SHL PUSH2 0x3F2 JUMP JUMPDEST PUSH32 0x9C124B95A803EE32203C8A3B4C3364DA0AADEBA2BD44CF4C2B80C1ECC9BF4082 CALLER DUP4 TIMESTAMP PUSH1 0x40 MLOAD PUSH2 0xCDC SWAP4 SWAP3 SWAP2 SWAP1 PUSH2 0x208F JUMP JUMPDEST PUSH1 0x40 MLOAD DUP1 SWAP2 SUB SWAP1 LOG1 POP POP JUMP JUMPDEST PUSH32 0xE1DCBDB91DF27212A29BC27177C840CF2F819ECF2187432E1FAC86C2DD5DFCA9 PUSH2 0xD1A DUP2 PUSH2 0xD15 PUSH2 0x1177 JUMP JUMPDEST PUSH2 0x117F JUMP JUMPDEST PUSH2 0xD46 PUSH32 0x61050A95486B9444B3096889510E40E478CC0481C1D927EED8FF6E090EC064F6 PUSH1 0x0 SHL PUSH2 0x3F2 JUMP JUMPDEST PUSH2 0xD72 PUSH32 0x5B470AFD4C2F44C808DC75DDF76A53B86E7AEA3ED8FB1B3E1C755235F220455A PUSH1 0x0 SHL PUSH2 0x3F2 JUMP JUMPDEST PUSH2 0xD9E PUSH32 0x73E9BE0A9D0E6020CD333BFB9D6FB1F13B4F9B66FDAEB905974D94800491E2B8 PUSH1 0x0 SHL PUSH2 0x3F2 JUMP JUMPDEST PUSH2 0xDCA PUSH32 0x33251AC694983DB1E12DED9F2BCF7A5241407BD9C0E9DE213B37879E3537AD3D PUSH1 0x0 SHL PUSH2 0x3F2 JUMP JUMPDEST PUSH1 0x0 PUSH20 0xFFFFFFFFFFFFFFFFFFFFFFFFFFFFFFFFFFFFFFFF AND DUP3 PUSH20 0xFFFFFFFFFFFFFFFFFFFFFFFFFFFFFFFFFFFFFFFF AND EQ ISZERO PUSH2 0xE3A JUMPI PUSH1 0x40 MLOAD PUSH32 0x8C379A000000000000000000000000000000000000000000000000000000000 DUP2 MSTORE PUSH1 0x4 ADD PUSH2 0xE31 SWAP1 PUSH2 0x2139 JUMP JUMPDEST PUSH1 0x40 MLOAD DUP1 SWAP2 SUB SWAP1 REVERT JUMPDEST PUSH2 0xE66 PUSH32 0xCD45F0D170C11587DA222A6E6AC0BBDDE573B7DBCD8A735B58E39CED3ACE33E0 PUSH1 0x0 SHL PUSH2 0x3F2 JUMP JUMPDEST PUSH2 0xE92 PUSH32 0x6CE2202A1707DE7AED8BB32DCCFEDE06271D00996CAEA9E468685D1935866041 PUSH1 0x0 SHL PUSH2 0x3F2 JUMP JUMPDEST PUSH2 0xEBE PUSH32 0xCA44D4E38A11005A9D53E95B4A5F3070DFE93E2F13DE2A71C94627AD44E79C3B PUSH1 0x0 SHL PUSH2 0x3F2 JUMP JUMPDEST DUP2 PUSH1 0x3 PUSH1 0x0 PUSH2 0x100 EXP DUP2 SLOAD DUP2 PUSH20 0xFFFFFFFFFFFFFFFFFFFFFFFFFFFFFFFFFFFFFFFF MUL NOT AND SWAP1 DUP4 PUSH20 0xFFFFFFFFFFFFFFFFFFFFFFFFFFFFFFFFFFFFFFFF AND MUL OR SWAP1 SSTORE POP PUSH2 0xF2B PUSH32 0xABC99A08D50549A3D2562C2468DE437B5A2B3041C11890E3629DA96B2966C9A2 PUSH1 0x0 SHL PUSH2 0x3F2 JUMP JUMPDEST PUSH2 0xF57 PUSH32 0x68D8EFA7CB0AFE548C8CBD7270A6489DA10D26729FD6D19968954B051E4FDCD0 PUSH1 0x0 SHL PUSH2 0x3F2 JUMP JUMPDEST PUSH32 0x9073DFAC663173E64AA95665FAEDAE52E2246F9BCDD3890FBFAF6733B46BBA13 DUP3 PUSH1 0x40 MLOAD PUSH2 0xF86 SWAP2 SWAP1 PUSH2 0x2014 JUMP JUMPDEST PUSH1 0x40 MLOAD DUP1 SWAP2 SUB SWAP1 LOG1 POP POP JUMP JUMPDEST PUSH32 0xE1DCBDB91DF27212A29BC27177C840CF2F819ECF2187432E1FAC86C2DD5DFCA9 PUSH2 0xFC4 DUP2 PUSH2 0xFBF PUSH2 0x1177 JUMP JUMPDEST PUSH2 0x117F JUMP JUMPDEST PUSH2 0xFF0 PUSH32 0x9E92A7050759D9C7211D87E87E266D49ABFF4FD7A852E12496ED9A26A13660BA PUSH1 0x0 SHL PUSH2 0x3F2 JUMP JUMPDEST PUSH2 0x101C PUSH32 0xD6760B779CA2B9CB92BA83CC80FEF2110ECBE8128262DD3DAE9DAF4C41A11B4E PUSH1 0x0 SHL PUSH2 0x3F2 JUMP JUMPDEST PUSH2 0x1048 PUSH32 0x3AE9649528F890373FD7F760281CACC5E6567E4D5F585A86C4689D769FEF41C7 PUSH1 0x0 SHL PUSH2 0x3F2 JUMP JUMPDEST PUSH2 0x10B7 PUSH1 0x3 PUSH1 0x0 SWAP1 SLOAD SWAP1 PUSH2 0x100 EXP SWAP1 DIV PUSH20 0xFFFFFFFFFFFFFFFFFFFFFFFFFFFFFFFFFFFFFFFF AND PUSH1 0x2 SLOAD PUSH32 0x0 PUSH20 0xFFFFFFFFFFFFFFFFFFFFFFFFFFFFFFFFFFFFFFFF AND PUSH2 0x13DD SWAP1 SWAP3 SWAP2 SWAP1 PUSH4 0xFFFFFFFF AND JUMP JUMPDEST POP JUMP JUMPDEST PUSH32 0xE1DCBDB91DF27212A29BC27177C840CF2F819ECF2187432E1FAC86C2DD5DFCA9 DUP2 JUMP JUMPDEST PUSH2 0x10E7 DUP3 PUSH2 0x3AF JUMP JUMPDEST PUSH2 0x10F8 DUP2 PUSH2 0x10F3 PUSH2 0x1177 JUMP JUMPDEST PUSH2 0x117F JUMP JUMPDEST PUSH2 0x1102 DUP4 DUP4 PUSH2 0x12FC JUMP JUMPDEST POP POP POP JUMP JUMPDEST PUSH1 0x2 SLOAD DUP2 JUMP JUMPDEST PUSH1 0x0 PUSH32 0x1FFC9A700000000000000000000000000000000000000000000000000000000 PUSH28 0xFFFFFFFFFFFFFFFFFFFFFFFFFFFFFFFFFFFFFFFFFFFFFFFFFFFFFFFF NOT AND DUP3 PUSH28 0xFFFFFFFFFFFFFFFFFFFFFFFFFFFFFFFFFFFFFFFFFFFFFFFFFFFFFFFF NOT AND EQ SWAP1 POP SWAP2 SWAP1 POP JUMP JUMPDEST PUSH1 0x0 CALLER SWAP1 POP SWAP1 JUMP JUMPDEST PUSH2 0x1189 DUP3 DUP3 PUSH2 0x936 JUMP JUMPDEST PUSH2 0x1218 JUMPI PUSH2 0x11AE DUP2 PUSH20 0xFFFFFFFFFFFFFFFFFFFFFFFFFFFFFFFFFFFFFFFF AND PUSH1 0x14 PUSH2 0x14EC JUMP JUMPDEST PUSH2 0x11BC DUP4 PUSH1 0x0 SHR PUSH1 0x20 PUSH2 0x14EC JUMP JUMPDEST PUSH1 0x40 MLOAD PUSH1 0x20 ADD PUSH2 0x11CD SWAP3 SWAP2 SWAP1 PUSH2 0x1FDA JUMP JUMPDEST PUSH1 0x40 MLOAD PUSH1 0x20 DUP2 DUP4 SUB SUB DUP2 MSTORE SWAP1 PUSH1 0x40 MSTORE PUSH1 0x40 MLOAD PUSH32 0x8C379A000000000000000000000000000000000000000000000000000000000 DUP2 MSTORE PUSH1 0x4 ADD PUSH2 0x120F SWAP2 SWAP1 PUSH2 0x2117 JUMP JUMPDEST PUSH1 0x40 MLOAD DUP1 SWAP2 SUB SWAP1 REVERT JUMPDEST POP POP JUMP JUMPDEST PUSH2 0x1226 DUP3 DUP3 PUSH2 0x936 JUMP JUMPDEST PUSH2 0x12F8 JUMPI PUSH1 0x1 PUSH1 0x0 DUP1 DUP5 DUP2 MSTORE PUSH1 0x20 ADD SWAP1 DUP2 MSTORE PUSH1 0x20 ADD PUSH1 0x0 KECCAK256 PUSH1 0x0 ADD PUSH1 0x0 DUP4 PUSH20 0xFFFFFFFFFFFFFFFFFFFFFFFFFFFFFFFFFFFFFFFF AND PUSH20 0xFFFFFFFFFFFFFFFFFFFFFFFFFFFFFFFFFFFFFFFF AND DUP2 MSTORE PUSH1 0x20 ADD SWAP1 DUP2 MSTORE PUSH1 0x20 ADD PUSH1 0x0 KECCAK256 PUSH1 0x0 PUSH2 0x100 EXP DUP2 SLOAD DUP2 PUSH1 0xFF MUL NOT AND SWAP1 DUP4 ISZERO ISZERO MUL OR SWAP1 SSTORE POP PUSH2 0x129D PUSH2 0x1177 JUMP JUMPDEST PUSH20 0xFFFFFFFFFFFFFFFFFFFFFFFFFFFFFFFFFFFFFFFF AND DUP2 PUSH20 0xFFFFFFFFFFFFFFFFFFFFFFFFFFFFFFFFFFFFFFFF AND DUP4 PUSH32 0x2F8788117E7EFF1D82E926EC794901D17C78024A50270940304540A733656F0D PUSH1 0x40 MLOAD PUSH1 0x40 MLOAD DUP1 SWAP2 SUB SWAP1 LOG4 JUMPDEST POP POP JUMP JUMPDEST PUSH2 0x1306 DUP3 DUP3 PUSH2 0x936 JUMP JUMPDEST ISZERO PUSH2 0x13D9 JUMPI PUSH1 0x0 DUP1 PUSH1 0x0 DUP5 DUP2 MSTORE PUSH1 0x20 ADD SWAP1 DUP2 MSTORE PUSH1 0x20 ADD PUSH1 0x0 KECCAK256 PUSH1 0x0 ADD PUSH1 0x0 DUP4 PUSH20 0xFFFFFFFFFFFFFFFFFFFFFFFFFFFFFFFFFFFFFFFF AND PUSH20 0xFFFFFFFFFFFFFFFFFFFFFFFFFFFFFFFFFFFFFFFF AND DUP2 MSTORE PUSH1 0x20 ADD SWAP1 DUP2 MSTORE PUSH1 0x20 ADD PUSH1 0x0 KECCAK256 PUSH1 0x0 PUSH2 0x100 EXP DUP2 SLOAD DUP2 PUSH1 0xFF MUL NOT AND SWAP1 DUP4 ISZERO ISZERO MUL OR SWAP1 SSTORE POP PUSH2 0x137E PUSH2 0x1177 JUMP JUMPDEST PUSH20 0xFFFFFFFFFFFFFFFFFFFFFFFFFFFFFFFFFFFFFFFF AND DUP2 PUSH20 0xFFFFFFFFFFFFFFFFFFFFFFFFFFFFFFFFFFFFFFFF AND DUP4 PUSH32 0xF6391F5C32D9C69D2A47EA670B442974B53935D1EDC7FD64EB21E047A839171B PUSH1 0x40 MLOAD PUSH1 0x40 MLOAD DUP1 SWAP2 SUB SWAP1 LOG4 JUMPDEST POP POP JUMP JUMPDEST PUSH2 0x145E DUP4 PUSH4 0xA9059CBB PUSH1 0xE0 SHL DUP5 DUP5 PUSH1 0x40 MLOAD PUSH1 0x24 ADD PUSH2 0x13FC SWAP3 SWAP2 SWAP1 PUSH2 0x2066 JUMP JUMPDEST PUSH1 0x40 MLOAD PUSH1 0x20 DUP2 DUP4 SUB SUB DUP2 MSTORE SWAP1 PUSH1 0x40 MSTORE SWAP1 PUSH28 0xFFFFFFFFFFFFFFFFFFFFFFFFFFFFFFFFFFFFFFFFFFFFFFFFFFFFFFFF NOT AND PUSH1 0x20 DUP3 ADD DUP1 MLOAD PUSH28 0xFFFFFFFFFFFFFFFFFFFFFFFFFFFFFFFFFFFFFFFFFFFFFFFFFFFFFFFF DUP4 DUP2 DUP4 AND OR DUP4 MSTORE POP POP POP POP PUSH2 0x17E6 JUMP JUMPDEST POP POP POP JUMP JUMPDEST PUSH2 0x14E6 DUP5 PUSH4 0x23B872DD PUSH1 0xE0 SHL DUP6 DUP6 DUP6 PUSH1 0x40 MLOAD PUSH1 0x24 ADD PUSH2 0x1484 SWAP4 SWAP3 SWAP2 SWAP1 PUSH2 0x202F JUMP JUMPDEST PUSH1 0x40 MLOAD PUSH1 0x20 DUP2 DUP4 SUB SUB DUP2 MSTORE SWAP1 PUSH1 0x40 MSTORE SWAP1 PUSH28 0xFFFFFFFFFFFFFFFFFFFFFFFFFFFFFFFFFFFFFFFFFFFFFFFFFFFFFFFF NOT AND PUSH1 0x20 DUP3 ADD DUP1 MLOAD PUSH28 0xFFFFFFFFFFFFFFFFFFFFFFFFFFFFFFFFFFFFFFFFFFFFFFFFFFFFFFFF DUP4 DUP2 DUP4 AND OR DUP4 MSTORE POP POP POP POP PUSH2 0x17E6 JUMP JUMPDEST POP POP POP POP JUMP JUMPDEST PUSH1 0x60 PUSH1 0x0 PUSH1 0x2 DUP4 PUSH1 0x2 PUSH2 0x14FF SWAP2 SWAP1 PUSH2 0x2341 JUMP JUMPDEST PUSH2 0x1509 SWAP2 SWAP1 PUSH2 0x22BA JUMP JUMPDEST PUSH8 0xFFFFFFFFFFFFFFFF DUP2 GT ISZERO PUSH2 0x1548 JUMPI PUSH32 0x4E487B7100000000000000000000000000000000000000000000000000000000 PUSH1 0x0 MSTORE PUSH1 0x41 PUSH1 0x4 MSTORE PUSH1 0x24 PUSH1 0x0 REVERT JUMPDEST PUSH1 0x40 MLOAD SWAP1 DUP1 DUP3 MSTORE DUP1 PUSH1 0x1F ADD PUSH1 0x1F NOT AND PUSH1 0x20 ADD DUP3 ADD PUSH1 0x40 MSTORE DUP1 ISZERO PUSH2 0x157A JUMPI DUP2 PUSH1 0x20 ADD PUSH1 0x1 DUP3 MUL DUP1 CALLDATASIZE DUP4 CALLDATACOPY DUP1 DUP3 ADD SWAP2 POP POP SWAP1 POP JUMPDEST POP SWAP1 POP PUSH32 0x3000000000000000000000000000000000000000000000000000000000000000 DUP2 PUSH1 0x0 DUP2 MLOAD DUP2 LT PUSH2 0x15D8 JUMPI PUSH32 0x4E487B7100000000000000000000000000000000000000000000000000000000 PUSH1 0x0 MSTORE PUSH1 0x32 PUSH1 0x4 MSTORE PUSH1 0x24 PUSH1 0x0 REVERT JUMPDEST PUSH1 0x20 ADD ADD SWAP1 PUSH31 0xFFFFFFFFFFFFFFFFFFFFFFFFFFFFFFFFFFFFFFFFFFFFFFFFFFFFFFFFFFFFFF NOT AND SWAP1 DUP2 PUSH1 0x0 BYTE SWAP1 MSTORE8 POP PUSH32 0x7800000000000000000000000000000000000000000000000000000000000000 DUP2 PUSH1 0x1 DUP2 MLOAD DUP2 LT PUSH2 0x1662 JUMPI PUSH32 0x4E487B7100000000000000000000000000000000000000000000000000000000 PUSH1 0x0 MSTORE PUSH1 0x32 PUSH1 0x4 MSTORE PUSH1 0x24 PUSH1 0x0 REVERT JUMPDEST PUSH1 0x20 ADD ADD SWAP1 PUSH31 0xFFFFFFFFFFFFFFFFFFFFFFFFFFFFFFFFFFFFFFFFFFFFFFFFFFFFFFFFFFFFFF NOT AND SWAP1 DUP2 PUSH1 0x0 BYTE SWAP1 MSTORE8 POP PUSH1 0x0 PUSH1 0x1 DUP5 PUSH1 0x2 PUSH2 0x16A2 SWAP2 SWAP1 PUSH2 0x2341 JUMP JUMPDEST PUSH2 0x16AC SWAP2 SWAP1 PUSH2 0x22BA JUMP JUMPDEST SWAP1 POP JUMPDEST PUSH1 0x1 DUP2 GT ISZERO PUSH2 0x1798 JUMPI PUSH32 0x3031323334353637383961626364656600000000000000000000000000000000 PUSH1 0xF DUP7 AND PUSH1 0x10 DUP2 LT PUSH2 0x1714 JUMPI PUSH32 0x4E487B7100000000000000000000000000000000000000000000000000000000 PUSH1 0x0 MSTORE PUSH1 0x32 PUSH1 0x4 MSTORE PUSH1 0x24 PUSH1 0x0 REVERT JUMPDEST BYTE PUSH1 0xF8 SHL DUP3 DUP3 DUP2 MLOAD DUP2 LT PUSH2 0x1751 JUMPI PUSH32 0x4E487B7100000000000000000000000000000000000000000000000000000000 PUSH1 0x0 MSTORE PUSH1 0x32 PUSH1 0x4 MSTORE PUSH1 0x24 PUSH1 0x0 REVERT JUMPDEST PUSH1 0x20 ADD ADD SWAP1 PUSH31 0xFFFFFFFFFFFFFFFFFFFFFFFFFFFFFFFFFFFFFFFFFFFFFFFFFFFFFFFFFFFFFF NOT AND SWAP1 DUP2 PUSH1 0x0 BYTE SWAP1 MSTORE8 POP PUSH1 0x4 DUP6 SWAP1 SHR SWAP5 POP DUP1 PUSH2 0x1791 SWAP1 PUSH2 0x24A4 JUMP JUMPDEST SWAP1 POP PUSH2 0x16AF JUMP JUMPDEST POP PUSH1 0x0 DUP5 EQ PUSH2 0x17DC JUMPI PUSH1 0x40 MLOAD PUSH32 0x8C379A000000000000000000000000000000000000000000000000000000000 DUP2 MSTORE PUSH1 0x4 ADD PUSH2 0x17D3 SWAP1 PUSH2 0x2159 JUMP JUMPDEST PUSH1 0x40 MLOAD DUP1 SWAP2 SUB SWAP1 REVERT JUMPDEST DUP1 SWAP2 POP POP SWAP3 SWAP2 POP POP JUMP JUMPDEST PUSH1 0x0 PUSH2 0x1848 DUP3 PUSH1 0x40 MLOAD DUP1 PUSH1 0x40 ADD PUSH1 0x40 MSTORE DUP1 PUSH1 0x20 DUP2 MSTORE PUSH1 0x20 ADD PUSH32 0x5361666545524332303A206C6F772D6C6576656C2063616C6C206661696C6564 DUP2 MSTORE POP DUP6 PUSH20 0xFFFFFFFFFFFFFFFFFFFFFFFFFFFFFFFFFFFFFFFF AND PUSH2 0x18AD SWAP1 SWAP3 SWAP2 SWAP1 PUSH4 0xFFFFFFFF AND JUMP JUMPDEST SWAP1 POP PUSH1 0x0 DUP2 MLOAD GT ISZERO PUSH2 0x18A8 JUMPI DUP1 DUP1 PUSH1 0x20 ADD SWAP1 MLOAD DUP2 ADD SWAP1 PUSH2 0x1868 SWAP2 SWAP1 PUSH2 0x1AE5 JUMP JUMPDEST PUSH2 0x18A7 JUMPI PUSH1 0x40 MLOAD PUSH32 0x8C379A000000000000000000000000000000000000000000000000000000000 DUP2 MSTORE PUSH1 0x4 ADD PUSH2 0x189E SWAP1 PUSH2 0x21F9 JUMP JUMPDEST PUSH1 0x40 MLOAD DUP1 SWAP2 SUB SWAP1 REVERT JUMPDEST JUMPDEST POP POP POP JUMP JUMPDEST PUSH1 0x60 PUSH2 0x18BC DUP5 DUP5 PUSH1 0x0 DUP6 PUSH2 0x18C5 JUMP JUMPDEST SWAP1 POP SWAP4 SWAP3 POP POP POP JUMP JUMPDEST PUSH1 0x60 DUP3 SELFBALANCE LT ISZERO PUSH2 0x190A JUMPI PUSH1 0x40 MLOAD PUSH32 0x8C379A000000000000000000000000000000000000000000000000000000000 DUP2 MSTORE PUSH1 0x4 ADD PUSH2 0x1901 SWAP1 PUSH2 0x2199 JUMP JUMPDEST PUSH1 0x40 MLOAD DUP1 SWAP2 SUB SWAP1 REVERT JUMPDEST PUSH2 0x1913 DUP6 PUSH2 0x19D9 JUMP JUMPDEST PUSH2 0x1952 JUMPI PUSH1 0x40 MLOAD PUSH32 0x8C379A000000000000000000000000000000000000000000000000000000000 DUP2 MSTORE PUSH1 0x4 ADD PUSH2 0x1949 SWAP1 PUSH2 0x21D9 JUMP JUMPDEST PUSH1 0x40 MLOAD DUP1 SWAP2 SUB SWAP1 REVERT JUMPDEST PUSH1 0x0 DUP1 DUP7 PUSH20 0xFFFFFFFFFFFFFFFFFFFFFFFFFFFFFFFFFFFFFFFF AND DUP6 DUP8 PUSH1 0x40 MLOAD PUSH2 0x197B SWAP2 SWAP1 PUSH2 0x1FC3 JUMP JUMPDEST PUSH1 0x0 PUSH1 0x40 MLOAD DUP1 DUP4 SUB DUP2 DUP6 DUP8 GAS CALL SWAP3 POP POP POP RETURNDATASIZE DUP1 PUSH1 0x0 DUP2 EQ PUSH2 0x19B8 JUMPI PUSH1 0x40 MLOAD SWAP2 POP PUSH1 0x1F NOT PUSH1 0x3F RETURNDATASIZE ADD AND DUP3 ADD PUSH1 0x40 MSTORE RETURNDATASIZE DUP3 MSTORE RETURNDATASIZE PUSH1 0x0 PUSH1 0x20 DUP5 ADD RETURNDATACOPY PUSH2 0x19BD JUMP JUMPDEST PUSH1 0x60 SWAP2 POP JUMPDEST POP SWAP2 POP SWAP2 POP PUSH2 0x19CD DUP3 DUP3 DUP7 PUSH2 0x19EC JUMP JUMPDEST SWAP3 POP POP POP SWAP5 SWAP4 POP POP POP POP JUMP JUMPDEST PUSH1 0x0 DUP1 DUP3 EXTCODESIZE SWAP1 POP PUSH1 0x0 DUP2 GT SWAP2 POP POP SWAP2 SWAP1 POP JUMP JUMPDEST PUSH1 0x60 DUP4 ISZERO PUSH2 0x19FC JUMPI DUP3 SWAP1 POP PUSH2 0x1A4C JUMP JUMPDEST PUSH1 0x0 DUP4 MLOAD GT ISZERO PUSH2 0x1A0F JUMPI DUP3 MLOAD DUP1 DUP5 PUSH1 0x20 ADD REVERT JUMPDEST DUP2 PUSH1 0x40 MLOAD PUSH32 0x8C379A000000000000000000000000000000000000000000000000000000000 DUP2 MSTORE PUSH1 0x4 ADD PUSH2 0x1A43 SWAP2 SWAP1 PUSH2 0x2117 JUMP JUMPDEST PUSH1 0x40 MLOAD DUP1 SWAP2 SUB SWAP1 REVERT JUMPDEST SWAP4 SWAP3 POP POP POP JUMP JUMPDEST PUSH1 0x0 DUP2 CALLDATALOAD SWAP1 POP PUSH2 0x1A62 DUP2 PUSH2 0x253D JUMP JUMPDEST SWAP3 SWAP2 POP POP JUMP JUMPDEST PUSH1 0x0 DUP2 MLOAD SWAP1 POP PUSH2 0x1A77 DUP2 PUSH2 0x2554 JUMP JUMPDEST SWAP3 SWAP2 POP POP JUMP JUMPDEST PUSH1 0x0 DUP2 CALLDATALOAD SWAP1 POP PUSH2 0x1A8C DUP2 PUSH2 0x256B JUMP JUMPDEST SWAP3 SWAP2 POP POP JUMP JUMPDEST PUSH1 0x0 DUP2 CALLDATALOAD SWAP1 POP PUSH2 0x1AA1 DUP2 PUSH2 0x2582 JUMP JUMPDEST SWAP3 SWAP2 POP POP JUMP JUMPDEST PUSH1 0x0 DUP2 CALLDATALOAD SWAP1 POP PUSH2 0x1AB6 DUP2 PUSH2 0x2599 JUMP JUMPDEST SWAP3 SWAP2 POP POP JUMP JUMPDEST PUSH1 0x0 PUSH1 0x20 DUP3 DUP5 SUB SLT ISZERO PUSH2 0x1ACE JUMPI PUSH1 0x0 DUP1 REVERT JUMPDEST PUSH1 0x0 PUSH2 0x1ADC DUP5 DUP3 DUP6 ADD PUSH2 0x1A53 JUMP JUMPDEST SWAP2 POP POP SWAP3 SWAP2 POP POP JUMP JUMPDEST PUSH1 0x0 PUSH1 0x20 DUP3 DUP5 SUB SLT ISZERO PUSH2 0x1AF7 JUMPI PUSH1 0x0 DUP1 REVERT JUMPDEST PUSH1 0x0 PUSH2 0x1B05 DUP5 DUP3 DUP6 ADD PUSH2 0x1A68 JUMP JUMPDEST SWAP2 POP POP SWAP3 SWAP2 POP POP JUMP JUMPDEST PUSH1 0x0 PUSH1 0x20 DUP3 DUP5 SUB SLT ISZERO PUSH2 0x1B20 JUMPI PUSH1 0x0 DUP1 REVERT JUMPDEST PUSH1 0x0 PUSH2 0x1B2E DUP5 DUP3 DUP6 ADD PUSH2 0x1A7D JUMP JUMPDEST SWAP2 POP POP SWAP3 SWAP2 POP POP JUMP JUMPDEST PUSH1 0x0 DUP1 PUSH1 0x40 DUP4 DUP6 SUB SLT ISZERO PUSH2 0x1B4A JUMPI PUSH1 0x0 DUP1 REVERT JUMPDEST PUSH1 0x0 PUSH2 0x1B58 DUP6 DUP3 DUP7 ADD PUSH2 0x1A7D JUMP JUMPDEST SWAP3 POP POP PUSH1 0x20 PUSH2 0x1B69 DUP6 DUP3 DUP7 ADD PUSH2 0x1A53 JUMP JUMPDEST SWAP2 POP POP SWAP3 POP SWAP3 SWAP1 POP JUMP JUMPDEST PUSH1 0x0 PUSH1 0x20 DUP3 DUP5 SUB SLT ISZERO PUSH2 0x1B85 JUMPI PUSH1 0x0 DUP1 REVERT JUMPDEST PUSH1 0x0 PUSH2 0x1B93 DUP5 DUP3 DUP6 ADD PUSH2 0x1A92 JUMP JUMPDEST SWAP2 POP POP SWAP3 SWAP2 POP POP JUMP JUMPDEST PUSH1 0x0 PUSH1 0x20 DUP3 DUP5 SUB SLT ISZERO PUSH2 0x1BAE JUMPI PUSH1 0x0 DUP1 REVERT JUMPDEST PUSH1 0x0 PUSH2 0x1BBC DUP5 DUP3 DUP6 ADD PUSH2 0x1AA7 JUMP JUMPDEST SWAP2 POP POP SWAP3 SWAP2 POP POP JUMP JUMPDEST PUSH2 0x1BCE DUP2 PUSH2 0x23CF JUMP JUMPDEST DUP3 MSTORE POP POP JUMP JUMPDEST PUSH2 0x1BDD DUP2 PUSH2 0x23E1 JUMP JUMPDEST DUP3 MSTORE POP POP JUMP JUMPDEST PUSH2 0x1BEC DUP2 PUSH2 0x23ED JUMP JUMPDEST DUP3 MSTORE POP POP JUMP JUMPDEST PUSH1 0x0 PUSH2 0x1BFD DUP3 PUSH2 0x227D JUMP JUMPDEST PUSH2 0x1C07 DUP2 DUP6 PUSH2 0x2293 JUMP JUMPDEST SWAP4 POP PUSH2 0x1C17 DUP2 DUP6 PUSH1 0x20 DUP7 ADD PUSH2 0x2471 JUMP JUMPDEST DUP1 DUP5 ADD SWAP2 POP POP SWAP3 SWAP2 POP POP JUMP JUMPDEST PUSH2 0x1C2C DUP2 PUSH2 0x244D JUMP JUMPDEST DUP3 MSTORE POP POP JUMP JUMPDEST PUSH1 0x0 PUSH2 0x1C3D DUP3 PUSH2 0x2288 JUMP JUMPDEST PUSH2 0x1C47 DUP2 DUP6 PUSH2 0x229E JUMP JUMPDEST SWAP4 POP PUSH2 0x1C57 DUP2 DUP6 PUSH1 0x20 DUP7 ADD PUSH2 0x2471 JUMP JUMPDEST PUSH2 0x1C60 DUP2 PUSH2 0x252C JUMP JUMPDEST DUP5 ADD SWAP2 POP POP SWAP3 SWAP2 POP POP JUMP JUMPDEST PUSH1 0x0 PUSH2 0x1C76 DUP3 PUSH2 0x2288 JUMP JUMPDEST PUSH2 0x1C80 DUP2 DUP6 PUSH2 0x22AF JUMP JUMPDEST SWAP4 POP PUSH2 0x1C90 DUP2 DUP6 PUSH1 0x20 DUP7 ADD PUSH2 0x2471 JUMP JUMPDEST DUP1 DUP5 ADD SWAP2 POP POP SWAP3 SWAP2 POP POP JUMP JUMPDEST PUSH1 0x0 PUSH2 0x1CA9 PUSH1 0x19 DUP4 PUSH2 0x229E JUMP JUMPDEST SWAP2 POP PUSH32 0x4E6F6E207A65726F206164647265737320726571756972656400000000000000 PUSH1 0x0 DUP4 ADD MSTORE PUSH1 0x20 DUP3 ADD SWAP1 POP SWAP2 SWAP1 POP JUMP JUMPDEST PUSH1 0x0 PUSH2 0x1CE9 PUSH1 0x20 DUP4 PUSH2 0x229E JUMP JUMPDEST SWAP2 POP PUSH32 0x537472696E67733A20686578206C656E67746820696E73756666696369656E74 PUSH1 0x0 DUP4 ADD MSTORE PUSH1 0x20 DUP3 ADD SWAP1 POP SWAP2 SWAP1 POP JUMP JUMPDEST PUSH1 0x0 PUSH2 0x1D29 PUSH1 0x18 DUP4 PUSH2 0x229E JUMP JUMPDEST SWAP2 POP PUSH32 0x5761697420756E74696C20756E6C6F636B20706572696F640000000000000000 PUSH1 0x0 DUP4 ADD MSTORE PUSH1 0x20 DUP3 ADD SWAP1 POP SWAP2 SWAP1 POP JUMP JUMPDEST PUSH1 0x0 PUSH2 0x1D69 PUSH1 0x26 DUP4 PUSH2 0x229E JUMP JUMPDEST SWAP2 POP PUSH32 0x416464726573733A20696E73756666696369656E742062616C616E636520666F PUSH1 0x0 DUP4 ADD MSTORE PUSH32 0x722063616C6C0000000000000000000000000000000000000000000000000000 PUSH1 0x20 DUP4 ADD MSTORE PUSH1 0x40 DUP3 ADD SWAP1 POP SWAP2 SWAP1 POP JUMP JUMPDEST PUSH1 0x0 PUSH2 0x1DCF PUSH1 0x2E DUP4 PUSH2 0x229E JUMP JUMPDEST SWAP2 POP PUSH32 0x43616E6E6F7420756E7374616B65206D6F7265207468616E2074686520646570 PUSH1 0x0 DUP4 ADD MSTORE PUSH32 0x6F736974656420616D6F756E742E000000000000000000000000000000000000 PUSH1 0x20 DUP4 ADD MSTORE PUSH1 0x40 DUP3 ADD SWAP1 POP SWAP2 SWAP1 POP JUMP JUMPDEST PUSH1 0x0 PUSH2 0x1E35 PUSH1 0x1D DUP4 PUSH2 0x229E JUMP JUMPDEST SWAP2 POP PUSH32 0x416464726573733A2063616C6C20746F206E6F6E2D636F6E7472616374000000 PUSH1 0x0 DUP4 ADD MSTORE PUSH1 0x20 DUP3 ADD SWAP1 POP SWAP2 SWAP1 POP JUMP JUMPDEST PUSH1 0x0 PUSH2 0x1E75 PUSH1 0x17 DUP4 PUSH2 0x22AF JUMP JUMPDEST SWAP2 POP PUSH32 0x416363657373436F6E74726F6C3A206163636F756E7420000000000000000000 PUSH1 0x0 DUP4 ADD MSTORE PUSH1 0x17 DUP3 ADD SWAP1 POP SWAP2 SWAP1 POP JUMP JUMPDEST PUSH1 0x0 PUSH2 0x1EB5 PUSH1 0x2A DUP4 PUSH2 0x229E JUMP JUMPDEST SWAP2 POP PUSH32 0x5361666545524332303A204552433230206F7065726174696F6E20646964206E PUSH1 0x0 DUP4 ADD MSTORE PUSH32 0x6F74207375636365656400000000000000000000000000000000000000000000 PUSH1 0x20 DUP4 ADD MSTORE PUSH1 0x40 DUP3 ADD SWAP1 POP SWAP2 SWAP1 POP JUMP JUMPDEST PUSH1 0x0 PUSH2 0x1F1B PUSH1 0x11 DUP4 PUSH2 0x22AF JUMP JUMPDEST SWAP2 POP PUSH32 0x206973206D697373696E6720726F6C6520000000000000000000000000000000 PUSH1 0x0 DUP4 ADD MSTORE PUSH1 0x11 DUP3 ADD SWAP1 POP SWAP2 SWAP1 POP JUMP JUMPDEST PUSH1 0x0 PUSH2 0x1F5B PUSH1 0x2F DUP4 PUSH2 0x229E JUMP JUMPDEST SWAP2 POP PUSH32 0x416363657373436F6E74726F6C3A2063616E206F6E6C792072656E6F756E6365 PUSH1 0x0 DUP4 ADD MSTORE PUSH32 0x20726F6C657320666F722073656C660000000000000000000000000000000000 PUSH1 0x20 DUP4 ADD MSTORE PUSH1 0x40 DUP3 ADD SWAP1 POP SWAP2 SWAP1 POP JUMP JUMPDEST PUSH2 0x1FBD DUP2 PUSH2 0x2443 JUMP JUMPDEST DUP3 MSTORE POP POP JUMP JUMPDEST PUSH1 0x0 PUSH2 0x1FCF DUP3 DUP5 PUSH2 0x1BF2 JUMP JUMPDEST SWAP2 POP DUP2 SWAP1 POP SWAP3 SWAP2 POP POP JUMP JUMPDEST PUSH1 0x0 PUSH2 0x1FE5 DUP3 PUSH2 0x1E68 JUMP JUMPDEST SWAP2 POP PUSH2 0x1FF1 DUP3 DUP6 PUSH2 0x1C6B JUMP JUMPDEST SWAP2 POP PUSH2 0x1FFC DUP3 PUSH2 0x1F0E JUMP JUMPDEST SWAP2 POP PUSH2 0x2008 DUP3 DUP5 PUSH2 0x1C6B JUMP JUMPDEST SWAP2 POP DUP2 SWAP1 POP SWAP4 SWAP3 POP POP POP JUMP JUMPDEST PUSH1 0x0 PUSH1 0x20 DUP3 ADD SWAP1 POP PUSH2 0x2029 PUSH1 0x0 DUP4 ADD DUP5 PUSH2 0x1BC5 JUMP JUMPDEST SWAP3 SWAP2 POP POP JUMP JUMPDEST PUSH1 0x0 PUSH1 0x60 DUP3 ADD SWAP1 POP PUSH2 0x2044 PUSH1 0x0 DUP4 ADD DUP7 PUSH2 0x1BC5 JUMP JUMPDEST PUSH2 0x2051 PUSH1 0x20 DUP4 ADD DUP6 PUSH2 0x1BC5 JUMP JUMPDEST PUSH2 0x205E PUSH1 0x40 DUP4 ADD DUP5 PUSH2 0x1FB4 JUMP JUMPDEST SWAP5 SWAP4 POP POP POP POP JUMP JUMPDEST PUSH1 0x0 PUSH1 0x40 DUP3 ADD SWAP1 POP PUSH2 0x207B PUSH1 0x0 DUP4 ADD DUP6 PUSH2 0x1BC5 JUMP JUMPDEST PUSH2 0x2088 PUSH1 0x20 DUP4 ADD DUP5 PUSH2 0x1FB4 JUMP JUMPDEST SWAP4 SWAP3 POP POP POP JUMP JUMPDEST PUSH1 0x0 PUSH1 0x60 DUP3 ADD SWAP1 POP PUSH2 0x20A4 PUSH1 0x0 DUP4 ADD DUP7 PUSH2 0x1BC5 JUMP JUMPDEST PUSH2 0x20B1 PUSH1 0x20 DUP4 ADD DUP6 PUSH2 0x1FB4 JUMP JUMPDEST PUSH2 0x20BE PUSH1 0x40 DUP4 ADD DUP5 PUSH2 0x1FB4 JUMP JUMPDEST SWAP5 SWAP4 POP POP POP POP JUMP JUMPDEST PUSH1 0x0 PUSH1 0x20 DUP3 ADD SWAP1 POP PUSH2 0x20DB PUSH1 0x0 DUP4 ADD DUP5 PUSH2 0x1BD4 JUMP JUMPDEST SWAP3 SWAP2 POP POP JUMP JUMPDEST PUSH1 0x0 PUSH1 0x20 DUP3 ADD SWAP1 POP PUSH2 0x20F6 PUSH1 0x0 DUP4 ADD DUP5 PUSH2 0x1BE3 JUMP JUMPDEST SWAP3 SWAP2 POP POP JUMP JUMPDEST PUSH1 0x0 PUSH1 0x20 DUP3 ADD SWAP1 POP PUSH2 0x2111 PUSH1 0x0 DUP4 ADD DUP5 PUSH2 0x1C23 JUMP JUMPDEST SWAP3 SWAP2 POP POP JUMP JUMPDEST PUSH1 0x0 PUSH1 0x20 DUP3 ADD SWAP1 POP DUP2 DUP2 SUB PUSH1 0x0 DUP4 ADD MSTORE PUSH2 0x2131 DUP2 DUP5 PUSH2 0x1C32 JUMP JUMPDEST SWAP1 POP SWAP3 SWAP2 POP POP JUMP JUMPDEST PUSH1 0x0 PUSH1 0x20 DUP3 ADD SWAP1 POP DUP2 DUP2 SUB PUSH1 0x0 DUP4 ADD MSTORE PUSH2 0x2152 DUP2 PUSH2 0x1C9C JUMP JUMPDEST SWAP1 POP SWAP2 SWAP1 POP JUMP JUMPDEST PUSH1 0x0 PUSH1 0x20 DUP3 ADD SWAP1 POP DUP2 DUP2 SUB PUSH1 0x0 DUP4 ADD MSTORE PUSH2 0x2172 DUP2 PUSH2 0x1CDC JUMP JUMPDEST SWAP1 POP SWAP2 SWAP1 POP JUMP JUMPDEST PUSH1 0x0 PUSH1 0x20 DUP3 ADD SWAP1 POP DUP2 DUP2 SUB PUSH1 0x0 DUP4 ADD MSTORE PUSH2 0x2192 DUP2 PUSH2 0x1D1C JUMP JUMPDEST SWAP1 POP SWAP2 SWAP1 POP JUMP JUMPDEST PUSH1 0x0 PUSH1 0x20 DUP3 ADD SWAP1 POP DUP2 DUP2 SUB PUSH1 0x0 DUP4 ADD MSTORE PUSH2 0x21B2 DUP2 PUSH2 0x1D5C JUMP JUMPDEST SWAP1 POP SWAP2 SWAP1 POP JUMP JUMPDEST PUSH1 0x0 PUSH1 0x20 DUP3 ADD SWAP1 POP DUP2 DUP2 SUB PUSH1 0x0 DUP4 ADD MSTORE PUSH2 0x21D2 DUP2 PUSH2 0x1DC2 JUMP JUMPDEST SWAP1 POP SWAP2 SWAP1 POP JUMP JUMPDEST PUSH1 0x0 PUSH1 0x20 DUP3 ADD SWAP1 POP DUP2 DUP2 SUB PUSH1 0x0 DUP4 ADD MSTORE PUSH2 0x21F2 DUP2 PUSH2 0x1E28 JUMP JUMPDEST SWAP1 POP SWAP2 SWAP1 POP JUMP JUMPDEST PUSH1 0x0 PUSH1 0x20 DUP3 ADD SWAP1 POP DUP2 DUP2 SUB PUSH1 0x0 DUP4 ADD MSTORE PUSH2 0x2212 DUP2 PUSH2 0x1EA8 JUMP JUMPDEST SWAP1 POP SWAP2 SWAP1 POP JUMP JUMPDEST PUSH1 0x0 PUSH1 0x20 DUP3 ADD SWAP1 POP DUP2 DUP2 SUB PUSH1 0x0 DUP4 ADD MSTORE PUSH2 0x2232 DUP2 PUSH2 0x1F4E JUMP JUMPDEST SWAP1 POP SWAP2 SWAP1 POP JUMP JUMPDEST PUSH1 0x0 PUSH1 0x20 DUP3 ADD SWAP1 POP PUSH2 0x224E PUSH1 0x0 DUP4 ADD DUP5 PUSH2 0x1FB4 JUMP JUMPDEST SWAP3 SWAP2 POP POP JUMP JUMPDEST PUSH1 0x0 PUSH1 0x40 DUP3 ADD SWAP1 POP PUSH2 0x2269 PUSH1 0x0 DUP4 ADD DUP6 PUSH2 0x1FB4 JUMP JUMPDEST PUSH2 0x2276 PUSH1 0x20 DUP4 ADD DUP5 PUSH2 0x1FB4 JUMP JUMPDEST SWAP4 SWAP3 POP POP POP JUMP JUMPDEST PUSH1 0x0 DUP2 MLOAD SWAP1 POP SWAP2 SWAP1 POP JUMP JUMPDEST PUSH1 0x0 DUP2 MLOAD SWAP1 POP SWAP2 SWAP1 POP JUMP JUMPDEST PUSH1 0x0 DUP2 SWAP1 POP SWAP3 SWAP2 POP POP JUMP JUMPDEST PUSH1 0x0 DUP3 DUP3 MSTORE PUSH1 0x20 DUP3 ADD SWAP1 POP SWAP3 SWAP2 POP POP JUMP JUMPDEST PUSH1 0x0 DUP2 SWAP1 POP SWAP3 SWAP2 POP POP JUMP JUMPDEST PUSH1 0x0 PUSH2 0x22C5 DUP3 PUSH2 0x2443 JUMP JUMPDEST SWAP2 POP PUSH2 0x22D0 DUP4 PUSH2 0x2443 JUMP JUMPDEST SWAP3 POP DUP3 PUSH32 0xFFFFFFFFFFFFFFFFFFFFFFFFFFFFFFFFFFFFFFFFFFFFFFFFFFFFFFFFFFFFFFFF SUB DUP3 GT ISZERO PUSH2 0x2305 JUMPI PUSH2 0x2304 PUSH2 0x24CE JUMP JUMPDEST JUMPDEST DUP3 DUP3 ADD SWAP1 POP SWAP3 SWAP2 POP POP JUMP JUMPDEST PUSH1 0x0 PUSH2 0x231B DUP3 PUSH2 0x2443 JUMP JUMPDEST SWAP2 POP PUSH2 0x2326 DUP4 PUSH2 0x2443 JUMP JUMPDEST SWAP3 POP DUP3 PUSH2 0x2336 JUMPI PUSH2 0x2335 PUSH2 0x24FD JUMP JUMPDEST JUMPDEST DUP3 DUP3 DIV SWAP1 POP SWAP3 SWAP2 POP POP JUMP JUMPDEST PUSH1 0x0 PUSH2 0x234C DUP3 PUSH2 0x2443 JUMP JUMPDEST SWAP2 POP PUSH2 0x2357 DUP4 PUSH2 0x2443 JUMP JUMPDEST SWAP3 POP DUP2 PUSH32 0xFFFFFFFFFFFFFFFFFFFFFFFFFFFFFFFFFFFFFFFFFFFFFFFFFFFFFFFFFFFFFFFF DIV DUP4 GT DUP3 ISZERO ISZERO AND ISZERO PUSH2 0x2390 JUMPI PUSH2 0x238F PUSH2 0x24CE JUMP JUMPDEST JUMPDEST DUP3 DUP3 MUL SWAP1 POP SWAP3 SWAP2 POP POP JUMP JUMPDEST PUSH1 0x0 PUSH2 0x23A6 DUP3 PUSH2 0x2443 JUMP JUMPDEST SWAP2 POP PUSH2 0x23B1 DUP4 PUSH2 0x2443 JUMP JUMPDEST SWAP3 POP DUP3 DUP3 LT ISZERO PUSH2 0x23C4 JUMPI PUSH2 0x23C3 PUSH2 0x24CE JUMP JUMPDEST JUMPDEST DUP3 DUP3 SUB SWAP1 POP SWAP3 SWAP2 POP POP JUMP JUMPDEST PUSH1 0x0 PUSH2 0x23DA DUP3 PUSH2 0x2423 JUMP JUMPDEST SWAP1 POP SWAP2 SWAP1 POP JUMP JUMPDEST PUSH1 0x0 DUP2 ISZERO ISZERO SWAP1 POP SWAP2 SWAP1 POP JUMP JUMPDEST PUSH1 0x0 DUP2 SWAP1 POP SWAP2 SWAP1 POP JUMP JUMPDEST PUSH1 0x0 PUSH32 0xFFFFFFFF00000000000000000000000000000000000000000000000000000000 DUP3 AND SWAP1 POP SWAP2 SWAP1 POP JUMP JUMPDEST PUSH1 0x0 PUSH20 0xFFFFFFFFFFFFFFFFFFFFFFFFFFFFFFFFFFFFFFFF DUP3 AND SWAP1 POP SWAP2 SWAP1 POP JUMP JUMPDEST PUSH1 0x0 DUP2 SWAP1 POP SWAP2 SWAP1 POP JUMP JUMPDEST PUSH1 0x0 PUSH2 0x2458 DUP3 PUSH2 0x245F JUMP JUMPDEST SWAP1 POP SWAP2 SWAP1 POP JUMP JUMPDEST PUSH1 0x0 PUSH2 0x246A DUP3 PUSH2 0x2423 JUMP JUMPDEST SWAP1 POP SWAP2 SWAP1 POP JUMP JUMPDEST PUSH1 0x0 JUMPDEST DUP4 DUP2 LT ISZERO PUSH2 0x248F JUMPI DUP1 DUP3 ADD MLOAD DUP2 DUP5 ADD MSTORE PUSH1 0x20 DUP2 ADD SWAP1 POP PUSH2 0x2474 JUMP JUMPDEST DUP4 DUP2 GT ISZERO PUSH2 0x249E JUMPI PUSH1 0x0 DUP5 DUP5 ADD MSTORE JUMPDEST POP POP POP POP JUMP JUMPDEST PUSH1 0x0 PUSH2 0x24AF DUP3 PUSH2 0x2443 JUMP JUMPDEST SWAP2 POP PUSH1 0x0 DUP3 EQ ISZERO PUSH2 0x24C3 JUMPI PUSH2 0x24C2 PUSH2 0x24CE JUMP JUMPDEST JUMPDEST PUSH1 0x1 DUP3 SUB SWAP1 POP SWAP2 SWAP1 POP JUMP JUMPDEST PUSH32 0x4E487B7100000000000000000000000000000000000000000000000000000000 PUSH1 0x0 MSTORE PUSH1 0x11 PUSH1 0x4 MSTORE PUSH1 0x24 PUSH1 0x0 REVERT JUMPDEST PUSH32 0x4E487B7100000000000000000000000000000000000000000000000000000000 PUSH1 0x0 MSTORE PUSH1 0x12 PUSH1 0x4 MSTORE PUSH1 0x24 PUSH1 0x0 REVERT JUMPDEST PUSH1 0x0 PUSH1 0x1F NOT PUSH1 0x1F DUP4 ADD AND SWAP1 POP SWAP2 SWAP1 POP JUMP JUMPDEST PUSH2 0x2546 DUP2 PUSH2 0x23CF JUMP JUMPDEST DUP2 EQ PUSH2 0x2551 JUMPI PUSH1 0x0 DUP1 REVERT JUMPDEST POP JUMP JUMPDEST PUSH2 0x255D DUP2 PUSH2 0x23E1 JUMP JUMPDEST DUP2 EQ PUSH2 0x2568 JUMPI PUSH1 0x0 DUP1 REVERT JUMPDEST POP JUMP JUMPDEST PUSH2 0x2574 DUP2 PUSH2 0x23ED JUMP JUMPDEST DUP2 EQ PUSH2 0x257F JUMPI PUSH1 0x0 DUP1 REVERT JUMPDEST POP JUMP JUMPDEST PUSH2 0x258B DUP2 PUSH2 0x23F7 JUMP JUMPDEST DUP2 EQ PUSH2 0x2596 JUMPI PUSH1 0x0 DUP1 REVERT JUMPDEST POP JUMP JUMPDEST PUSH2 0x25A2 DUP2 PUSH2 0x2443 JUMP JUMPDEST DUP2 EQ PUSH2 0x25AD JUMPI PUSH1 0x0 DUP1 REVERT JUMPDEST POP JUMP INVALID LOG2 PUSH5 0x6970667358 0x22 SLT KECCAK256 PUSH1 0x4B MSIZE PUSH23 0x8DDE2617513DF9BC9B56FD8FA3CE6CE2D8CDD553904724 PUSH6 0x696786BF6473 PUSH16 0x6C634300080000330000000000000000 "
        },
        "methodIdentifiers": {
          "DEFAULT_ADMIN_ROLE()": "a217fddf",
          "TREASURY_ROLE()": "d11a57ec",
          "c_0x79e07839(bytes32)": "2cd42e29",
          "changeTreasuryAddress(address)": "a6f353f0",
          "collectFees()": "c8796572",
          "erc20Address()": "276184ae",
          "feesCollected()": "f071db5a",
          "getRoleAdmin(bytes32)": "248a9ca3",
          "grantRole(bytes32,address)": "2f2ff15d",
          "hasRole(bytes32,address)": "91d14854",
          "renounceRole(bytes32,address)": "36568abe",
          "revokeRole(bytes32,address)": "d547741f",
          "stake(uint256)": "a694fc3a",
          "staked(address)": "98807d84",
          "supportsInterface(bytes4)": "01ffc9a7",
          "treasury()": "61d027b3",
          "unStake(uint256)": "5d3eea91"
        }
      }
    }
  }
}