{
  "_format": "hh-sol-artifact-1",
  "contractName": "USDC",
  "sourceName": "contracts/USDC.sol",
  "abi": [
    {
      "inputs": [
        {
          "internalType": "uint256",
          "name": "initialSupply",
          "type": "uint256"
        },
        {
          "internalType": "address",
          "name": "pauserRole",
          "type": "address"
        },
        {
          "internalType": "address",
          "name": "minterRole",
          "type": "address"
        }
      ],
      "stateMutability": "nonpayable",
      "type": "constructor"
    },
    {
      "anonymous": false,
      "inputs": [
        {
          "indexed": true,
          "internalType": "address",
          "name": "owner",
          "type": "address"
        },
        {
          "indexed": true,
          "internalType": "address",
          "name": "spender",
          "type": "address"
        },
        {
          "indexed": false,
          "internalType": "uint256",
          "name": "value",
          "type": "uint256"
        }
      ],
      "name": "Approval",
      "type": "event"
    },
    {
      "anonymous": false,
      "inputs": [
        {
          "indexed": false,
          "internalType": "address",
          "name": "account",
          "type": "address"
        }
      ],
      "name": "Paused",
      "type": "event"
    },
    {
      "anonymous": false,
      "inputs": [
        {
          "indexed": true,
          "internalType": "bytes32",
          "name": "role",
          "type": "bytes32"
        },
        {
          "indexed": true,
          "internalType": "bytes32",
          "name": "previousAdminRole",
          "type": "bytes32"
        },
        {
          "indexed": true,
          "internalType": "bytes32",
          "name": "newAdminRole",
          "type": "bytes32"
        }
      ],
      "name": "RoleAdminChanged",
      "type": "event"
    },
    {
      "anonymous": false,
      "inputs": [
        {
          "indexed": true,
          "internalType": "bytes32",
          "name": "role",
          "type": "bytes32"
        },
        {
          "indexed": true,
          "internalType": "address",
          "name": "account",
          "type": "address"
        },
        {
          "indexed": true,
          "internalType": "address",
          "name": "sender",
          "type": "address"
        }
      ],
      "name": "RoleGranted",
      "type": "event"
    },
    {
      "anonymous": false,
      "inputs": [
        {
          "indexed": true,
          "internalType": "bytes32",
          "name": "role",
          "type": "bytes32"
        },
        {
          "indexed": true,
          "internalType": "address",
          "name": "account",
          "type": "address"
        },
        {
          "indexed": true,
          "internalType": "address",
          "name": "sender",
          "type": "address"
        }
      ],
      "name": "RoleRevoked",
      "type": "event"
    },
    {
      "anonymous": false,
      "inputs": [
        {
          "indexed": true,
          "internalType": "address",
          "name": "from",
          "type": "address"
        },
        {
          "indexed": true,
          "internalType": "address",
          "name": "to",
          "type": "address"
        },
        {
          "indexed": false,
          "internalType": "uint256",
          "name": "value",
          "type": "uint256"
        }
      ],
      "name": "Transfer",
      "type": "event"
    },
    {
      "anonymous": false,
      "inputs": [
        {
          "indexed": false,
          "internalType": "address",
          "name": "account",
          "type": "address"
        }
      ],
      "name": "Unpaused",
      "type": "event"
    },
    {
      "inputs": [],
      "name": "DEFAULT_ADMIN_ROLE",
      "outputs": [
        {
          "internalType": "bytes32",
          "name": "",
          "type": "bytes32"
        }
      ],
      "stateMutability": "view",
      "type": "function"
    },
    {
      "inputs": [],
      "name": "MINTER_ROLE",
      "outputs": [
        {
          "internalType": "bytes32",
          "name": "",
          "type": "bytes32"
        }
      ],
      "stateMutability": "view",
      "type": "function"
    },
    {
      "inputs": [],
      "name": "PAUSER_ROLE",
      "outputs": [
        {
          "internalType": "bytes32",
          "name": "",
          "type": "bytes32"
        }
      ],
      "stateMutability": "view",
      "type": "function"
    },
    {
      "inputs": [
        {
          "internalType": "address",
          "name": "owner",
          "type": "address"
        },
        {
          "internalType": "address",
          "name": "spender",
          "type": "address"
        }
      ],
      "name": "allowance",
      "outputs": [
        {
          "internalType": "uint256",
          "name": "",
          "type": "uint256"
        }
      ],
      "stateMutability": "view",
      "type": "function"
    },
    {
      "inputs": [
        {
          "internalType": "address",
          "name": "spender",
          "type": "address"
        },
        {
          "internalType": "uint256",
          "name": "amount",
          "type": "uint256"
        }
      ],
      "name": "approve",
      "outputs": [
        {
          "internalType": "bool",
          "name": "",
          "type": "bool"
        }
      ],
      "stateMutability": "nonpayable",
      "type": "function"
    },
    {
      "inputs": [
        {
          "internalType": "address",
          "name": "account",
          "type": "address"
        }
      ],
      "name": "balanceOf",
      "outputs": [
        {
          "internalType": "uint256",
          "name": "",
          "type": "uint256"
        }
      ],
      "stateMutability": "view",
      "type": "function"
    },
    {
      "inputs": [
        {
          "internalType": "bytes32",
          "name": "c__0x83058b79",
          "type": "bytes32"
        }
      ],
      "name": "c_0x83058b79",
      "outputs": [],
      "stateMutability": "pure",
      "type": "function"
    },
    {
      "inputs": [],
      "name": "decimals",
      "outputs": [
        {
          "internalType": "uint8",
          "name": "",
          "type": "uint8"
        }
      ],
      "stateMutability": "view",
      "type": "function"
    },
    {
      "inputs": [
        {
          "internalType": "address",
          "name": "spender",
          "type": "address"
        },
        {
          "internalType": "uint256",
          "name": "subtractedValue",
          "type": "uint256"
        }
      ],
      "name": "decreaseAllowance",
      "outputs": [
        {
          "internalType": "bool",
          "name": "",
          "type": "bool"
        }
      ],
      "stateMutability": "nonpayable",
      "type": "function"
    },
    {
      "inputs": [
        {
          "internalType": "bytes32",
          "name": "role",
          "type": "bytes32"
        }
      ],
      "name": "getRoleAdmin",
      "outputs": [
        {
          "internalType": "bytes32",
          "name": "",
          "type": "bytes32"
        }
      ],
      "stateMutability": "view",
      "type": "function"
    },
    {
      "inputs": [
        {
          "internalType": "bytes32",
          "name": "role",
          "type": "bytes32"
        },
        {
          "internalType": "address",
          "name": "account",
          "type": "address"
        }
      ],
      "name": "grantRole",
      "outputs": [],
      "stateMutability": "nonpayable",
      "type": "function"
    },
    {
      "inputs": [
        {
          "internalType": "bytes32",
          "name": "role",
          "type": "bytes32"
        },
        {
          "internalType": "address",
          "name": "account",
          "type": "address"
        }
      ],
      "name": "hasRole",
      "outputs": [
        {
          "internalType": "bool",
          "name": "",
          "type": "bool"
        }
      ],
      "stateMutability": "view",
      "type": "function"
    },
    {
      "inputs": [
        {
          "internalType": "address",
          "name": "spender",
          "type": "address"
        },
        {
          "internalType": "uint256",
          "name": "addedValue",
          "type": "uint256"
        }
      ],
      "name": "increaseAllowance",
      "outputs": [
        {
          "internalType": "bool",
          "name": "",
          "type": "bool"
        }
      ],
      "stateMutability": "nonpayable",
      "type": "function"
    },
    {
      "inputs": [
        {
          "internalType": "address",
          "name": "to",
          "type": "address"
        },
        {
          "internalType": "uint256",
          "name": "amount",
          "type": "uint256"
        }
      ],
      "name": "mintCoins",
      "outputs": [],
      "stateMutability": "nonpayable",
      "type": "function"
    },
    {
      "inputs": [],
      "name": "name",
      "outputs": [
        {
          "internalType": "string",
          "name": "",
          "type": "string"
        }
      ],
      "stateMutability": "view",
      "type": "function"
    },
    {
      "inputs": [],
      "name": "pause",
      "outputs": [],
      "stateMutability": "nonpayable",
      "type": "function"
    },
    {
      "inputs": [],
      "name": "paused",
      "outputs": [
        {
          "internalType": "bool",
          "name": "",
          "type": "bool"
        }
      ],
      "stateMutability": "view",
      "type": "function"
    },
    {
      "inputs": [
        {
          "internalType": "bytes32",
          "name": "role",
          "type": "bytes32"
        },
        {
          "internalType": "address",
          "name": "account",
          "type": "address"
        }
      ],
      "name": "renounceRole",
      "outputs": [],
      "stateMutability": "nonpayable",
      "type": "function"
    },
    {
      "inputs": [
        {
          "internalType": "bytes32",
          "name": "role",
          "type": "bytes32"
        },
        {
          "internalType": "address",
          "name": "account",
          "type": "address"
        }
      ],
      "name": "revokeRole",
      "outputs": [],
      "stateMutability": "nonpayable",
      "type": "function"
    },
    {
      "inputs": [
        {
          "internalType": "bytes4",
          "name": "interfaceId",
          "type": "bytes4"
        }
      ],
      "name": "supportsInterface",
      "outputs": [
        {
          "internalType": "bool",
          "name": "",
          "type": "bool"
        }
      ],
      "stateMutability": "view",
      "type": "function"
    },
    {
      "inputs": [],
      "name": "symbol",
      "outputs": [
        {
          "internalType": "string",
          "name": "",
          "type": "string"
        }
      ],
      "stateMutability": "view",
      "type": "function"
    },
    {
      "inputs": [
        {
          "internalType": "address",
          "name": "to",
          "type": "address"
        }
      ],
      "name": "testMint",
      "outputs": [],
      "stateMutability": "nonpayable",
      "type": "function"
    },
    {
      "inputs": [],
      "name": "totalSupply",
      "outputs": [
        {
          "internalType": "uint256",
          "name": "",
          "type": "uint256"
        }
      ],
      "stateMutability": "view",
      "type": "function"
    },
    {
      "inputs": [
        {
          "internalType": "address",
          "name": "recipient",
          "type": "address"
        },
        {
          "internalType": "uint256",
          "name": "amount",
          "type": "uint256"
        }
      ],
      "name": "transfer",
      "outputs": [
        {
          "internalType": "bool",
          "name": "",
          "type": "bool"
        }
      ],
      "stateMutability": "nonpayable",
      "type": "function"
    },
    {
      "inputs": [
        {
          "internalType": "address",
          "name": "sender",
          "type": "address"
        },
        {
          "internalType": "address",
          "name": "recipient",
          "type": "address"
        },
        {
          "internalType": "uint256",
          "name": "amount",
          "type": "uint256"
        }
      ],
      "name": "transferFrom",
      "outputs": [
        {
          "internalType": "bool",
          "name": "",
          "type": "bool"
        }
      ],
      "stateMutability": "nonpayable",
      "type": "function"
    },
    {
      "inputs": [],
      "name": "unpause",
      "outputs": [],
      "stateMutability": "nonpayable",
      "type": "function"
    }
  ],
  "bytecode": "0x60806040523480156200001157600080fd5b50604051620037ce380380620037ce83398181016040528101906200003791906200092a565b6040518060400160405280600481526020017f55534443000000000000000000000000000000000000000000000000000000008152506040518060400160405280600481526020017f55534443000000000000000000000000000000000000000000000000000000008152508160039080519060200190620000bb9291906200084c565b508060049080519060200190620000d49291906200084c565b5050506000600560006101000a81548160ff021916908315150217905550620001267ff4a8c6d32ecc9be956cca43f3e82b421bbc76c523cef96b28e2616bb1e0e10c060001b6200038460201b60201c565b6200015a7fc3bfa6def81b30678d6964ca80de0bd20c5e4e5c1036ce695e8c3737c02dc3d860001b6200038460201b60201c565b6200018e7f204c55db71b06d2bbd88ceef26c88d65736df05252cbba135a707b9f1f6d3eeb60001b6200038460201b60201c565b620001a36000801b336200038760201b60201c565b620001d77f3fc008fb7452658cba9eda2829b645fec28dcd26f26566bed7884715550b289660001b6200038460201b60201c565b6200020b7f2f60d538efefda13fbea17e31190990242864c740ed160480c0608b92349304c60001b6200038460201b60201c565b6200023d7f65d7a28e3265b37a6474929f336521b332c1681b933f6cb9f3376673440d862a836200038760201b60201c565b620002717fe66f65d73838b67635308300956eb8cd9d75b17a3072273be5517dbfc2b6280a60001b6200038460201b60201c565b620002a57f4ae5ab35e3172aa9db2b4ff85c9dc9197b464c0ac912578723bd01596f81833f60001b6200038460201b60201c565b620002d77f9f2df0fed2c77648de5860a4cc508cd0818c85b8b8a1ab4ceeef8d981c8956a6826200038760201b60201c565b6200030b7f7e0faf1e5e324d5240adaf2e90b878f8f4d2fc437f8b33d3700abf1bab8976f860001b6200038460201b60201c565b6200033f7fa1213de92169611f4a7b1ce54a346cd89f7dd9dada91aed6fe6037664bee9c3e60001b6200038460201b60201c565b6200037b33620003546200039d60201b60201c565b600a62000362919062000b3f565b856200036f919062000c7c565b6200044160201b60201c565b50505062000dfd565b50565b620003998282620005ba60201b60201c565b5050565b6000620003d37fe33d37c676960a344c0efda4279cc5a142660f6a65f6b86fc65b74b37c6a2ae560001b6200038460201b60201c565b620004067edec3cc9a9624a0c06ec5785a04babe67e44714b365c173814a918f1c357c1160001b6200038460201b60201c565b6200043a7fff217505daf9c4689c363a841ca63148858817a2b81477eba67fd0113c5a2cfb60001b6200038460201b60201c565b6006905090565b600073ffffffffffffffffffffffffffffffffffffffff168273ffffffffffffffffffffffffffffffffffffffff161415620004b4576040517f08c379a0000000000000000000000000000000000000000000000000000000008152600401620004ab9062000a37565b60405180910390fd5b620004c860008383620006ac60201b60201c565b8060026000828254620004dc919062000a87565b92505081905550806000808473ffffffffffffffffffffffffffffffffffffffff1673ffffffffffffffffffffffffffffffffffffffff168152602001908152602001600020600082825462000533919062000a87565b925050819055508173ffffffffffffffffffffffffffffffffffffffff16600073ffffffffffffffffffffffffffffffffffffffff167fddf252ad1be2c89b69c2b068fc378daa952ba7f163c4a11628f55a4df523b3ef836040516200059a919062000a59565b60405180910390a3620005b660008383620007b860201b60201c565b5050565b620005cc8282620007bd60201b60201c565b620006a85760016006600084815260200190815260200160002060000160008373ffffffffffffffffffffffffffffffffffffffff1673ffffffffffffffffffffffffffffffffffffffff16815260200190815260200160002060006101000a81548160ff0219169083151502179055506200064d6200082860201b60201c565b73ffffffffffffffffffffffffffffffffffffffff168173ffffffffffffffffffffffffffffffffffffffff16837f2f8788117e7eff1d82e926ec794901d17c78024a50270940304540a733656f0d60405160405180910390a45b5050565b620006bc6200083060201b60201c565b15620006ff576040517f08c379a0000000000000000000000000000000000000000000000000000000008152600401620006f69062000a15565b60405180910390fd5b620007337fb17680557f430b89c7fbe4e8c023510075e84516ce18c325023cabfcc49f088060001b6200038460201b60201c565b620007677fddaf942cbe77cda14b51adaec6a19108041fb99c0787efed42a37fdcb8b8ac2b60001b6200038460201b60201c565b6200079b7fa9df8fe9a886ebdde4fc862f0bc003dd5f14b74a4c6f8b39e194ee6e3b8628d960001b6200038460201b60201c565b620007b38383836200084760201b62000f921760201c565b505050565b505050565b60006006600084815260200190815260200160002060000160008373ffffffffffffffffffffffffffffffffffffffff1673ffffffffffffffffffffffffffffffffffffffff16815260200190815260200160002060009054906101000a900460ff16905092915050565b600033905090565b6000600560009054906101000a900460ff16905090565b505050565b8280546200085a9062000d28565b90600052602060002090601f0160209004810192826200087e5760008555620008ca565b82601f106200089957805160ff1916838001178555620008ca565b82800160010185558215620008ca579182015b82811115620008c9578251825591602001919060010190620008ac565b5b509050620008d99190620008dd565b5090565b5b80821115620008f8576000816000905550600101620008de565b5090565b6000815190506200090d8162000dc9565b92915050565b600081519050620009248162000de3565b92915050565b6000806000606084860312156200094057600080fd5b6000620009508682870162000913565b93505060206200096386828701620008fc565b92505060406200097686828701620008fc565b9150509250925092565b60006200098f60108362000a76565b91507f5061757361626c653a20706175736564000000000000000000000000000000006000830152602082019050919050565b6000620009d1601f8362000a76565b91507f45524332303a206d696e7420746f20746865207a65726f2061646472657373006000830152602082019050919050565b62000a0f8162000d11565b82525050565b6000602082019050818103600083015262000a308162000980565b9050919050565b6000602082019050818103600083015262000a5281620009c2565b9050919050565b600060208201905062000a70600083018462000a04565b92915050565b600082825260208201905092915050565b600062000a948262000d11565b915062000aa18362000d11565b9250827fffffffffffffffffffffffffffffffffffffffffffffffffffffffffffffffff0382111562000ad95762000ad862000d5e565b5b828201905092915050565b6000808291508390505b600185111562000b365780860481111562000b0e5762000b0d62000d5e565b5b600185161562000b1e5780820291505b808102905062000b2e8562000dbc565b945062000aee565b94509492505050565b600062000b4c8262000d11565b915062000b598362000d1b565b925062000b887fffffffffffffffffffffffffffffffffffffffffffffffffffffffffffffffff848462000b90565b905092915050565b60008262000ba2576001905062000c75565b8162000bb2576000905062000c75565b816001811462000bcb576002811462000bd65762000c0c565b600191505062000c75565b60ff84111562000beb5762000bea62000d5e565b5b8360020a91508482111562000c055762000c0462000d5e565b5b5062000c75565b5060208310610133831016604e8410600b841016171562000c465782820a90508381111562000c405762000c3f62000d5e565b5b62000c75565b62000c55848484600162000ae4565b9250905081840481111562000c6f5762000c6e62000d5e565b5b81810290505b9392505050565b600062000c898262000d11565b915062000c968362000d11565b9250817fffffffffffffffffffffffffffffffffffffffffffffffffffffffffffffffff048311821515161562000cd25762000cd162000d5e565b5b828202905092915050565b600062000cea8262000cf1565b9050919050565b600073ffffffffffffffffffffffffffffffffffffffff82169050919050565b6000819050919050565b600060ff82169050919050565b6000600282049050600182168062000d4157607f821691505b6020821081141562000d585762000d5762000d8d565b5b50919050565b7f4e487b7100000000000000000000000000000000000000000000000000000000600052601160045260246000fd5b7f4e487b7100000000000000000000000000000000000000000000000000000000600052602260045260246000fd5b60008160011c9050919050565b62000dd48162000cdd565b811462000de057600080fd5b50565b62000dee8162000d11565b811462000dfa57600080fd5b50565b6129c18062000e0d6000396000f3fe608060405234801561001057600080fd5b506004361061018e5760003560e01c80637fc00740116100de578063a9059cbb11610097578063d539139311610071578063d539139314610497578063d547741f146104b5578063dd62ed3e146104d1578063e63ab1e9146105015761018e565b8063a9059cbb1461042f578063b7fde9da1461045f578063c70c875a1461047b5761018e565b80637fc007401461036d5780638456cb591461038957806391d148541461039357806395d89b41146103c3578063a217fddf146103e1578063a457c2d7146103ff5761018e565b80632f2ff15d1161014b578063395093511161012557806339509351146102e55780633f4ba83a146103155780635c975abb1461031f57806370a082311461033d5761018e565b80632f2ff15d1461028f578063313ce567146102ab57806336568abe146102c95761018e565b806301ffc9a71461019357806306fdde03146101c3578063095ea7b3146101e157806318160ddd1461021157806323b872dd1461022f578063248a9ca31461025f575b600080fd5b6101ad60048036038101906101a89190611ede565b61051f565b6040516101ba91906124c1565b60405180910390f35b6101cb610599565b6040516101d891906124f7565b60405180910390f35b6101fb60048036038101906101f69190611e3d565b61062b565b60405161020891906124c1565b60405180910390f35b610219610649565b6040516102269190612699565b60405180910390f35b61024960048036038101906102449190611dee565b610653565b60405161025691906124c1565b60405180910390f35b61027960048036038101906102749190611e79565b61074b565b60405161028691906124dc565b60405180910390f35b6102a960048036038101906102a49190611ea2565b61076b565b005b6102b3610794565b6040516102c091906126b4565b60405180910390f35b6102e360048036038101906102de9190611ea2565b610820565b005b6102ff60048036038101906102fa9190611e3d565b6108a3565b60405161030c91906124c1565b60405180910390f35b61031d61094f565b005b610327610a10565b60405161033491906124c1565b60405180910390f35b61035760048036038101906103529190611d89565b610a27565b6040516103649190612699565b60405180910390f35b61038760048036038101906103829190611e79565b610a6f565b005b610391610a72565b005b6103ad60048036038101906103a89190611ea2565b610b33565b6040516103ba91906124c1565b60405180910390f35b6103cb610b9e565b6040516103d891906124f7565b60405180910390f35b6103e9610c30565b6040516103f691906124dc565b60405180910390f35b61041960048036038101906104149190611e3d565b610c37565b60405161042691906124c1565b60405180910390f35b61044960048036038101906104449190611e3d565b610d22565b60405161045691906124c1565b60405180910390f35b61047960048036038101906104749190611e3d565b610d40565b005b61049560048036038101906104909190611d89565b610e05565b005b61049f610e9a565b6040516104ac91906124dc565b60405180910390f35b6104cf60048036038101906104ca9190611ea2565b610ebe565b005b6104eb60048036038101906104e69190611db2565b610ee7565b6040516104f89190612699565b60405180910390f35b610509610f6e565b60405161051691906124dc565b60405180910390f35b60007f7965db0b000000000000000000000000000000000000000000000000000000007bffffffffffffffffffffffffffffffffffffffffffffffffffffffff1916827bffffffffffffffffffffffffffffffffffffffffffffffffffffffff19161480610592575061059182610f97565b5b9050919050565b6060600380546105a89061288e565b80601f01602080910402602001604051908101604052809291908181526020018280546105d49061288e565b80156106215780601f106105f657610100808354040283529160200191610621565b820191906000526020600020905b81548152906001019060200180831161060457829003601f168201915b5050505050905090565b600061063f610638611001565b8484611009565b6001905092915050565b6000600254905090565b60006106608484846111d4565b6000600160008673ffffffffffffffffffffffffffffffffffffffff1673ffffffffffffffffffffffffffffffffffffffff16815260200190815260200160002060006106ab611001565b73ffffffffffffffffffffffffffffffffffffffff1673ffffffffffffffffffffffffffffffffffffffff1681526020019081526020016000205490508281101561072b576040517f08c379a0000000000000000000000000000000000000000000000000000000008152600401610722906125d9565b60405180910390fd5b61073f85610737611001565b858403611009565b60019150509392505050565b600060066000838152602001908152602001600020600101549050919050565b6107748261074b565b61078581610780611001565b611455565b61078f83836114f2565b505050565b60006107c27fe33d37c676960a344c0efda4279cc5a142660f6a65f6b86fc65b74b37c6a2ae560001b610a6f565b6107ed7edec3cc9a9624a0c06ec5785a04babe67e44714b365c173814a918f1c357c1160001b610a6f565b6108197fff217505daf9c4689c363a841ca63148858817a2b81477eba67fd0113c5a2cfb60001b610a6f565b6006905090565b610828611001565b73ffffffffffffffffffffffffffffffffffffffff168173ffffffffffffffffffffffffffffffffffffffff1614610895576040517f08c379a000000000000000000000000000000000000000000000000000000000815260040161088c90612659565b60405180910390fd5b61089f82826115d3565b5050565b60006109456108b0611001565b8484600160006108be611001565b73ffffffffffffffffffffffffffffffffffffffff1673ffffffffffffffffffffffffffffffffffffffff16815260200190815260200160002060008873ffffffffffffffffffffffffffffffffffffffff1673ffffffffffffffffffffffffffffffffffffffff1681526020019081526020016000205461094091906126f6565b611009565b6001905092915050565b7f65d7a28e3265b37a6474929f336521b332c1681b933f6cb9f3376673440d862a6109818161097c611001565b611455565b6109ad7fc2955083e82f6d16e54339ff85928f167da0b5997f2886c7637ca78d990c94ca60001b610a6f565b6109d97f62b419b4cf3b10ff360d5a6a35829f0f3e8979eb3d9b2cca2a1d2d2a466fa21c60001b610a6f565b610a057ff9965a585f9d82b7b0cb80dcc70f2d245647c0e8d90817e654f9c942239f22db60001b610a6f565b610a0d6116b5565b50565b6000600560009054906101000a900460ff16905090565b60008060008373ffffffffffffffffffffffffffffffffffffffff1673ffffffffffffffffffffffffffffffffffffffff168152602001908152602001600020549050919050565b50565b7f65d7a28e3265b37a6474929f336521b332c1681b933f6cb9f3376673440d862a610aa481610a9f611001565b611455565b610ad07febbaef4a1dd362a044e19f1aafee89e331c66bfcf42ec93a4e3fb15a831bdcbd60001b610a6f565b610afc7f02a316754e90ba3f99f8ecf7137bedca9f82a72a345eaf0062ac98caefb0dd5060001b610a6f565b610b287fa6092f9a7219d23f8049e2acc5003d62a9abddcbaaa1f7fd3a04442afff350c460001b610a6f565b610b30611757565b50565b60006006600084815260200190815260200160002060000160008373ffffffffffffffffffffffffffffffffffffffff1673ffffffffffffffffffffffffffffffffffffffff16815260200190815260200160002060009054906101000a900460ff16905092915050565b606060048054610bad9061288e565b80601f0160208091040260200160405190810160405280929190818152602001828054610bd99061288e565b8015610c265780601f10610bfb57610100808354040283529160200191610c26565b820191906000526020600020905b815481529060010190602001808311610c0957829003601f168201915b5050505050905090565b6000801b81565b60008060016000610c46611001565b73ffffffffffffffffffffffffffffffffffffffff1673ffffffffffffffffffffffffffffffffffffffff16815260200190815260200160002060008573ffffffffffffffffffffffffffffffffffffffff1673ffffffffffffffffffffffffffffffffffffffff16815260200190815260200160002054905082811015610d03576040517f08c379a0000000000000000000000000000000000000000000000000000000008152600401610cfa90612639565b60405180910390fd5b610d17610d0e611001565b85858403611009565b600191505092915050565b6000610d36610d2f611001565b84846111d4565b6001905092915050565b7f9f2df0fed2c77648de5860a4cc508cd0818c85b8b8a1ab4ceeef8d981c8956a6610d7281610d6d611001565b611455565b610d9e7f496a98b38024ef87bf61ca8337d4032538003f19629bbced0d574891dc1d28e460001b610a6f565b610dca7f7c10dcb31d3ab2e975a15d79121faae10a3bb6c9b16e77f3b8dc4020368f3aff60001b610a6f565b610df67f81866649052e551023bcfd3a15e266459561432cc6ddef51a99ed3d164ef9ed460001b610a6f565b610e0083836117fa565b505050565b610e317f0a2f36e953a999832e638d4977d78e16284e6f548a7d7aa8845377aa00fe0d5160001b610a6f565b610e5d7fdbb8e9ce98f662f34c1261bb78efb82c4fff1bedb85254541bc6014b0bcbe33360001b610a6f565b610e897fdaa586f45fb005d8d17c40123ebcbfb8037a58212676310971efa1ae3eda9eb960001b610a6f565b610e9781633b9aca006117fa565b50565b7f9f2df0fed2c77648de5860a4cc508cd0818c85b8b8a1ab4ceeef8d981c8956a681565b610ec78261074b565b610ed881610ed3611001565b611455565b610ee283836115d3565b505050565b6000600160008473ffffffffffffffffffffffffffffffffffffffff1673ffffffffffffffffffffffffffffffffffffffff16815260200190815260200160002060008373ffffffffffffffffffffffffffffffffffffffff1673ffffffffffffffffffffffffffffffffffffffff16815260200190815260200160002054905092915050565b7f65d7a28e3265b37a6474929f336521b332c1681b933f6cb9f3376673440d862a81565b505050565b60007f01ffc9a7000000000000000000000000000000000000000000000000000000007bffffffffffffffffffffffffffffffffffffffffffffffffffffffff1916827bffffffffffffffffffffffffffffffffffffffffffffffffffffffff1916149050919050565b600033905090565b600073ffffffffffffffffffffffffffffffffffffffff168373ffffffffffffffffffffffffffffffffffffffff161415611079576040517f08c379a000000000000000000000000000000000000000000000000000000000815260040161107090612619565b60405180910390fd5b600073ffffffffffffffffffffffffffffffffffffffff168273ffffffffffffffffffffffffffffffffffffffff1614156110e9576040517f08c379a00000000000000000000000000000000000000000000000000000000081526004016110e090612579565b60405180910390fd5b80600160008573ffffffffffffffffffffffffffffffffffffffff1673ffffffffffffffffffffffffffffffffffffffff16815260200190815260200160002060008473ffffffffffffffffffffffffffffffffffffffff1673ffffffffffffffffffffffffffffffffffffffff168152602001908152602001600020819055508173ffffffffffffffffffffffffffffffffffffffff168373ffffffffffffffffffffffffffffffffffffffff167f8c5be1e5ebec7d5bd14f71427d1e84f3dd0314c0f7b2291e5b200ac8c7c3b925836040516111c79190612699565b60405180910390a3505050565b600073ffffffffffffffffffffffffffffffffffffffff168373ffffffffffffffffffffffffffffffffffffffff161415611244576040517f08c379a000000000000000000000000000000000000000000000000000000000815260040161123b906125f9565b60405180910390fd5b600073ffffffffffffffffffffffffffffffffffffffff168273ffffffffffffffffffffffffffffffffffffffff1614156112b4576040517f08c379a00000000000000000000000000000000000000000000000000000000081526004016112ab90612539565b60405180910390fd5b6112bf83838361195a565b60008060008573ffffffffffffffffffffffffffffffffffffffff1673ffffffffffffffffffffffffffffffffffffffff16815260200190815260200160002054905081811015611345576040517f08c379a000000000000000000000000000000000000000000000000000000000815260040161133c90612599565b60405180910390fd5b8181036000808673ffffffffffffffffffffffffffffffffffffffff1673ffffffffffffffffffffffffffffffffffffffff16815260200190815260200160002081905550816000808573ffffffffffffffffffffffffffffffffffffffff1673ffffffffffffffffffffffffffffffffffffffff16815260200190815260200160002060008282546113d891906126f6565b925050819055508273ffffffffffffffffffffffffffffffffffffffff168473ffffffffffffffffffffffffffffffffffffffff167fddf252ad1be2c89b69c2b068fc378daa952ba7f163c4a11628f55a4df523b3ef8460405161143c9190612699565b60405180910390a361144f848484611a36565b50505050565b61145f8282610b33565b6114ee576114848173ffffffffffffffffffffffffffffffffffffffff166014611a3b565b6114928360001c6020611a3b565b6040516020016114a392919061246c565b6040516020818303038152906040526040517f08c379a00000000000000000000000000000000000000000000000000000000081526004016114e591906124f7565b60405180910390fd5b5050565b6114fc8282610b33565b6115cf5760016006600084815260200190815260200160002060000160008373ffffffffffffffffffffffffffffffffffffffff1673ffffffffffffffffffffffffffffffffffffffff16815260200190815260200160002060006101000a81548160ff021916908315150217905550611574611001565b73ffffffffffffffffffffffffffffffffffffffff168173ffffffffffffffffffffffffffffffffffffffff16837f2f8788117e7eff1d82e926ec794901d17c78024a50270940304540a733656f0d60405160405180910390a45b5050565b6115dd8282610b33565b156116b15760006006600084815260200190815260200160002060000160008373ffffffffffffffffffffffffffffffffffffffff1673ffffffffffffffffffffffffffffffffffffffff16815260200190815260200160002060006101000a81548160ff021916908315150217905550611656611001565b73ffffffffffffffffffffffffffffffffffffffff168173ffffffffffffffffffffffffffffffffffffffff16837ff6391f5c32d9c69d2a47ea670b442974b53935d1edc7fd64eb21e047a839171b60405160405180910390a45b5050565b6116bd610a10565b6116fc576040517f08c379a00000000000000000000000000000000000000000000000000000000081526004016116f390612559565b60405180910390fd5b6000600560006101000a81548160ff0219169083151502179055507f5db9ee0a495bf2e6ff9c91a7834c1ba4fdd244a5e8aa4e537bd38aeae4b073aa611740611001565b60405161174d91906124a6565b60405180910390a1565b61175f610a10565b1561179f576040517f08c379a0000000000000000000000000000000000000000000000000000000008152600401611796906125b9565b60405180910390fd5b6001600560006101000a81548160ff0219169083151502179055507f62e78cea01bee320cd4e420270b5ea74000d11b0c9f74754ebdbfc544b05a2586117e3611001565b6040516117f091906124a6565b60405180910390a1565b600073ffffffffffffffffffffffffffffffffffffffff168273ffffffffffffffffffffffffffffffffffffffff16141561186a576040517f08c379a000000000000000000000000000000000000000000000000000000000815260040161186190612679565b60405180910390fd5b6118766000838361195a565b806002600082825461188891906126f6565b92505081905550806000808473ffffffffffffffffffffffffffffffffffffffff1673ffffffffffffffffffffffffffffffffffffffff16815260200190815260200160002060008282546118dd91906126f6565b925050819055508173ffffffffffffffffffffffffffffffffffffffff16600073ffffffffffffffffffffffffffffffffffffffff167fddf252ad1be2c89b69c2b068fc378daa952ba7f163c4a11628f55a4df523b3ef836040516119429190612699565b60405180910390a361195660008383611a36565b5050565b611962610a10565b156119a2576040517f08c379a0000000000000000000000000000000000000000000000000000000008152600401611999906125b9565b60405180910390fd5b6119ce7fb17680557f430b89c7fbe4e8c023510075e84516ce18c325023cabfcc49f088060001b610a6f565b6119fa7fddaf942cbe77cda14b51adaec6a19108041fb99c0787efed42a37fdcb8b8ac2b60001b610a6f565b611a267fa9df8fe9a886ebdde4fc862f0bc003dd5f14b74a4c6f8b39e194ee6e3b8628d960001b610a6f565b611a31838383610f92565b505050565b505050565b606060006002836002611a4e919061274c565b611a5891906126f6565b67ffffffffffffffff811115611a97577f4e487b7100000000000000000000000000000000000000000000000000000000600052604160045260246000fd5b6040519080825280601f01601f191660200182016040528015611ac95781602001600182028036833780820191505090505b5090507f300000000000000000000000000000000000000000000000000000000000000081600081518110611b27577f4e487b7100000000000000000000000000000000000000000000000000000000600052603260045260246000fd5b60200101907effffffffffffffffffffffffffffffffffffffffffffffffffffffffffffff1916908160001a9053507f780000000000000000000000000000000000000000000000000000000000000081600181518110611bb1577f4e487b7100000000000000000000000000000000000000000000000000000000600052603260045260246000fd5b60200101907effffffffffffffffffffffffffffffffffffffffffffffffffffffffffffff1916908160001a90535060006001846002611bf1919061274c565b611bfb91906126f6565b90505b6001811115611ce7577f3031323334353637383961626364656600000000000000000000000000000000600f861660108110611c63577f4e487b7100000000000000000000000000000000000000000000000000000000600052603260045260246000fd5b1a60f81b828281518110611ca0577f4e487b7100000000000000000000000000000000000000000000000000000000600052603260045260246000fd5b60200101907effffffffffffffffffffffffffffffffffffffffffffffffffffffffffffff1916908160001a905350600485901c945080611ce090612864565b9050611bfe565b5060008414611d2b576040517f08c379a0000000000000000000000000000000000000000000000000000000008152600401611d2290612519565b60405180910390fd5b8091505092915050565b600081359050611d448161292f565b92915050565b600081359050611d5981612946565b92915050565b600081359050611d6e8161295d565b92915050565b600081359050611d8381612974565b92915050565b600060208284031215611d9b57600080fd5b6000611da984828501611d35565b91505092915050565b60008060408385031215611dc557600080fd5b6000611dd385828601611d35565b9250506020611de485828601611d35565b9150509250929050565b600080600060608486031215611e0357600080fd5b6000611e1186828701611d35565b9350506020611e2286828701611d35565b9250506040611e3386828701611d74565b9150509250925092565b60008060408385031215611e5057600080fd5b6000611e5e85828601611d35565b9250506020611e6f85828601611d74565b9150509250929050565b600060208284031215611e8b57600080fd5b6000611e9984828501611d4a565b91505092915050565b60008060408385031215611eb557600080fd5b6000611ec385828601611d4a565b9250506020611ed485828601611d35565b9150509250929050565b600060208284031215611ef057600080fd5b6000611efe84828501611d5f565b91505092915050565b611f10816127a6565b82525050565b611f1f816127b8565b82525050565b611f2e816127c4565b82525050565b6000611f3f826126cf565b611f4981856126da565b9350611f59818560208601612831565b611f628161291e565b840191505092915050565b6000611f78826126cf565b611f8281856126eb565b9350611f92818560208601612831565b80840191505092915050565b6000611fab6020836126da565b91507f537472696e67733a20686578206c656e67746820696e73756666696369656e746000830152602082019050919050565b6000611feb6023836126da565b91507f45524332303a207472616e7366657220746f20746865207a65726f206164647260008301527f65737300000000000000000000000000000000000000000000000000000000006020830152604082019050919050565b60006120516014836126da565b91507f5061757361626c653a206e6f74207061757365640000000000000000000000006000830152602082019050919050565b60006120916022836126da565b91507f45524332303a20617070726f766520746f20746865207a65726f20616464726560008301527f73730000000000000000000000000000000000000000000000000000000000006020830152604082019050919050565b60006120f76026836126da565b91507f45524332303a207472616e7366657220616d6f756e742065786365656473206260008301527f616c616e636500000000000000000000000000000000000000000000000000006020830152604082019050919050565b600061215d6010836126da565b91507f5061757361626c653a20706175736564000000000000000000000000000000006000830152602082019050919050565b600061219d6028836126da565b91507f45524332303a207472616e7366657220616d6f756e742065786365656473206160008301527f6c6c6f77616e63650000000000000000000000000000000000000000000000006020830152604082019050919050565b60006122036025836126da565b91507f45524332303a207472616e736665722066726f6d20746865207a65726f20616460008301527f64726573730000000000000000000000000000000000000000000000000000006020830152604082019050919050565b60006122696024836126da565b91507f45524332303a20617070726f76652066726f6d20746865207a65726f2061646460008301527f72657373000000000000000000000000000000000000000000000000000000006020830152604082019050919050565b60006122cf6017836126eb565b91507f416363657373436f6e74726f6c3a206163636f756e74200000000000000000006000830152601782019050919050565b600061230f6025836126da565b91507f45524332303a2064656372656173656420616c6c6f77616e63652062656c6f7760008301527f207a65726f0000000000000000000000000000000000000000000000000000006020830152604082019050919050565b60006123756011836126eb565b91507f206973206d697373696e6720726f6c65200000000000000000000000000000006000830152601182019050919050565b60006123b5602f836126da565b91507f416363657373436f6e74726f6c3a2063616e206f6e6c792072656e6f756e636560008301527f20726f6c657320666f722073656c6600000000000000000000000000000000006020830152604082019050919050565b600061241b601f836126da565b91507f45524332303a206d696e7420746f20746865207a65726f2061646472657373006000830152602082019050919050565b6124578161281a565b82525050565b61246681612824565b82525050565b6000612477826122c2565b91506124838285611f6d565b915061248e82612368565b915061249a8284611f6d565b91508190509392505050565b60006020820190506124bb6000830184611f07565b92915050565b60006020820190506124d66000830184611f16565b92915050565b60006020820190506124f16000830184611f25565b92915050565b600060208201905081810360008301526125118184611f34565b905092915050565b6000602082019050818103600083015261253281611f9e565b9050919050565b6000602082019050818103600083015261255281611fde565b9050919050565b6000602082019050818103600083015261257281612044565b9050919050565b6000602082019050818103600083015261259281612084565b9050919050565b600060208201905081810360008301526125b2816120ea565b9050919050565b600060208201905081810360008301526125d281612150565b9050919050565b600060208201905081810360008301526125f281612190565b9050919050565b60006020820190508181036000830152612612816121f6565b9050919050565b600060208201905081810360008301526126328161225c565b9050919050565b6000602082019050818103600083015261265281612302565b9050919050565b60006020820190508181036000830152612672816123a8565b9050919050565b600060208201905081810360008301526126928161240e565b9050919050565b60006020820190506126ae600083018461244e565b92915050565b60006020820190506126c9600083018461245d565b92915050565b600081519050919050565b600082825260208201905092915050565b600081905092915050565b60006127018261281a565b915061270c8361281a565b9250827fffffffffffffffffffffffffffffffffffffffffffffffffffffffffffffffff03821115612741576127406128c0565b5b828201905092915050565b60006127578261281a565b91506127628361281a565b9250817fffffffffffffffffffffffffffffffffffffffffffffffffffffffffffffffff048311821515161561279b5761279a6128c0565b5b828202905092915050565b60006127b1826127fa565b9050919050565b60008115159050919050565b6000819050919050565b60007fffffffff0000000000000000000000000000000000000000000000000000000082169050919050565b600073ffffffffffffffffffffffffffffffffffffffff82169050919050565b6000819050919050565b600060ff82169050919050565b60005b8381101561284f578082015181840152602081019050612834565b8381111561285e576000848401525b50505050565b600061286f8261281a565b91506000821415612883576128826128c0565b5b600182039050919050565b600060028204905060018216806128a657607f821691505b602082108114156128ba576128b96128ef565b5b50919050565b7f4e487b7100000000000000000000000000000000000000000000000000000000600052601160045260246000fd5b7f4e487b7100000000000000000000000000000000000000000000000000000000600052602260045260246000fd5b6000601f19601f8301169050919050565b612938816127a6565b811461294357600080fd5b50565b61294f816127c4565b811461295a57600080fd5b50565b612966816127ce565b811461297157600080fd5b50565b61297d8161281a565b811461298857600080fd5b5056fea26469706673582212206cb76de165dc78cc298579dcf56ee460cc54e04dec766b134c7859fcfab51a5464736f6c63430008000033",
  "linkReferences": {},
  "deployedLinkReferences": {}
}