{
  "_format": "hh-sol-artifact-1",
  "contractName": "USDC",
  "sourceName": "contracts/USDC.sol",
  "abi": [
    {
      "inputs": [
        {
          "internalType": "uint256",
          "name": "initialSupply",
          "type": "uint256"
        },
        {
          "internalType": "address",
          "name": "pauserRole",
          "type": "address"
        },
        {
          "internalType": "address",
          "name": "minterRole",
          "type": "address"
        }
      ],
      "stateMutability": "nonpayable",
      "type": "constructor"
    },
    {
      "anonymous": false,
      "inputs": [
        {
          "indexed": true,
          "internalType": "address",
          "name": "owner",
          "type": "address"
        },
        {
          "indexed": true,
          "internalType": "address",
          "name": "spender",
          "type": "address"
        },
        {
          "indexed": false,
          "internalType": "uint256",
          "name": "value",
          "type": "uint256"
        }
      ],
      "name": "Approval",
      "type": "event"
    },
    {
      "anonymous": false,
      "inputs": [
        {
          "indexed": false,
          "internalType": "address",
          "name": "account",
          "type": "address"
        }
      ],
      "name": "Paused",
      "type": "event"
    },
    {
      "anonymous": false,
      "inputs": [
        {
          "indexed": true,
          "internalType": "bytes32",
          "name": "role",
          "type": "bytes32"
        },
        {
          "indexed": true,
          "internalType": "bytes32",
          "name": "previousAdminRole",
          "type": "bytes32"
        },
        {
          "indexed": true,
          "internalType": "bytes32",
          "name": "newAdminRole",
          "type": "bytes32"
        }
      ],
      "name": "RoleAdminChanged",
      "type": "event"
    },
    {
      "anonymous": false,
      "inputs": [
        {
          "indexed": true,
          "internalType": "bytes32",
          "name": "role",
          "type": "bytes32"
        },
        {
          "indexed": true,
          "internalType": "address",
          "name": "account",
          "type": "address"
        },
        {
          "indexed": true,
          "internalType": "address",
          "name": "sender",
          "type": "address"
        }
      ],
      "name": "RoleGranted",
      "type": "event"
    },
    {
      "anonymous": false,
      "inputs": [
        {
          "indexed": true,
          "internalType": "bytes32",
          "name": "role",
          "type": "bytes32"
        },
        {
          "indexed": true,
          "internalType": "address",
          "name": "account",
          "type": "address"
        },
        {
          "indexed": true,
          "internalType": "address",
          "name": "sender",
          "type": "address"
        }
      ],
      "name": "RoleRevoked",
      "type": "event"
    },
    {
      "anonymous": false,
      "inputs": [
        {
          "indexed": true,
          "internalType": "address",
          "name": "from",
          "type": "address"
        },
        {
          "indexed": true,
          "internalType": "address",
          "name": "to",
          "type": "address"
        },
        {
          "indexed": false,
          "internalType": "uint256",
          "name": "value",
          "type": "uint256"
        }
      ],
      "name": "Transfer",
      "type": "event"
    },
    {
      "anonymous": false,
      "inputs": [
        {
          "indexed": false,
          "internalType": "address",
          "name": "account",
          "type": "address"
        }
      ],
      "name": "Unpaused",
      "type": "event"
    },
    {
      "inputs": [],
      "name": "DEFAULT_ADMIN_ROLE",
      "outputs": [
        {
          "internalType": "bytes32",
          "name": "",
          "type": "bytes32"
        }
      ],
      "stateMutability": "view",
      "type": "function"
    },
    {
      "inputs": [],
      "name": "MINTER_ROLE",
      "outputs": [
        {
          "internalType": "bytes32",
          "name": "",
          "type": "bytes32"
        }
      ],
      "stateMutability": "view",
      "type": "function"
    },
    {
      "inputs": [],
      "name": "PAUSER_ROLE",
      "outputs": [
        {
          "internalType": "bytes32",
          "name": "",
          "type": "bytes32"
        }
      ],
      "stateMutability": "view",
      "type": "function"
    },
    {
      "inputs": [
        {
          "internalType": "address",
          "name": "owner",
          "type": "address"
        },
        {
          "internalType": "address",
          "name": "spender",
          "type": "address"
        }
      ],
      "name": "allowance",
      "outputs": [
        {
          "internalType": "uint256",
          "name": "",
          "type": "uint256"
        }
      ],
      "stateMutability": "view",
      "type": "function"
    },
    {
      "inputs": [
        {
          "internalType": "address",
          "name": "spender",
          "type": "address"
        },
        {
          "internalType": "uint256",
          "name": "amount",
          "type": "uint256"
        }
      ],
      "name": "approve",
      "outputs": [
        {
          "internalType": "bool",
          "name": "",
          "type": "bool"
        }
      ],
      "stateMutability": "nonpayable",
      "type": "function"
    },
    {
      "inputs": [
        {
          "internalType": "address",
          "name": "account",
          "type": "address"
        }
      ],
      "name": "balanceOf",
      "outputs": [
        {
          "internalType": "uint256",
          "name": "",
          "type": "uint256"
        }
      ],
      "stateMutability": "view",
      "type": "function"
    },
    {
      "inputs": [],
      "name": "decimals",
      "outputs": [
        {
          "internalType": "uint8",
          "name": "",
          "type": "uint8"
        }
      ],
      "stateMutability": "view",
      "type": "function"
    },
    {
      "inputs": [
        {
          "internalType": "address",
          "name": "spender",
          "type": "address"
        },
        {
          "internalType": "uint256",
          "name": "subtractedValue",
          "type": "uint256"
        }
      ],
      "name": "decreaseAllowance",
      "outputs": [
        {
          "internalType": "bool",
          "name": "",
          "type": "bool"
        }
      ],
      "stateMutability": "nonpayable",
      "type": "function"
    },
    {
      "inputs": [
        {
          "internalType": "bytes32",
          "name": "role",
          "type": "bytes32"
        }
      ],
      "name": "getRoleAdmin",
      "outputs": [
        {
          "internalType": "bytes32",
          "name": "",
          "type": "bytes32"
        }
      ],
      "stateMutability": "view",
      "type": "function"
    },
    {
      "inputs": [
        {
          "internalType": "bytes32",
          "name": "role",
          "type": "bytes32"
        },
        {
          "internalType": "address",
          "name": "account",
          "type": "address"
        }
      ],
      "name": "grantRole",
      "outputs": [],
      "stateMutability": "nonpayable",
      "type": "function"
    },
    {
      "inputs": [
        {
          "internalType": "bytes32",
          "name": "role",
          "type": "bytes32"
        },
        {
          "internalType": "address",
          "name": "account",
          "type": "address"
        }
      ],
      "name": "hasRole",
      "outputs": [
        {
          "internalType": "bool",
          "name": "",
          "type": "bool"
        }
      ],
      "stateMutability": "view",
      "type": "function"
    },
    {
      "inputs": [
        {
          "internalType": "address",
          "name": "spender",
          "type": "address"
        },
        {
          "internalType": "uint256",
          "name": "addedValue",
          "type": "uint256"
        }
      ],
      "name": "increaseAllowance",
      "outputs": [
        {
          "internalType": "bool",
          "name": "",
          "type": "bool"
        }
      ],
      "stateMutability": "nonpayable",
      "type": "function"
    },
    {
      "inputs": [
        {
          "internalType": "address",
          "name": "to",
          "type": "address"
        },
        {
          "internalType": "uint256",
          "name": "amount",
          "type": "uint256"
        }
      ],
      "name": "mintCoins",
      "outputs": [],
      "stateMutability": "nonpayable",
      "type": "function"
    },
    {
      "inputs": [],
      "name": "name",
      "outputs": [
        {
          "internalType": "string",
          "name": "",
          "type": "string"
        }
      ],
      "stateMutability": "view",
      "type": "function"
    },
    {
      "inputs": [],
      "name": "pause",
      "outputs": [],
      "stateMutability": "nonpayable",
      "type": "function"
    },
    {
      "inputs": [],
      "name": "paused",
      "outputs": [
        {
          "internalType": "bool",
          "name": "",
          "type": "bool"
        }
      ],
      "stateMutability": "view",
      "type": "function"
    },
    {
      "inputs": [
        {
          "internalType": "bytes32",
          "name": "role",
          "type": "bytes32"
        },
        {
          "internalType": "address",
          "name": "account",
          "type": "address"
        }
      ],
      "name": "renounceRole",
      "outputs": [],
      "stateMutability": "nonpayable",
      "type": "function"
    },
    {
      "inputs": [
        {
          "internalType": "bytes32",
          "name": "role",
          "type": "bytes32"
        },
        {
          "internalType": "address",
          "name": "account",
          "type": "address"
        }
      ],
      "name": "revokeRole",
      "outputs": [],
      "stateMutability": "nonpayable",
      "type": "function"
    },
    {
      "inputs": [
        {
          "internalType": "bytes4",
          "name": "interfaceId",
          "type": "bytes4"
        }
      ],
      "name": "supportsInterface",
      "outputs": [
        {
          "internalType": "bool",
          "name": "",
          "type": "bool"
        }
      ],
      "stateMutability": "view",
      "type": "function"
    },
    {
      "inputs": [],
      "name": "symbol",
      "outputs": [
        {
          "internalType": "string",
          "name": "",
          "type": "string"
        }
      ],
      "stateMutability": "view",
      "type": "function"
    },
    {
      "inputs": [
        {
          "internalType": "address",
          "name": "to",
          "type": "address"
        }
      ],
      "name": "testMint",
      "outputs": [],
      "stateMutability": "nonpayable",
      "type": "function"
    },
    {
      "inputs": [],
      "name": "totalSupply",
      "outputs": [
        {
          "internalType": "uint256",
          "name": "",
          "type": "uint256"
        }
      ],
      "stateMutability": "view",
      "type": "function"
    },
    {
      "inputs": [
        {
          "internalType": "address",
          "name": "recipient",
          "type": "address"
        },
        {
          "internalType": "uint256",
          "name": "amount",
          "type": "uint256"
        }
      ],
      "name": "transfer",
      "outputs": [
        {
          "internalType": "bool",
          "name": "",
          "type": "bool"
        }
      ],
      "stateMutability": "nonpayable",
      "type": "function"
    },
    {
      "inputs": [
        {
          "internalType": "address",
          "name": "sender",
          "type": "address"
        },
        {
          "internalType": "address",
          "name": "recipient",
          "type": "address"
        },
        {
          "internalType": "uint256",
          "name": "amount",
          "type": "uint256"
        }
      ],
      "name": "transferFrom",
      "outputs": [
        {
          "internalType": "bool",
          "name": "",
          "type": "bool"
        }
      ],
      "stateMutability": "nonpayable",
      "type": "function"
    },
    {
      "inputs": [],
      "name": "unpause",
      "outputs": [],
      "stateMutability": "nonpayable",
      "type": "function"
    }
  ],
  "bytecode": "0x60806040523480156200001157600080fd5b506040516200316f3803806200316f83398181016040528101906200003791906200061c565b6040518060400160405280600481526020017f55534443000000000000000000000000000000000000000000000000000000008152506040518060400160405280600481526020017f55534443000000000000000000000000000000000000000000000000000000008152508160039080519060200190620000bb9291906200053e565b508060049080519060200190620000d49291906200053e565b5050506000600560006101000a81548160ff021916908315150217905550620001076000801b33620001b060201b60201c565b620001397f65d7a28e3265b37a6474929f336521b332c1681b933f6cb9f3376673440d862a83620001b060201b60201c565b6200016b7f9f2df0fed2c77648de5860a4cc508cd0818c85b8b8a1ab4ceeef8d981c8956a682620001b060201b60201c565b620001a73362000180620001c660201b60201c565b600a6200018e919062000831565b856200019b91906200096e565b620001cf60201b60201c565b50505062000aef565b620001c282826200034860201b60201c565b5050565b60006006905090565b600073ffffffffffffffffffffffffffffffffffffffff168273ffffffffffffffffffffffffffffffffffffffff16141562000242576040517f08c379a0000000000000000000000000000000000000000000000000000000008152600401620002399062000729565b60405180910390fd5b62000256600083836200043a60201b60201c565b80600260008282546200026a919062000779565b92505081905550806000808473ffffffffffffffffffffffffffffffffffffffff1673ffffffffffffffffffffffffffffffffffffffff1681526020019081526020016000206000828254620002c1919062000779565b925050819055508173ffffffffffffffffffffffffffffffffffffffff16600073ffffffffffffffffffffffffffffffffffffffff167fddf252ad1be2c89b69c2b068fc378daa952ba7f163c4a11628f55a4df523b3ef836040516200032891906200074b565b60405180910390a36200034460008383620004aa60201b60201c565b5050565b6200035a8282620004af60201b60201c565b620004365760016006600084815260200190815260200160002060000160008373ffffffffffffffffffffffffffffffffffffffff1673ffffffffffffffffffffffffffffffffffffffff16815260200190815260200160002060006101000a81548160ff021916908315150217905550620003db6200051a60201b60201c565b73ffffffffffffffffffffffffffffffffffffffff168173ffffffffffffffffffffffffffffffffffffffff16837f2f8788117e7eff1d82e926ec794901d17c78024a50270940304540a733656f0d60405160405180910390a45b5050565b6200044a6200052260201b60201c565b156200048d576040517f08c379a0000000000000000000000000000000000000000000000000000000008152600401620004849062000707565b60405180910390fd5b620004a58383836200053960201b62000cc51760201c565b505050565b505050565b60006006600084815260200190815260200160002060000160008373ffffffffffffffffffffffffffffffffffffffff1673ffffffffffffffffffffffffffffffffffffffff16815260200190815260200160002060009054906101000a900460ff16905092915050565b600033905090565b6000600560009054906101000a900460ff16905090565b505050565b8280546200054c9062000a1a565b90600052602060002090601f016020900481019282620005705760008555620005bc565b82601f106200058b57805160ff1916838001178555620005bc565b82800160010185558215620005bc579182015b82811115620005bb5782518255916020019190600101906200059e565b5b509050620005cb9190620005cf565b5090565b5b80821115620005ea576000816000905550600101620005d0565b5090565b600081519050620005ff8162000abb565b92915050565b600081519050620006168162000ad5565b92915050565b6000806000606084860312156200063257600080fd5b6000620006428682870162000605565b93505060206200065586828701620005ee565b92505060406200066886828701620005ee565b9150509250925092565b60006200068160108362000768565b91507f5061757361626c653a20706175736564000000000000000000000000000000006000830152602082019050919050565b6000620006c3601f8362000768565b91507f45524332303a206d696e7420746f20746865207a65726f2061646472657373006000830152602082019050919050565b620007018162000a03565b82525050565b60006020820190508181036000830152620007228162000672565b9050919050565b600060208201905081810360008301526200074481620006b4565b9050919050565b6000602082019050620007626000830184620006f6565b92915050565b600082825260208201905092915050565b6000620007868262000a03565b9150620007938362000a03565b9250827fffffffffffffffffffffffffffffffffffffffffffffffffffffffffffffffff03821115620007cb57620007ca62000a50565b5b828201905092915050565b6000808291508390505b600185111562000828578086048111156200080057620007ff62000a50565b5b6001851615620008105780820291505b8081029050620008208562000aae565b9450620007e0565b94509492505050565b60006200083e8262000a03565b91506200084b8362000a0d565b92506200087a7fffffffffffffffffffffffffffffffffffffffffffffffffffffffffffffffff848462000882565b905092915050565b60008262000894576001905062000967565b81620008a4576000905062000967565b8160018114620008bd5760028114620008c857620008fe565b600191505062000967565b60ff841115620008dd57620008dc62000a50565b5b8360020a915084821115620008f757620008f662000a50565b5b5062000967565b5060208310610133831016604e8410600b8410161715620009385782820a90508381111562000932576200093162000a50565b5b62000967565b620009478484846001620007d6565b9250905081840481111562000961576200096062000a50565b5b81810290505b9392505050565b60006200097b8262000a03565b9150620009888362000a03565b9250817fffffffffffffffffffffffffffffffffffffffffffffffffffffffffffffffff0483118215151615620009c457620009c362000a50565b5b828202905092915050565b6000620009dc82620009e3565b9050919050565b600073ffffffffffffffffffffffffffffffffffffffff82169050919050565b6000819050919050565b600060ff82169050919050565b6000600282049050600182168062000a3357607f821691505b6020821081141562000a4a5762000a4962000a7f565b5b50919050565b7f4e487b7100000000000000000000000000000000000000000000000000000000600052601160045260246000fd5b7f4e487b7100000000000000000000000000000000000000000000000000000000600052602260045260246000fd5b60008160011c9050919050565b62000ac681620009cf565b811462000ad257600080fd5b50565b62000ae08162000a03565b811462000aec57600080fd5b50565b6126708062000aff6000396000f3fe608060405234801561001057600080fd5b50600436106101735760003560e01c806370a08231116100de578063a9059cbb11610097578063d539139311610071578063d539139314610460578063d547741f1461047e578063dd62ed3e1461049a578063e63ab1e9146104ca57610173565b8063a9059cbb146103f8578063b7fde9da14610428578063c70c875a1461044457610173565b806370a08231146103225780638456cb591461035257806391d148541461035c57806395d89b411461038c578063a217fddf146103aa578063a457c2d7146103c857610173565b80632f2ff15d116101305780632f2ff15d14610274578063313ce5671461029057806336568abe146102ae57806339509351146102ca5780633f4ba83a146102fa5780635c975abb1461030457610173565b806301ffc9a71461017857806306fdde03146101a8578063095ea7b3146101c657806318160ddd146101f657806323b872dd14610214578063248a9ca314610244575b600080fd5b610192600480360381019061018d9190611b8d565b6104e8565b60405161019f9190612170565b60405180910390f35b6101b0610562565b6040516101bd91906121a6565b60405180910390f35b6101e060048036038101906101db9190611aec565b6105f4565b6040516101ed9190612170565b60405180910390f35b6101fe610612565b60405161020b9190612348565b60405180910390f35b61022e60048036038101906102299190611a9d565b61061c565b60405161023b9190612170565b60405180910390f35b61025e60048036038101906102599190611b28565b610714565b60405161026b919061218b565b60405180910390f35b61028e60048036038101906102899190611b51565b610734565b005b61029861075d565b6040516102a59190612363565b60405180910390f35b6102c860048036038101906102c39190611b51565b610766565b005b6102e460048036038101906102df9190611aec565b6107e9565b6040516102f19190612170565b60405180910390f35b610302610895565b005b61030c6108d2565b6040516103199190612170565b60405180910390f35b61033c60048036038101906103379190611a38565b6108e9565b6040516103499190612348565b60405180910390f35b61035a610931565b005b61037660048036038101906103719190611b51565b61096e565b6040516103839190612170565b60405180910390f35b6103946109d9565b6040516103a191906121a6565b60405180910390f35b6103b2610a6b565b6040516103bf919061218b565b60405180910390f35b6103e260048036038101906103dd9190611aec565b610a72565b6040516103ef9190612170565b60405180910390f35b610412600480360381019061040d9190611aec565b610b5d565b60405161041f9190612170565b60405180910390f35b610442600480360381019061043d9190611aec565b610b7b565b005b61045e60048036038101906104599190611a38565b610bbc565b005b610468610bcd565b604051610475919061218b565b60405180910390f35b61049860048036038101906104939190611b51565b610bf1565b005b6104b460048036038101906104af9190611a61565b610c1a565b6040516104c19190612348565b60405180910390f35b6104d2610ca1565b6040516104df919061218b565b60405180910390f35b60007f7965db0b000000000000000000000000000000000000000000000000000000007bffffffffffffffffffffffffffffffffffffffffffffffffffffffff1916827bffffffffffffffffffffffffffffffffffffffffffffffffffffffff1916148061055b575061055a82610cca565b5b9050919050565b6060600380546105719061253d565b80601f016020809104026020016040519081016040528092919081815260200182805461059d9061253d565b80156105ea5780601f106105bf576101008083540402835291602001916105ea565b820191906000526020600020905b8154815290600101906020018083116105cd57829003601f168201915b5050505050905090565b6000610608610601610d34565b8484610d3c565b6001905092915050565b6000600254905090565b6000610629848484610f07565b6000600160008673ffffffffffffffffffffffffffffffffffffffff1673ffffffffffffffffffffffffffffffffffffffff1681526020019081526020016000206000610674610d34565b73ffffffffffffffffffffffffffffffffffffffff1673ffffffffffffffffffffffffffffffffffffffff168152602001908152602001600020549050828110156106f4576040517f08c379a00000000000000000000000000000000000000000000000000000000081526004016106eb90612288565b60405180910390fd5b61070885610700610d34565b858403610d3c565b60019150509392505050565b600060066000838152602001908152602001600020600101549050919050565b61073d82610714565b61074e81610749610d34565b611188565b6107588383611225565b505050565b60006006905090565b61076e610d34565b73ffffffffffffffffffffffffffffffffffffffff168173ffffffffffffffffffffffffffffffffffffffff16146107db576040517f08c379a00000000000000000000000000000000000000000000000000000000081526004016107d290612308565b60405180910390fd5b6107e58282611306565b5050565b600061088b6107f6610d34565b848460016000610804610d34565b73ffffffffffffffffffffffffffffffffffffffff1673ffffffffffffffffffffffffffffffffffffffff16815260200190815260200160002060008873ffffffffffffffffffffffffffffffffffffffff1673ffffffffffffffffffffffffffffffffffffffff1681526020019081526020016000205461088691906123a5565b610d3c565b6001905092915050565b7f65d7a28e3265b37a6474929f336521b332c1681b933f6cb9f3376673440d862a6108c7816108c2610d34565b611188565b6108cf6113e8565b50565b6000600560009054906101000a900460ff16905090565b60008060008373ffffffffffffffffffffffffffffffffffffffff1673ffffffffffffffffffffffffffffffffffffffff168152602001908152602001600020549050919050565b7f65d7a28e3265b37a6474929f336521b332c1681b933f6cb9f3376673440d862a6109638161095e610d34565b611188565b61096b61148a565b50565b60006006600084815260200190815260200160002060000160008373ffffffffffffffffffffffffffffffffffffffff1673ffffffffffffffffffffffffffffffffffffffff16815260200190815260200160002060009054906101000a900460ff16905092915050565b6060600480546109e89061253d565b80601f0160208091040260200160405190810160405280929190818152602001828054610a149061253d565b8015610a615780601f10610a3657610100808354040283529160200191610a61565b820191906000526020600020905b815481529060010190602001808311610a4457829003601f168201915b5050505050905090565b6000801b81565b60008060016000610a81610d34565b73ffffffffffffffffffffffffffffffffffffffff1673ffffffffffffffffffffffffffffffffffffffff16815260200190815260200160002060008573ffffffffffffffffffffffffffffffffffffffff1673ffffffffffffffffffffffffffffffffffffffff16815260200190815260200160002054905082811015610b3e576040517f08c379a0000000000000000000000000000000000000000000000000000000008152600401610b35906122e8565b60405180910390fd5b610b52610b49610d34565b85858403610d3c565b600191505092915050565b6000610b71610b6a610d34565b8484610f07565b6001905092915050565b7f9f2df0fed2c77648de5860a4cc508cd0818c85b8b8a1ab4ceeef8d981c8956a6610bad81610ba8610d34565b611188565b610bb7838361152d565b505050565b610bca81633b9aca0061152d565b50565b7f9f2df0fed2c77648de5860a4cc508cd0818c85b8b8a1ab4ceeef8d981c8956a681565b610bfa82610714565b610c0b81610c06610d34565b611188565b610c158383611306565b505050565b6000600160008473ffffffffffffffffffffffffffffffffffffffff1673ffffffffffffffffffffffffffffffffffffffff16815260200190815260200160002060008373ffffffffffffffffffffffffffffffffffffffff1673ffffffffffffffffffffffffffffffffffffffff16815260200190815260200160002054905092915050565b7f65d7a28e3265b37a6474929f336521b332c1681b933f6cb9f3376673440d862a81565b505050565b60007f01ffc9a7000000000000000000000000000000000000000000000000000000007bffffffffffffffffffffffffffffffffffffffffffffffffffffffff1916827bffffffffffffffffffffffffffffffffffffffffffffffffffffffff1916149050919050565b600033905090565b600073ffffffffffffffffffffffffffffffffffffffff168373ffffffffffffffffffffffffffffffffffffffff161415610dac576040517f08c379a0000000000000000000000000000000000000000000000000000000008152600401610da3906122c8565b60405180910390fd5b600073ffffffffffffffffffffffffffffffffffffffff168273ffffffffffffffffffffffffffffffffffffffff161415610e1c576040517f08c379a0000000000000000000000000000000000000000000000000000000008152600401610e1390612228565b60405180910390fd5b80600160008573ffffffffffffffffffffffffffffffffffffffff1673ffffffffffffffffffffffffffffffffffffffff16815260200190815260200160002060008473ffffffffffffffffffffffffffffffffffffffff1673ffffffffffffffffffffffffffffffffffffffff168152602001908152602001600020819055508173ffffffffffffffffffffffffffffffffffffffff168373ffffffffffffffffffffffffffffffffffffffff167f8c5be1e5ebec7d5bd14f71427d1e84f3dd0314c0f7b2291e5b200ac8c7c3b92583604051610efa9190612348565b60405180910390a3505050565b600073ffffffffffffffffffffffffffffffffffffffff168373ffffffffffffffffffffffffffffffffffffffff161415610f77576040517f08c379a0000000000000000000000000000000000000000000000000000000008152600401610f6e906122a8565b60405180910390fd5b600073ffffffffffffffffffffffffffffffffffffffff168273ffffffffffffffffffffffffffffffffffffffff161415610fe7576040517f08c379a0000000000000000000000000000000000000000000000000000000008152600401610fde906121e8565b60405180910390fd5b610ff283838361168d565b60008060008573ffffffffffffffffffffffffffffffffffffffff1673ffffffffffffffffffffffffffffffffffffffff16815260200190815260200160002054905081811015611078576040517f08c379a000000000000000000000000000000000000000000000000000000000815260040161106f90612248565b60405180910390fd5b8181036000808673ffffffffffffffffffffffffffffffffffffffff1673ffffffffffffffffffffffffffffffffffffffff16815260200190815260200160002081905550816000808573ffffffffffffffffffffffffffffffffffffffff1673ffffffffffffffffffffffffffffffffffffffff168152602001908152602001600020600082825461110b91906123a5565b925050819055508273ffffffffffffffffffffffffffffffffffffffff168473ffffffffffffffffffffffffffffffffffffffff167fddf252ad1be2c89b69c2b068fc378daa952ba7f163c4a11628f55a4df523b3ef8460405161116f9190612348565b60405180910390a36111828484846116e5565b50505050565b611192828261096e565b611221576111b78173ffffffffffffffffffffffffffffffffffffffff1660146116ea565b6111c58360001c60206116ea565b6040516020016111d692919061211b565b6040516020818303038152906040526040517f08c379a000000000000000000000000000000000000000000000000000000000815260040161121891906121a6565b60405180910390fd5b5050565b61122f828261096e565b6113025760016006600084815260200190815260200160002060000160008373ffffffffffffffffffffffffffffffffffffffff1673ffffffffffffffffffffffffffffffffffffffff16815260200190815260200160002060006101000a81548160ff0219169083151502179055506112a7610d34565b73ffffffffffffffffffffffffffffffffffffffff168173ffffffffffffffffffffffffffffffffffffffff16837f2f8788117e7eff1d82e926ec794901d17c78024a50270940304540a733656f0d60405160405180910390a45b5050565b611310828261096e565b156113e45760006006600084815260200190815260200160002060000160008373ffffffffffffffffffffffffffffffffffffffff1673ffffffffffffffffffffffffffffffffffffffff16815260200190815260200160002060006101000a81548160ff021916908315150217905550611389610d34565b73ffffffffffffffffffffffffffffffffffffffff168173ffffffffffffffffffffffffffffffffffffffff16837ff6391f5c32d9c69d2a47ea670b442974b53935d1edc7fd64eb21e047a839171b60405160405180910390a45b5050565b6113f06108d2565b61142f576040517f08c379a000000000000000000000000000000000000000000000000000000000815260040161142690612208565b60405180910390fd5b6000600560006101000a81548160ff0219169083151502179055507f5db9ee0a495bf2e6ff9c91a7834c1ba4fdd244a5e8aa4e537bd38aeae4b073aa611473610d34565b6040516114809190612155565b60405180910390a1565b6114926108d2565b156114d2576040517f08c379a00000000000000000000000000000000000000000000000000000000081526004016114c990612268565b60405180910390fd5b6001600560006101000a81548160ff0219169083151502179055507f62e78cea01bee320cd4e420270b5ea74000d11b0c9f74754ebdbfc544b05a258611516610d34565b6040516115239190612155565b60405180910390a1565b600073ffffffffffffffffffffffffffffffffffffffff168273ffffffffffffffffffffffffffffffffffffffff16141561159d576040517f08c379a000000000000000000000000000000000000000000000000000000000815260040161159490612328565b60405180910390fd5b6115a96000838361168d565b80600260008282546115bb91906123a5565b92505081905550806000808473ffffffffffffffffffffffffffffffffffffffff1673ffffffffffffffffffffffffffffffffffffffff168152602001908152602001600020600082825461161091906123a5565b925050819055508173ffffffffffffffffffffffffffffffffffffffff16600073ffffffffffffffffffffffffffffffffffffffff167fddf252ad1be2c89b69c2b068fc378daa952ba7f163c4a11628f55a4df523b3ef836040516116759190612348565b60405180910390a3611689600083836116e5565b5050565b6116956108d2565b156116d5576040517f08c379a00000000000000000000000000000000000000000000000000000000081526004016116cc90612268565b60405180910390fd5b6116e0838383610cc5565b505050565b505050565b6060600060028360026116fd91906123fb565b61170791906123a5565b67ffffffffffffffff811115611746577f4e487b7100000000000000000000000000000000000000000000000000000000600052604160045260246000fd5b6040519080825280601f01601f1916602001820160405280156117785781602001600182028036833780820191505090505b5090507f3000000000000000000000000000000000000000000000000000000000000000816000815181106117d6577f4e487b7100000000000000000000000000000000000000000000000000000000600052603260045260246000fd5b60200101907effffffffffffffffffffffffffffffffffffffffffffffffffffffffffffff1916908160001a9053507f780000000000000000000000000000000000000000000000000000000000000081600181518110611860577f4e487b7100000000000000000000000000000000000000000000000000000000600052603260045260246000fd5b60200101907effffffffffffffffffffffffffffffffffffffffffffffffffffffffffffff1916908160001a905350600060018460026118a091906123fb565b6118aa91906123a5565b90505b6001811115611996577f3031323334353637383961626364656600000000000000000000000000000000600f861660108110611912577f4e487b7100000000000000000000000000000000000000000000000000000000600052603260045260246000fd5b1a60f81b82828151811061194f577f4e487b7100000000000000000000000000000000000000000000000000000000600052603260045260246000fd5b60200101907effffffffffffffffffffffffffffffffffffffffffffffffffffffffffffff1916908160001a905350600485901c94508061198f90612513565b90506118ad565b50600084146119da576040517f08c379a00000000000000000000000000000000000000000000000000000000081526004016119d1906121c8565b60405180910390fd5b8091505092915050565b6000813590506119f3816125de565b92915050565b600081359050611a08816125f5565b92915050565b600081359050611a1d8161260c565b92915050565b600081359050611a3281612623565b92915050565b600060208284031215611a4a57600080fd5b6000611a58848285016119e4565b91505092915050565b60008060408385031215611a7457600080fd5b6000611a82858286016119e4565b9250506020611a93858286016119e4565b9150509250929050565b600080600060608486031215611ab257600080fd5b6000611ac0868287016119e4565b9350506020611ad1868287016119e4565b9250506040611ae286828701611a23565b9150509250925092565b60008060408385031215611aff57600080fd5b6000611b0d858286016119e4565b9250506020611b1e85828601611a23565b9150509250929050565b600060208284031215611b3a57600080fd5b6000611b48848285016119f9565b91505092915050565b60008060408385031215611b6457600080fd5b6000611b72858286016119f9565b9250506020611b83858286016119e4565b9150509250929050565b600060208284031215611b9f57600080fd5b6000611bad84828501611a0e565b91505092915050565b611bbf81612455565b82525050565b611bce81612467565b82525050565b611bdd81612473565b82525050565b6000611bee8261237e565b611bf88185612389565b9350611c088185602086016124e0565b611c11816125cd565b840191505092915050565b6000611c278261237e565b611c31818561239a565b9350611c418185602086016124e0565b80840191505092915050565b6000611c5a602083612389565b91507f537472696e67733a20686578206c656e67746820696e73756666696369656e746000830152602082019050919050565b6000611c9a602383612389565b91507f45524332303a207472616e7366657220746f20746865207a65726f206164647260008301527f65737300000000000000000000000000000000000000000000000000000000006020830152604082019050919050565b6000611d00601483612389565b91507f5061757361626c653a206e6f74207061757365640000000000000000000000006000830152602082019050919050565b6000611d40602283612389565b91507f45524332303a20617070726f766520746f20746865207a65726f20616464726560008301527f73730000000000000000000000000000000000000000000000000000000000006020830152604082019050919050565b6000611da6602683612389565b91507f45524332303a207472616e7366657220616d6f756e742065786365656473206260008301527f616c616e636500000000000000000000000000000000000000000000000000006020830152604082019050919050565b6000611e0c601083612389565b91507f5061757361626c653a20706175736564000000000000000000000000000000006000830152602082019050919050565b6000611e4c602883612389565b91507f45524332303a207472616e7366657220616d6f756e742065786365656473206160008301527f6c6c6f77616e63650000000000000000000000000000000000000000000000006020830152604082019050919050565b6000611eb2602583612389565b91507f45524332303a207472616e736665722066726f6d20746865207a65726f20616460008301527f64726573730000000000000000000000000000000000000000000000000000006020830152604082019050919050565b6000611f18602483612389565b91507f45524332303a20617070726f76652066726f6d20746865207a65726f2061646460008301527f72657373000000000000000000000000000000000000000000000000000000006020830152604082019050919050565b6000611f7e60178361239a565b91507f416363657373436f6e74726f6c3a206163636f756e74200000000000000000006000830152601782019050919050565b6000611fbe602583612389565b91507f45524332303a2064656372656173656420616c6c6f77616e63652062656c6f7760008301527f207a65726f0000000000000000000000000000000000000000000000000000006020830152604082019050919050565b600061202460118361239a565b91507f206973206d697373696e6720726f6c65200000000000000000000000000000006000830152601182019050919050565b6000612064602f83612389565b91507f416363657373436f6e74726f6c3a2063616e206f6e6c792072656e6f756e636560008301527f20726f6c657320666f722073656c6600000000000000000000000000000000006020830152604082019050919050565b60006120ca601f83612389565b91507f45524332303a206d696e7420746f20746865207a65726f2061646472657373006000830152602082019050919050565b612106816124c9565b82525050565b612115816124d3565b82525050565b600061212682611f71565b91506121328285611c1c565b915061213d82612017565b91506121498284611c1c565b91508190509392505050565b600060208201905061216a6000830184611bb6565b92915050565b60006020820190506121856000830184611bc5565b92915050565b60006020820190506121a06000830184611bd4565b92915050565b600060208201905081810360008301526121c08184611be3565b905092915050565b600060208201905081810360008301526121e181611c4d565b9050919050565b6000602082019050818103600083015261220181611c8d565b9050919050565b6000602082019050818103600083015261222181611cf3565b9050919050565b6000602082019050818103600083015261224181611d33565b9050919050565b6000602082019050818103600083015261226181611d99565b9050919050565b6000602082019050818103600083015261228181611dff565b9050919050565b600060208201905081810360008301526122a181611e3f565b9050919050565b600060208201905081810360008301526122c181611ea5565b9050919050565b600060208201905081810360008301526122e181611f0b565b9050919050565b6000602082019050818103600083015261230181611fb1565b9050919050565b6000602082019050818103600083015261232181612057565b9050919050565b60006020820190508181036000830152612341816120bd565b9050919050565b600060208201905061235d60008301846120fd565b92915050565b6000602082019050612378600083018461210c565b92915050565b600081519050919050565b600082825260208201905092915050565b600081905092915050565b60006123b0826124c9565b91506123bb836124c9565b9250827fffffffffffffffffffffffffffffffffffffffffffffffffffffffffffffffff038211156123f0576123ef61256f565b5b828201905092915050565b6000612406826124c9565b9150612411836124c9565b9250817fffffffffffffffffffffffffffffffffffffffffffffffffffffffffffffffff048311821515161561244a5761244961256f565b5b828202905092915050565b6000612460826124a9565b9050919050565b60008115159050919050565b6000819050919050565b60007fffffffff0000000000000000000000000000000000000000000000000000000082169050919050565b600073ffffffffffffffffffffffffffffffffffffffff82169050919050565b6000819050919050565b600060ff82169050919050565b60005b838110156124fe5780820151818401526020810190506124e3565b8381111561250d576000848401525b50505050565b600061251e826124c9565b915060008214156125325761253161256f565b5b600182039050919050565b6000600282049050600182168061255557607f821691505b602082108114156125695761256861259e565b5b50919050565b7f4e487b7100000000000000000000000000000000000000000000000000000000600052601160045260246000fd5b7f4e487b7100000000000000000000000000000000000000000000000000000000600052602260045260246000fd5b6000601f19601f8301169050919050565b6125e781612455565b81146125f257600080fd5b50565b6125fe81612473565b811461260957600080fd5b50565b6126158161247d565b811461262057600080fd5b50565b61262c816124c9565b811461263757600080fd5b5056fea2646970667358221220888966527a4290130cb7ae803250b581cb64b9fccf53902dae0e4750c86b71f264736f6c63430008000033",
  "linkReferences": {},
  "deployedLinkReferences": {}
}