{
  "_format": "hh-sol-artifact-1",
  "contractName": "USDC",
  "sourceName": "contracts/USDC.sol",
  "abi": [
    {
      "inputs": [
        {
          "internalType": "uint256",
          "name": "initialSupply",
          "type": "uint256"
        }
      ],
      "stateMutability": "nonpayable",
      "type": "constructor"
    },
    {
      "anonymous": false,
      "inputs": [
        {
          "indexed": true,
          "internalType": "address",
          "name": "_owner",
          "type": "address"
        },
        {
          "indexed": true,
          "internalType": "address",
          "name": "_spender",
          "type": "address"
        },
        {
          "indexed": false,
          "internalType": "uint256",
          "name": "_value",
          "type": "uint256"
        }
      ],
      "name": "Approval",
      "type": "event"
    },
    {
      "anonymous": false,
      "inputs": [
        {
          "indexed": false,
          "internalType": "address",
          "name": "",
          "type": "address"
        }
      ],
      "name": "OwnerChanged",
      "type": "event"
    },
    {
      "anonymous": false,
      "inputs": [
        {
          "indexed": true,
          "internalType": "address",
          "name": "_from",
          "type": "address"
        },
        {
          "indexed": true,
          "internalType": "address",
          "name": "_to",
          "type": "address"
        },
        {
          "indexed": false,
          "internalType": "uint256",
          "name": "_value",
          "type": "uint256"
        }
      ],
      "name": "Transfer",
      "type": "event"
    },
    {
      "inputs": [
        {
          "internalType": "address",
          "name": "",
          "type": "address"
        },
        {
          "internalType": "address",
          "name": "",
          "type": "address"
        }
      ],
      "name": "allowance",
      "outputs": [
        {
          "internalType": "uint256",
          "name": "",
          "type": "uint256"
        }
      ],
      "stateMutability": "view",
      "type": "function"
    },
    {
      "inputs": [
        {
          "internalType": "address",
          "name": "spender",
          "type": "address"
        },
        {
          "internalType": "uint256",
          "name": "value",
          "type": "uint256"
        }
      ],
      "name": "approve",
      "outputs": [
        {
          "internalType": "bool",
          "name": "success",
          "type": "bool"
        }
      ],
      "stateMutability": "nonpayable",
      "type": "function"
    },
    {
      "inputs": [
        {
          "internalType": "address",
          "name": "",
          "type": "address"
        }
      ],
      "name": "balanceOf",
      "outputs": [
        {
          "internalType": "uint256",
          "name": "",
          "type": "uint256"
        }
      ],
      "stateMutability": "view",
      "type": "function"
    },
    {
      "inputs": [
        {
          "internalType": "bytes32",
          "name": "c__0x2ea11148",
          "type": "bytes32"
        }
      ],
      "name": "c_0x2ea11148",
      "outputs": [],
      "stateMutability": "pure",
      "type": "function"
    },
    {
      "inputs": [
        {
          "internalType": "bytes32",
          "name": "c__0x6d6b7bef",
          "type": "bytes32"
        }
      ],
      "name": "c_0x6d6b7bef",
      "outputs": [],
      "stateMutability": "pure",
      "type": "function"
    },
    {
      "inputs": [
        {
          "internalType": "bytes32",
          "name": "c__0xbeda7c0c",
          "type": "bytes32"
        }
      ],
      "name": "c_0xbeda7c0c",
      "outputs": [],
      "stateMutability": "pure",
      "type": "function"
    },
    {
      "inputs": [
        {
          "internalType": "bytes32",
          "name": "c__0xd45a8039",
          "type": "bytes32"
        }
      ],
      "name": "c_0xd45a8039",
      "outputs": [],
      "stateMutability": "pure",
      "type": "function"
    },
    {
      "inputs": [
        {
          "internalType": "address",
          "name": "newOwner",
          "type": "address"
        }
      ],
      "name": "changeOwner",
      "outputs": [
        {
          "internalType": "bool",
          "name": "success",
          "type": "bool"
        }
      ],
      "stateMutability": "nonpayable",
      "type": "function"
    },
    {
      "inputs": [],
      "name": "decimals",
      "outputs": [
        {
          "internalType": "uint8",
          "name": "",
          "type": "uint8"
        }
      ],
      "stateMutability": "view",
      "type": "function"
    },
    {
      "inputs": [],
      "name": "isPaused",
      "outputs": [
        {
          "internalType": "bool",
          "name": "",
          "type": "bool"
        }
      ],
      "stateMutability": "view",
      "type": "function"
    },
    {
      "inputs": [
        {
          "internalType": "address",
          "name": "to",
          "type": "address"
        },
        {
          "internalType": "uint256",
          "name": "amount",
          "type": "uint256"
        }
      ],
      "name": "mintCoins",
      "outputs": [
        {
          "internalType": "bool",
          "name": "success",
          "type": "bool"
        }
      ],
      "stateMutability": "nonpayable",
      "type": "function"
    },
    {
      "inputs": [],
      "name": "name",
      "outputs": [
        {
          "internalType": "string",
          "name": "",
          "type": "string"
        }
      ],
      "stateMutability": "view",
      "type": "function"
    },
    {
      "inputs": [],
      "name": "owner",
      "outputs": [
        {
          "internalType": "address",
          "name": "",
          "type": "address"
        }
      ],
      "stateMutability": "view",
      "type": "function"
    },
    {
      "inputs": [],
      "name": "pause",
      "outputs": [],
      "stateMutability": "nonpayable",
      "type": "function"
    },
    {
      "inputs": [],
      "name": "renounceOwnership",
      "outputs": [
        {
          "internalType": "bool",
          "name": "success",
          "type": "bool"
        }
      ],
      "stateMutability": "nonpayable",
      "type": "function"
    },
    {
      "inputs": [],
      "name": "returnOwner",
      "outputs": [
        {
          "internalType": "address",
          "name": "",
          "type": "address"
        }
      ],
      "stateMutability": "view",
      "type": "function"
    },
    {
      "inputs": [],
      "name": "symbol",
      "outputs": [
        {
          "internalType": "string",
          "name": "",
          "type": "string"
        }
      ],
      "stateMutability": "view",
      "type": "function"
    },
    {
      "inputs": [],
      "name": "totalSupply",
      "outputs": [
        {
          "internalType": "uint256",
          "name": "",
          "type": "uint256"
        }
      ],
      "stateMutability": "view",
      "type": "function"
    },
    {
      "inputs": [
        {
          "internalType": "address",
          "name": "to",
          "type": "address"
        },
        {
          "internalType": "uint256",
          "name": "value",
          "type": "uint256"
        }
      ],
      "name": "transfer",
      "outputs": [
        {
          "internalType": "bool",
          "name": "success",
          "type": "bool"
        }
      ],
      "stateMutability": "nonpayable",
      "type": "function"
    },
    {
      "inputs": [
        {
          "internalType": "address",
          "name": "from",
          "type": "address"
        },
        {
          "internalType": "address",
          "name": "to",
          "type": "address"
        },
        {
          "internalType": "uint256",
          "name": "value",
          "type": "uint256"
        }
      ],
      "name": "transferFrom",
      "outputs": [
        {
          "internalType": "bool",
          "name": "success",
          "type": "bool"
        }
      ],
      "stateMutability": "nonpayable",
      "type": "function"
    },
    {
      "inputs": [],
      "name": "unPause",
      "outputs": [],
      "stateMutability": "nonpayable",
      "type": "function"
    }
  ],
  "bytecode": "0x60806040523480156200001157600080fd5b5060405162002a2838038062002a2883398181016040528101906200003791906200024f565b6200006b7f3bb5fad874ad24d8da8884d73d52af775917dcb6821ad1d403953b685db3789f60001b6200023560201b60201c565b6200009f7ff0dcb2fcd7c40d541ee006b5dd2de2a7b348b964b42fbec87f7a4cab92b24ae260001b6200023560201b60201c565b620000d37f3daeb99650b347bbe2f1efd2cc849e2bd1f517f511845b51736fe5e1aee5af2260001b6200023560201b60201c565b806001819055506200010e7fbcce5b2988bc12bc3dd2581ae3b59b6ec2bd60d7489104ae617c7321de29b4a460001b6200023560201b60201c565b620001427f1ca054416d0b14e9a7ce8cc46def3bdb88bc51a55c35227273f777ef253a41c960001b6200023560201b60201c565b80600260003373ffffffffffffffffffffffffffffffffffffffff1673ffffffffffffffffffffffffffffffffffffffff16815260200190815260200160002081905550620001ba7ff3173bb07f053645705a16fd88363cee297caf5d2a03b72933cd7a097ecdd32c60001b6200023560201b60201c565b620001ee7f901fcca82f04acb44bc82ded1dc75073357c8611bee2b0060e7855a4e9c0f4a460001b6200023560201b60201c565b336000806101000a81548173ffffffffffffffffffffffffffffffffffffffff021916908373ffffffffffffffffffffffffffffffffffffffff160217905550506200029f565b50565b600081519050620002498162000285565b92915050565b6000602082840312156200026257600080fd5b6000620002728482850162000238565b91505092915050565b6000819050919050565b62000290816200027b565b81146200029c57600080fd5b50565b61277980620002af6000396000f3fe608060405234801561001057600080fd5b50600436106101375760003560e01c80638456cb59116100b8578063a6f9dae11161007c578063a6f9dae114610318578063a9059cbb14610348578063b187bd2614610378578063b7fde9da14610396578063dd62ed3e146103c6578063f7b188a5146103f657610137565b80638456cb59146102985780638da5cb5b146102a257806394a927fe146102c057806395d89b41146102de578063a1546744146102fc57610137565b80634312dfb3116100ff5780634312dfb3146101f657806350acfe531461021257806357e4b6a21461022e57806370a082311461024a578063715018a61461027a57610137565b806306fdde031461013c578063095ea7b31461015a57806318160ddd1461018a57806323b872dd146101a8578063313ce567146101d8575b600080fd5b610144610400565b604051610151919061248e565b60405180910390f35b610174600480360381019061016f919061223e565b610439565b6040516101819190612473565b60405180910390f35b61019261070c565b60405161019f9190612550565b60405180910390f35b6101c260048036038101906101bd91906121ef565b610712565b6040516101cf9190612473565b60405180910390f35b6101e0610cb1565b6040516101ed919061256b565b60405180910390f35b610210600480360381019061020b919061227a565b610cb6565b005b61022c6004803603810190610227919061227a565b610cb9565b005b6102486004803603810190610243919061227a565b610cbc565b005b610264600480360381019061025f919061218a565b610cbf565b6040516102719190612550565b60405180910390f35b610282610cd7565b60405161028f9190612473565b60405180910390f35b6102a0611041565b005b6102aa611277565b6040516102b79190612458565b60405180910390f35b6102c861129b565b6040516102d59190612458565b60405180910390f35b6102e6611347565b6040516102f3919061248e565b60405180910390f35b6103166004803603810190610311919061227a565b611380565b005b610332600480360381019061032d919061218a565b611383565b60405161033f9190612473565b60405180910390f35b610362600480360381019061035d919061223e565b6117b8565b60405161036f9190612473565b60405180910390f35b610380611c2e565b60405161038d9190612473565b60405180910390f35b6103b060048036038101906103ab919061223e565b611c41565b6040516103bd9190612473565b60405180910390f35b6103e060048036038101906103db91906121b3565b611ef1565b6040516103ed9190612550565b60405180910390f35b6103fe611f16565b005b6040518060400160405280600481526020017f555344430000000000000000000000000000000000000000000000000000000081525081565b60006104677f0ed706c478af62d4d71a2e1b98f4faf1e025a47706c3e27919ad3f84065c59aa60001b611380565b6104937f1c7bd99bde33ad25173f6e51726bad4cbb0e5bffcf7b5355dd4a606b41ab6a5260001b611380565b6104bf7f4afe6dfcd13321606488f84e2e552ce951e59cdac45841404673ad5b6cd38d6a60001b611380565b6104eb7f13cc4d9e1b0cf79b99bfa9d38be6c6c4a27927aa87cfb7fe7ef2bb795b6c2bbf60001b611380565b600060149054906101000a900460ff161561053b576040517f08c379a0000000000000000000000000000000000000000000000000000000008152600401610532906124d0565b60405180910390fd5b6105677f29d5a8aad9f9984762b930a072b5b3ed057683c0074e8807ac3a8059972a956c60001b611380565b6105937f05b0cf84f02bb3efb553cc9de4f94c7ae437c0facc6d9ba065295c74ef1b11c960001b611380565b6105bf7fa76a3ae87170fcc8dae476ecf6fc70d76899cbfb203b2715522b4e82ff9895ee60001b610cb6565b6105eb7f20004b6a7c99f1a6942088e6068b69da41820d2a7951c0f8dc2a9316f624d8aa60001b610cb6565b6106177f84398293b0ee8d41a45562ea735333edf758669d8cd6a7d83f252fb3810f7eb460001b610cb6565b81600360003373ffffffffffffffffffffffffffffffffffffffff1673ffffffffffffffffffffffffffffffffffffffff16815260200190815260200160002060008573ffffffffffffffffffffffffffffffffffffffff1673ffffffffffffffffffffffffffffffffffffffff16815260200190815260200160002060008282546106a391906125a2565b925050819055506106d67f127da3d7f94fac38a0aefe8e2d52a1d5e02c73c005d54aee25a5b96403a10c7660001b610cb6565b6107027fecd1a968d1a3ec95ac638f008d122a02fc9990f13a8a2f8b8c1049d9e9f157f460001b610cb6565b6001905092915050565b60015481565b60006107407f0ed706c478af62d4d71a2e1b98f4faf1e025a47706c3e27919ad3f84065c59aa60001b611380565b61076c7f1c7bd99bde33ad25173f6e51726bad4cbb0e5bffcf7b5355dd4a606b41ab6a5260001b611380565b6107987f4afe6dfcd13321606488f84e2e552ce951e59cdac45841404673ad5b6cd38d6a60001b611380565b6107c47f13cc4d9e1b0cf79b99bfa9d38be6c6c4a27927aa87cfb7fe7ef2bb795b6c2bbf60001b611380565b600060149054906101000a900460ff1615610814576040517f08c379a000000000000000000000000000000000000000000000000000000000815260040161080b906124d0565b60405180910390fd5b6108407f29d5a8aad9f9984762b930a072b5b3ed057683c0074e8807ac3a8059972a956c60001b611380565b61086c7f05b0cf84f02bb3efb553cc9de4f94c7ae437c0facc6d9ba065295c74ef1b11c960001b611380565b6108987f423f5d11e463d7f9260e36fdad92dbdbbf5a272ff7150ce9604f34a6ebfdfe3f60001b610cb6565b6108c47f7f9ef9ec7742ae41ff0eb78bef1e3a2d90916919b6ebd2dc46723b23c75fe7d960001b610cb6565b6108f07fd16d4b665b84e07e0541b6b49d66be22ca605aa5915376f79d4553998414aac760001b610cb6565b61091c7fff0690f8d44a0cedd8dd99cacce12d2b24f307ce564bbf4eea60fee071751d1360001b610cb6565b81600360008673ffffffffffffffffffffffffffffffffffffffff1673ffffffffffffffffffffffffffffffffffffffff16815260200190815260200160002060003373ffffffffffffffffffffffffffffffffffffffff1673ffffffffffffffffffffffffffffffffffffffff1681526020019081526020016000205410156109db576040517f08c379a00000000000000000000000000000000000000000000000000000000081526004016109d290612510565b60405180910390fd5b610a077ff85d52ac84a45f0e750fbd6c177c5762de33c8bedc0b323d83e174fa71bfd53b60001b610cb6565b610a337fbf28603d7f9bbe8d61792c0a7ba83e65babff389d35c8a5c5915aa3fe101df6660001b610cb6565b610a5f7f35c5991bb6a0a5368e012e9e0e04704798c07437f61bcd0187fe33f4edca480d60001b610cb6565b81600360008673ffffffffffffffffffffffffffffffffffffffff1673ffffffffffffffffffffffffffffffffffffffff16815260200190815260200160002060003373ffffffffffffffffffffffffffffffffffffffff1673ffffffffffffffffffffffffffffffffffffffff1681526020019081526020016000206000828254610aeb91906125f8565b92505081905550610b1e7f70489eaca5d6a6b928f17afdad36b4ca126d1351b9ed7e9cc97f33ccc404a73060001b610cb6565b610b4a7fd1363622c4f044463bd6307d442d310ed4ff5324bb9f5501b598014335aabf3d60001b610cb6565b81600260008673ffffffffffffffffffffffffffffffffffffffff1673ffffffffffffffffffffffffffffffffffffffff1681526020019081526020016000206000828254610b9991906125f8565b92505081905550610bcc7fc7a01e0a0bb20f3e35e7ca402fbca7d113705824ac1ffdb8fc3756e80854908360001b610cb6565b610bf87fcfcfd5f6566f1725d4e99d81b2b1df62ad345197966c58286334209ae675d93860001b610cb6565b81600260008573ffffffffffffffffffffffffffffffffffffffff1673ffffffffffffffffffffffffffffffffffffffff1681526020019081526020016000206000828254610c4791906125a2565b92505081905550610c7a7fd93b2f8373448e7e95bd5b7699efd6c7763fe34bd35d077105d7eab3ed7f005c60001b610cb6565b610ca67f981ff0e8a800c94b6883b3b8a62b5e74d4f933891611a861cc8092cdd8b0226060001b610cb6565b600190509392505050565b600681565b50565b50565b50565b60026020528060005260406000206000915090505481565b6000610d057fc8b7047caa449fcb4650d3e95fb615e5f8aaaf82ad7865252a59cad7c0f2d28e60001b610cb9565b610d317f2dd5f7ac4b2b72d1d5550569909caca3f18cd727a238ea4575d6cf79efb8ff1660001b610cb9565b610d5d7f35ab2671c7dc5744467dacb3dbb9d212364ab64f6ef74dd54f6aaccd736e4fef60001b610cb9565b610d897f11251ad21d0f71f8ff840535f90b8ec928f107492d02d6baaa79c397a7fd128c60001b610cb9565b60008054906101000a900473ffffffffffffffffffffffffffffffffffffffff1673ffffffffffffffffffffffffffffffffffffffff163373ffffffffffffffffffffffffffffffffffffffff1614610e17576040517f08c379a0000000000000000000000000000000000000000000000000000000008152600401610e0e906124f0565b60405180910390fd5b610e437ffa9c188bec83e777947f5867bce0acc86329a2a7075a7d0279672d852c44be8f60001b610cb9565b610e6e7e145bb05a5c2f8cc3266724f76666e1e3aefecd65508bb2dc08ef073b944afa60001b610cb9565b610e9a7fa1cf0f93c879477a2d9fa3e9b36a80f358943366cd4ceded83d94ec45aa9b01260001b610cb9565b610ec67fd1311729216acb0d83912ef3363fdfcf02195a405b0dd8a23726eb0740b1a30f60001b610cb9565b610ef27fff2a3292c3e6f8e47848a529c407a27c38790bf6e55b51b1b7837d46ce8c62cd60001b610cb9565b60008060006101000a81548173ffffffffffffffffffffffffffffffffffffffff021916908373ffffffffffffffffffffffffffffffffffffffff160217905550610f5f7fc97ee9ddbc921c5f724e28e48917f3a8832b869e51e3bc5b686b60c41a3b768b60001b610cb9565b610f8b7f1f8b0d57c6a343eecf4a994c11004a20c382e610a07810db7ecdbab8aa66f32f60001b610cb9565b7fa2ea9883a321a3e97b8266c2b078bfeec6d50c711ed71f874a90d500ae2eaf3660008054906101000a900473ffffffffffffffffffffffffffffffffffffffff16604051610fda9190612458565b60405180910390a161100e7f4b62937b7cd24f376ffe23df304d3098562ca2dcbc887d52d0f48b481a732cfe60001b610cb9565b61103a7f7004f6f321856fd5a467aa26537c1e67d635296dce6499ff839ac5d398e6200760001b610cb9565b6001905090565b61106d7fc8b7047caa449fcb4650d3e95fb615e5f8aaaf82ad7865252a59cad7c0f2d28e60001b610cb9565b6110997f2dd5f7ac4b2b72d1d5550569909caca3f18cd727a238ea4575d6cf79efb8ff1660001b610cb9565b6110c57f35ab2671c7dc5744467dacb3dbb9d212364ab64f6ef74dd54f6aaccd736e4fef60001b610cb9565b6110f17f11251ad21d0f71f8ff840535f90b8ec928f107492d02d6baaa79c397a7fd128c60001b610cb9565b60008054906101000a900473ffffffffffffffffffffffffffffffffffffffff1673ffffffffffffffffffffffffffffffffffffffff163373ffffffffffffffffffffffffffffffffffffffff161461117f576040517f08c379a0000000000000000000000000000000000000000000000000000000008152600401611176906124f0565b60405180910390fd5b6111ab7ffa9c188bec83e777947f5867bce0acc86329a2a7075a7d0279672d852c44be8f60001b610cb9565b6111d67e145bb05a5c2f8cc3266724f76666e1e3aefecd65508bb2dc08ef073b944afa60001b610cb9565b6112027f71501c7949d461a91631bf97a27722feded3a27cdb96c6af965d74771cd7730a60001b611380565b61122e7fc87ada97cfbf987d5a159b7f833b333160986cea928c9234d2cabab54ef7734a60001b611380565b61125a7f419a3889ddca6e81e68c74a7d9d3d9144cff1e202442d3fadf5a095ae504682e60001b611380565b6001600060146101000a81548160ff021916908315150217905550565b60008054906101000a900473ffffffffffffffffffffffffffffffffffffffff1681565b60006112c97fb81d6c1e37a1e1051536e206d36ced0f93f93a4c94216e57d562d35bab0afc5a60001b610cb9565b6112f57fc34c1f66f9d28818f21f5fa7ef5c319221aa26565d6a798532b35f2217f6074f60001b610cb9565b6113217f2b31992af92d5dff20d5ce69779b115ad7f06fba2dbf4020d62c709b8bd0c7c360001b610cb9565b60008054906101000a900473ffffffffffffffffffffffffffffffffffffffff16905090565b6040518060400160405280600481526020017f555344430000000000000000000000000000000000000000000000000000000081525081565b50565b60006113b17fc8b7047caa449fcb4650d3e95fb615e5f8aaaf82ad7865252a59cad7c0f2d28e60001b610cb9565b6113dd7f2dd5f7ac4b2b72d1d5550569909caca3f18cd727a238ea4575d6cf79efb8ff1660001b610cb9565b6114097f35ab2671c7dc5744467dacb3dbb9d212364ab64f6ef74dd54f6aaccd736e4fef60001b610cb9565b6114357f11251ad21d0f71f8ff840535f90b8ec928f107492d02d6baaa79c397a7fd128c60001b610cb9565b60008054906101000a900473ffffffffffffffffffffffffffffffffffffffff1673ffffffffffffffffffffffffffffffffffffffff163373ffffffffffffffffffffffffffffffffffffffff16146114c3576040517f08c379a00000000000000000000000000000000000000000000000000000000081526004016114ba906124f0565b60405180910390fd5b6114ef7ffa9c188bec83e777947f5867bce0acc86329a2a7075a7d0279672d852c44be8f60001b610cb9565b61151a7e145bb05a5c2f8cc3266724f76666e1e3aefecd65508bb2dc08ef073b944afa60001b610cb9565b6115467f55bb1a1afd70e66259cb2bdbc0886788741d25f73ccfeaa3d3288b11ef5ff8db60001b610cb9565b6115727f8f4b01e9179e4cdd8d1f155f2dc345566143c82ea85d2f17a5073547afa92b9960001b610cb9565b61159e7f5fe78410b42fec71eef94ccad0c535261bcd7e41a8ad744359e8cb5571c411a860001b610cb9565b6115ca7f881ce18438b4f80f22e3f757881e673aeb9a85e65732bc6fc0b8c40b384c9b2660001b610cb9565b600073ffffffffffffffffffffffffffffffffffffffff168273ffffffffffffffffffffffffffffffffffffffff16141561160457600080fd5b6116307f071f8af13727be400e23e5e43f2229d76771a92b5cd881a1afc0bccadc52543260001b610cb9565b61165c7fd909f2bf3c29e9c2fdc09ef79e30d71a0d1727380668d45d295062942b97af9860001b610cb9565b6116887f7b300cb776e76eaddcbeec7f5fc671ce3c858bba9c33dadf679baf9ca16f381960001b610cb9565b816000806101000a81548173ffffffffffffffffffffffffffffffffffffffff021916908373ffffffffffffffffffffffffffffffffffffffff1602179055506116f47f39db85048ffb9dacb7cff675ae0b406b176b29290d305cd6bf33a9045b93a0a860001b610cb9565b6117207fa494df1f4b83d7d7dd75681e8d839144c5e5f26cef18a5dc140908164a4235cf60001b610cb9565b7fa2ea9883a321a3e97b8266c2b078bfeec6d50c711ed71f874a90d500ae2eaf368260405161174f9190612458565b60405180910390a16117837fb6fa6df4d7eb8ef433be89d650d6ec7b0eca0b369bb4df3eab71a2dacc0ab40d60001b610cb9565b6117af7f97c4819a5f2afd35d65ff5817ff50035679d4fc5c0c48be67afa43da592f462260001b610cb9565b60019050919050565b60006117e67f0ed706c478af62d4d71a2e1b98f4faf1e025a47706c3e27919ad3f84065c59aa60001b611380565b6118127f1c7bd99bde33ad25173f6e51726bad4cbb0e5bffcf7b5355dd4a606b41ab6a5260001b611380565b61183e7f4afe6dfcd13321606488f84e2e552ce951e59cdac45841404673ad5b6cd38d6a60001b611380565b61186a7f13cc4d9e1b0cf79b99bfa9d38be6c6c4a27927aa87cfb7fe7ef2bb795b6c2bbf60001b611380565b600060149054906101000a900460ff16156118ba576040517f08c379a00000000000000000000000000000000000000000000000000000000081526004016118b1906124d0565b60405180910390fd5b6118e67f29d5a8aad9f9984762b930a072b5b3ed057683c0074e8807ac3a8059972a956c60001b611380565b6119127f05b0cf84f02bb3efb553cc9de4f94c7ae437c0facc6d9ba065295c74ef1b11c960001b611380565b61193e7f669ddf1b2ce1fcb46f6d6b1e26cc25ab0a6a953a39a8ab1f42600df3d84bf8ff60001b610cb6565b61196a7f610079a91722dfa4c0e5840578643bba1cf578bf3106ba6df3814bec7363d38160001b610cb6565b6119967fa9014e16ebb39b600b9fbccce1a9ee9ba54aeb24ad354bff3f57e4c9140a236a60001b610cb6565b6119c27fcfe4fec005b4e465d68c07502c902d751cf201ed33ebb9ad7fa12b8fe12aa8f360001b610cb6565b81600260003373ffffffffffffffffffffffffffffffffffffffff1673ffffffffffffffffffffffffffffffffffffffff168152602001908152602001600020541015611a44576040517f08c379a0000000000000000000000000000000000000000000000000000000008152600401611a3b90612530565b60405180910390fd5b611a707fdc37c3f2076b62d6dec704014d8dea7ad5639a1d7adb9c87416a1c9d86e8952460001b610cb6565b611a9c7fd580622ec235f4b3e8eb54bbe265fb5ff1eb3a79991793819c8016cfff4cc29160001b610cb6565b611ac87f1d8499d067854881890f79753f50ee82094e5e805904d146a40276b50808e33760001b610cb6565b81600260003373ffffffffffffffffffffffffffffffffffffffff1673ffffffffffffffffffffffffffffffffffffffff1681526020019081526020016000206000828254611b1791906125f8565b92505081905550611b4a7f24e6ded1a5c37a7ece822d8025adf14181686df7f5987ac0c5d8c9e7eb3ddcf960001b610cb6565b611b767fe72aa7d3c149c184db5febfa0778736429441ca6ed2937dfa2986ae8c3cef36b60001b610cb6565b81600260008573ffffffffffffffffffffffffffffffffffffffff1673ffffffffffffffffffffffffffffffffffffffff1681526020019081526020016000206000828254611bc591906125a2565b92505081905550611bf87f4c8fee84837f6493d86111627e957f372f1ebcbb3da4a6c553732451774eb02460001b610cb6565b611c247f709ad30a55240f4e2a3daf2894c500da27bfbe9d675f8f7b952dfee2455e8a8f60001b610cb6565b6001905092915050565b600060149054906101000a900460ff1681565b6000611c6f7f020507bb984d03044267b2138591fced97f4619115caef482d8e8f9d8a08c6f760001b610cb6565b611c9b7ffce67c20c78dd04090926e6c099a85c775c19e4a67b1a016c908a7effab7011660001b610cb6565b611cc77f111da292f007f1cc9c38a5ecde9f304d87e9b6a061efe35716a56a489187ee7060001b610cb6565b611cf37fb2f3aa3d202cca47e1cadd40ddc652b2150099dae43eb36a8c71311e79fc977660001b610cb6565b60015482600154611d0491906125a2565b11611d44576040517f08c379a0000000000000000000000000000000000000000000000000000000008152600401611d3b906124b0565b60405180910390fd5b611d707f76c3dc49b026a9aabbdcbf02c2994920577cc89ba044e0f142eea172075a250360001b610cb6565b611d9c7f3240a164c8ea3fac477c93a53c7a1af2aa01a0c2211774020ad47bd3352d9dea60001b610cb6565b611dc87f7ae2ba7ec6aee5c79112f62acbc573a4fce272ed1cd6206a52f7ae3d40364b5f60001b610cb6565b8160016000828254611dda91906125a2565b92505081905550611e0d7f4958b63e4c97b246230d247f23e5a9c0ae2d81520cbd207d51fa83a9c7ea640660001b610cb6565b611e397f89a055a833fd71312eab699169ceb44b4580f8cf7aed7e7ef0d76ae56a8db96860001b610cb6565b81600260008573ffffffffffffffffffffffffffffffffffffffff1673ffffffffffffffffffffffffffffffffffffffff1681526020019081526020016000206000828254611e8891906125a2565b92505081905550611ebb7f728afaddb5cf712269a7baba52621b5c92b822fc0a456570b107a7382eaa714860001b610cb6565b611ee77f574a2cf3b1a3ca13e5f6cad83707950744872a097ae5906ddb99e1bea2952daa60001b610cb6565b6001905092915050565b6003602052816000526040600020602052806000526040600020600091509150505481565b611f427fc8b7047caa449fcb4650d3e95fb615e5f8aaaf82ad7865252a59cad7c0f2d28e60001b610cb9565b611f6e7f2dd5f7ac4b2b72d1d5550569909caca3f18cd727a238ea4575d6cf79efb8ff1660001b610cb9565b611f9a7f35ab2671c7dc5744467dacb3dbb9d212364ab64f6ef74dd54f6aaccd736e4fef60001b610cb9565b611fc67f11251ad21d0f71f8ff840535f90b8ec928f107492d02d6baaa79c397a7fd128c60001b610cb9565b60008054906101000a900473ffffffffffffffffffffffffffffffffffffffff1673ffffffffffffffffffffffffffffffffffffffff163373ffffffffffffffffffffffffffffffffffffffff1614612054576040517f08c379a000000000000000000000000000000000000000000000000000000000815260040161204b906124f0565b60405180910390fd5b6120807ffa9c188bec83e777947f5867bce0acc86329a2a7075a7d0279672d852c44be8f60001b610cb9565b6120ab7e145bb05a5c2f8cc3266724f76666e1e3aefecd65508bb2dc08ef073b944afa60001b610cb9565b6120d77f31bb6628c982e5f2aef05dc11910eb29274cf8a1e79eaaced313e5bffb4fdac160001b611380565b6121037ffd9ba05788d65bb80610beb89347b68bd09747d1d3acaa96e38db32b4745f44060001b611380565b61212f7f0b9e075c4d08cd00d06fb288be1ba9c82b5eeb161ae3210d3f2a27b048989bcf60001b611380565b60008060146101000a81548160ff021916908315150217905550565b60008135905061215a816126fe565b92915050565b60008135905061216f81612715565b92915050565b6000813590506121848161272c565b92915050565b60006020828403121561219c57600080fd5b60006121aa8482850161214b565b91505092915050565b600080604083850312156121c657600080fd5b60006121d48582860161214b565b92505060206121e58582860161214b565b9150509250929050565b60008060006060848603121561220457600080fd5b60006122128682870161214b565b93505060206122238682870161214b565b925050604061223486828701612175565b9150509250925092565b6000806040838503121561225157600080fd5b600061225f8582860161214b565b925050602061227085828601612175565b9150509250929050565b60006020828403121561228c57600080fd5b600061229a84828501612160565b91505092915050565b6122ac8161262c565b82525050565b6122bb8161263e565b82525050565b60006122cc82612586565b6122d68185612591565b93506122e681856020860161268b565b6122ef816126ed565b840191505092915050565b6000612307600883612591565b91507f4f766572666c6f770000000000000000000000000000000000000000000000006000830152602082019050919050565b6000612347600c83612591565b91507f53432069732050617573656400000000000000000000000000000000000000006000830152602082019050919050565b6000612387601383612591565b91507f556e617574686f72697a656420416363657373000000000000000000000000006000830152602082019050919050565b60006123c7600d83612591565b91507f556e617070726f766564207478000000000000000000000000000000000000006000830152602082019050919050565b6000612407601483612591565b91507f496e73756666696369656e742042616c616e63650000000000000000000000006000830152602082019050919050565b61244381612674565b82525050565b6124528161267e565b82525050565b600060208201905061246d60008301846122a3565b92915050565b600060208201905061248860008301846122b2565b92915050565b600060208201905081810360008301526124a881846122c1565b905092915050565b600060208201905081810360008301526124c9816122fa565b9050919050565b600060208201905081810360008301526124e98161233a565b9050919050565b600060208201905081810360008301526125098161237a565b9050919050565b60006020820190508181036000830152612529816123ba565b9050919050565b60006020820190508181036000830152612549816123fa565b9050919050565b6000602082019050612565600083018461243a565b92915050565b60006020820190506125806000830184612449565b92915050565b600081519050919050565b600082825260208201905092915050565b60006125ad82612674565b91506125b883612674565b9250827fffffffffffffffffffffffffffffffffffffffffffffffffffffffffffffffff038211156125ed576125ec6126be565b5b828201905092915050565b600061260382612674565b915061260e83612674565b925082821015612621576126206126be565b5b828203905092915050565b600061263782612654565b9050919050565b60008115159050919050565b6000819050919050565b600073ffffffffffffffffffffffffffffffffffffffff82169050919050565b6000819050919050565b600060ff82169050919050565b60005b838110156126a957808201518184015260208101905061268e565b838111156126b8576000848401525b50505050565b7f4e487b7100000000000000000000000000000000000000000000000000000000600052601160045260246000fd5b6000601f19601f8301169050919050565b6127078161262c565b811461271257600080fd5b50565b61271e8161264a565b811461272957600080fd5b50565b61273581612674565b811461274057600080fd5b5056fea26469706673582212201579ddf435550f32458bd310010fa13a85d999b7f6d0a9e79d728918538accf464736f6c63430008000033",
  "linkReferences": {},
  "deployedLinkReferences": {}
}