{
  "_format": "hh-sol-artifact-1",
  "contractName": "USDC",
  "sourceName": "contracts/USDC.sol",
  "abi": [
    {
      "inputs": [
        {
          "internalType": "uint8",
          "name": "_decimals",
          "type": "uint8"
        },
        {
          "internalType": "uint256",
          "name": "_initialSupply",
          "type": "uint256"
        }
      ],
      "stateMutability": "nonpayable",
      "type": "constructor"
    },
    {
      "anonymous": false,
      "inputs": [
        {
          "indexed": true,
          "internalType": "address",
          "name": "_owner",
          "type": "address"
        },
        {
          "indexed": true,
          "internalType": "address",
          "name": "_spender",
          "type": "address"
        },
        {
          "indexed": false,
          "internalType": "uint256",
          "name": "_value",
          "type": "uint256"
        }
      ],
      "name": "Approval",
      "type": "event"
    },
    {
      "anonymous": false,
      "inputs": [
        {
          "indexed": true,
          "internalType": "address",
          "name": "_from",
          "type": "address"
        },
        {
          "indexed": true,
          "internalType": "address",
          "name": "_to",
          "type": "address"
        },
        {
          "indexed": false,
          "internalType": "uint256",
          "name": "_value",
          "type": "uint256"
        }
      ],
      "name": "Transfer",
      "type": "event"
    },
    {
      "inputs": [
        {
          "internalType": "address",
          "name": "",
          "type": "address"
        },
        {
          "internalType": "address",
          "name": "",
          "type": "address"
        }
      ],
      "name": "allowance",
      "outputs": [
        {
          "internalType": "uint256",
          "name": "",
          "type": "uint256"
        }
      ],
      "stateMutability": "view",
      "type": "function"
    },
    {
      "inputs": [
        {
          "internalType": "address",
          "name": "_spender",
          "type": "address"
        },
        {
          "internalType": "uint256",
          "name": "value",
          "type": "uint256"
        }
      ],
      "name": "approve",
      "outputs": [
        {
          "internalType": "bool",
          "name": "success",
          "type": "bool"
        }
      ],
      "stateMutability": "nonpayable",
      "type": "function"
    },
    {
      "inputs": [
        {
          "internalType": "address",
          "name": "",
          "type": "address"
        }
      ],
      "name": "balanceOf",
      "outputs": [
        {
          "internalType": "uint256",
          "name": "",
          "type": "uint256"
        }
      ],
      "stateMutability": "view",
      "type": "function"
    },
    {
      "inputs": [
        {
          "internalType": "address",
          "name": "newOwner",
          "type": "address"
        }
      ],
      "name": "changeOwner",
      "outputs": [
        {
          "internalType": "bool",
          "name": "success",
          "type": "bool"
        }
      ],
      "stateMutability": "nonpayable",
      "type": "function"
    },
    {
      "inputs": [],
      "name": "decimals",
      "outputs": [
        {
          "internalType": "uint8",
          "name": "",
          "type": "uint8"
        }
      ],
      "stateMutability": "view",
      "type": "function"
    },
    {
      "inputs": [],
      "name": "isPaused",
      "outputs": [
        {
          "internalType": "bool",
          "name": "",
          "type": "bool"
        }
      ],
      "stateMutability": "view",
      "type": "function"
    },
    {
      "inputs": [
        {
          "internalType": "address",
          "name": "_to",
          "type": "address"
        },
        {
          "internalType": "uint256",
          "name": "_amount",
          "type": "uint256"
        }
      ],
      "name": "mintCoins",
      "outputs": [
        {
          "internalType": "bool",
          "name": "success",
          "type": "bool"
        }
      ],
      "stateMutability": "nonpayable",
      "type": "function"
    },
    {
      "inputs": [],
      "name": "name",
      "outputs": [
        {
          "internalType": "string",
          "name": "",
          "type": "string"
        }
      ],
      "stateMutability": "view",
      "type": "function"
    },
    {
      "inputs": [],
      "name": "owner",
      "outputs": [
        {
          "internalType": "address",
          "name": "",
          "type": "address"
        }
      ],
      "stateMutability": "view",
      "type": "function"
    },
    {
      "inputs": [],
      "name": "pause",
      "outputs": [],
      "stateMutability": "nonpayable",
      "type": "function"
    },
    {
      "inputs": [],
      "name": "renounceOwnership",
      "outputs": [
        {
          "internalType": "bool",
          "name": "success",
          "type": "bool"
        }
      ],
      "stateMutability": "nonpayable",
      "type": "function"
    },
    {
      "inputs": [],
      "name": "returnOwner",
      "outputs": [
        {
          "internalType": "address",
          "name": "",
          "type": "address"
        }
      ],
      "stateMutability": "view",
      "type": "function"
    },
    {
      "inputs": [],
      "name": "symbol",
      "outputs": [
        {
          "internalType": "string",
          "name": "",
          "type": "string"
        }
      ],
      "stateMutability": "view",
      "type": "function"
    },
    {
      "inputs": [],
      "name": "totalSupply",
      "outputs": [
        {
          "internalType": "uint256",
          "name": "",
          "type": "uint256"
        }
      ],
      "stateMutability": "view",
      "type": "function"
    },
    {
      "inputs": [
        {
          "internalType": "address",
          "name": "_to",
          "type": "address"
        },
        {
          "internalType": "uint256",
          "name": "_value",
          "type": "uint256"
        }
      ],
      "name": "transfer",
      "outputs": [
        {
          "internalType": "bool",
          "name": "sucess",
          "type": "bool"
        }
      ],
      "stateMutability": "nonpayable",
      "type": "function"
    },
    {
      "inputs": [
        {
          "internalType": "address",
          "name": "_from",
          "type": "address"
        },
        {
          "internalType": "address",
          "name": "_to",
          "type": "address"
        },
        {
          "internalType": "uint256",
          "name": "value",
          "type": "uint256"
        }
      ],
      "name": "transferFrom",
      "outputs": [
        {
          "internalType": "bool",
          "name": "success",
          "type": "bool"
        }
      ],
      "stateMutability": "nonpayable",
      "type": "function"
    },
    {
      "inputs": [],
      "name": "unPause",
      "outputs": [],
      "stateMutability": "nonpayable",
      "type": "function"
    }
  ],
  "bytecode": "0x60806040526040518060400160405280600481526020017f5553444300000000000000000000000000000000000000000000000000000000815250600190805190602001906200005192919062000181565b506040518060400160405280600481526020017f5553444300000000000000000000000000000000000000000000000000000000815250600290805190602001906200009f92919062000181565b50348015620000ad57600080fd5b5060405162001679380380620016798339818101604052810190620000d391906200025f565b81600360006101000a81548160ff021916908360ff1602179055508060048190555080600560003373ffffffffffffffffffffffffffffffffffffffff1673ffffffffffffffffffffffffffffffffffffffff16815260200190815260200160002081905550336000806101000a81548173ffffffffffffffffffffffffffffffffffffffff021916908373ffffffffffffffffffffffffffffffffffffffff160217905550505062000350565b8280546200018f90620002b7565b90600052602060002090601f016020900481019282620001b35760008555620001ff565b82601f10620001ce57805160ff1916838001178555620001ff565b82800160010185558215620001ff579182015b82811115620001fe578251825591602001919060010190620001e1565b5b5090506200020e919062000212565b5090565b5b808211156200022d57600081600090555060010162000213565b5090565b60008151905062000242816200031c565b92915050565b600081519050620002598162000336565b92915050565b600080604083850312156200027357600080fd5b6000620002838582860162000248565b9250506020620002968582860162000231565b9150509250929050565b6000819050919050565b600060ff82169050919050565b60006002820490506001821680620002d057607f821691505b60208210811415620002e757620002e6620002ed565b5b50919050565b7f4e487b7100000000000000000000000000000000000000000000000000000000600052602260045260246000fd5b6200032781620002a0565b81146200033357600080fd5b50565b6200034181620002aa565b81146200034d57600080fd5b50565b61131980620003606000396000f3fe608060405234801561001057600080fd5b506004361061010b5760003560e01c80638da5cb5b116100a2578063a9059cbb11610071578063a9059cbb146102ac578063b187bd26146102dc578063b7fde9da146102fa578063dd62ed3e1461032a578063f7b188a51461035a5761010b565b80638da5cb5b1461022257806394a927fe1461024057806395d89b411461025e578063a6f9dae11461027c5761010b565b8063313ce567116100de578063313ce567146101ac57806370a08231146101ca578063715018a6146101fa5780638456cb59146102185761010b565b806306fdde0314610110578063095ea7b31461012e57806318160ddd1461015e57806323b872dd1461017c575b600080fd5b610118610364565b604051610125919061102e565b60405180910390f35b61014860048036038101906101439190610e87565b6103f2565b6040516101559190611013565b60405180910390f35b6101666104e6565b60405161017391906110b0565b60405180910390f35b61019660048036038101906101919190610e38565b6104ec565b6040516101a39190611013565b60405180910390f35b6101b461074c565b6040516101c191906110cb565b60405180910390f35b6101e460048036038101906101df9190610dd3565b61075f565b6040516101f191906110b0565b60405180910390f35b610202610777565b60405161020f9190611013565b60405180910390f35b610220610850565b005b61022a6108fb565b6040516102379190610ff8565b60405180910390f35b61024861091f565b6040516102559190610ff8565b60405180910390f35b610266610948565b604051610273919061102e565b60405180910390f35b61029660048036038101906102919190610dd3565b6109d6565b6040516102a39190611013565b60405180910390f35b6102c660048036038101906102c19190610e87565b610ab0565b6040516102d39190611013565b60405180910390f35b6102e4610bbd565b6040516102f19190611013565b60405180910390f35b610314600480360381019061030f9190610e87565b610bd0565b6040516103219190611013565b60405180910390f35b610344600480360381019061033f9190610dfc565b610cda565b60405161035191906110b0565b60405180910390f35b610362610cff565b005b6001805461037190611214565b80601f016020809104026020016040519081016040528092919081815260200182805461039d90611214565b80156103ea5780601f106103bf576101008083540402835291602001916103ea565b820191906000526020600020905b8154815290600101906020018083116103cd57829003601f168201915b505050505081565b6000801515600060149054906101000a900460ff16151514610449576040517f08c379a000000000000000000000000000000000000000000000000000000000815260040161044090611050565b60405180910390fd5b81600660003373ffffffffffffffffffffffffffffffffffffffff1673ffffffffffffffffffffffffffffffffffffffff16815260200190815260200160002060008573ffffffffffffffffffffffffffffffffffffffff1673ffffffffffffffffffffffffffffffffffffffff16815260200190815260200160002060008282546104d59190611102565b925050819055506001905092915050565b60045481565b6000801515600060149054906101000a900460ff16151514610543576040517f08c379a000000000000000000000000000000000000000000000000000000000815260040161053a90611050565b60405180910390fd5b81600660008673ffffffffffffffffffffffffffffffffffffffff1673ffffffffffffffffffffffffffffffffffffffff16815260200190815260200160002060003373ffffffffffffffffffffffffffffffffffffffff1673ffffffffffffffffffffffffffffffffffffffff168152602001908152602001600020541015610602576040517f08c379a00000000000000000000000000000000000000000000000000000000081526004016105f990611090565b60405180910390fd5b81600660008673ffffffffffffffffffffffffffffffffffffffff1673ffffffffffffffffffffffffffffffffffffffff16815260200190815260200160002060003373ffffffffffffffffffffffffffffffffffffffff1673ffffffffffffffffffffffffffffffffffffffff168152602001908152602001600020600082825461068e9190611158565b9250508190555081600560008673ffffffffffffffffffffffffffffffffffffffff1673ffffffffffffffffffffffffffffffffffffffff16815260200190815260200160002060008282546106e49190611158565b9250508190555081600560008573ffffffffffffffffffffffffffffffffffffffff1673ffffffffffffffffffffffffffffffffffffffff168152602001908152602001600020600082825461073a9190611102565b92505081905550600190509392505050565b600360009054906101000a900460ff1681565b60056020528060005260406000206000915090505481565b60008060009054906101000a900473ffffffffffffffffffffffffffffffffffffffff1673ffffffffffffffffffffffffffffffffffffffff163373ffffffffffffffffffffffffffffffffffffffff1614610808576040517f08c379a00000000000000000000000000000000000000000000000000000000081526004016107ff90611070565b60405180910390fd5b60008060006101000a81548173ffffffffffffffffffffffffffffffffffffffff021916908373ffffffffffffffffffffffffffffffffffffffff1602179055506001905090565b60008054906101000a900473ffffffffffffffffffffffffffffffffffffffff1673ffffffffffffffffffffffffffffffffffffffff163373ffffffffffffffffffffffffffffffffffffffff16146108de576040517f08c379a00000000000000000000000000000000000000000000000000000000081526004016108d590611070565b60405180910390fd5b6001600060146101000a81548160ff021916908315150217905550565b60008054906101000a900473ffffffffffffffffffffffffffffffffffffffff1681565b60008060009054906101000a900473ffffffffffffffffffffffffffffffffffffffff16905090565b6002805461095590611214565b80601f016020809104026020016040519081016040528092919081815260200182805461098190611214565b80156109ce5780601f106109a3576101008083540402835291602001916109ce565b820191906000526020600020905b8154815290600101906020018083116109b157829003601f168201915b505050505081565b60008060009054906101000a900473ffffffffffffffffffffffffffffffffffffffff1673ffffffffffffffffffffffffffffffffffffffff163373ffffffffffffffffffffffffffffffffffffffff1614610a67576040517f08c379a0000000000000000000000000000000000000000000000000000000008152600401610a5e90611070565b60405180910390fd5b816000806101000a81548173ffffffffffffffffffffffffffffffffffffffff021916908373ffffffffffffffffffffffffffffffffffffffff16021790555060019050919050565b6000801515600060149054906101000a900460ff16151514610b07576040517f08c379a0000000000000000000000000000000000000000000000000000000008152600401610afe90611050565b60405180910390fd5b81600560003373ffffffffffffffffffffffffffffffffffffffff1673ffffffffffffffffffffffffffffffffffffffff1681526020019081526020016000206000828254610b569190611158565b9250508190555081600560008573ffffffffffffffffffffffffffffffffffffffff1673ffffffffffffffffffffffffffffffffffffffff1681526020019081526020016000206000828254610bac9190611102565b925050819055506001905092915050565b600060149054906101000a900460ff1681565b60008060009054906101000a900473ffffffffffffffffffffffffffffffffffffffff1673ffffffffffffffffffffffffffffffffffffffff163373ffffffffffffffffffffffffffffffffffffffff1614610c61576040517f08c379a0000000000000000000000000000000000000000000000000000000008152600401610c5890611070565b60405180910390fd5b8160046000828254610c739190611102565b9250508190555081600560008573ffffffffffffffffffffffffffffffffffffffff1673ffffffffffffffffffffffffffffffffffffffff1681526020019081526020016000206000828254610cc99190611102565b925050819055506001905092915050565b6006602052816000526040600020602052806000526040600020600091509150505481565b60008054906101000a900473ffffffffffffffffffffffffffffffffffffffff1673ffffffffffffffffffffffffffffffffffffffff163373ffffffffffffffffffffffffffffffffffffffff1614610d8d576040517f08c379a0000000000000000000000000000000000000000000000000000000008152600401610d8490611070565b60405180910390fd5b60008060146101000a81548160ff021916908315150217905550565b600081359050610db8816112b5565b92915050565b600081359050610dcd816112cc565b92915050565b600060208284031215610de557600080fd5b6000610df384828501610da9565b91505092915050565b60008060408385031215610e0f57600080fd5b6000610e1d85828601610da9565b9250506020610e2e85828601610da9565b9150509250929050565b600080600060608486031215610e4d57600080fd5b6000610e5b86828701610da9565b9350506020610e6c86828701610da9565b9250506040610e7d86828701610dbe565b9150509250925092565b60008060408385031215610e9a57600080fd5b6000610ea885828601610da9565b9250506020610eb985828601610dbe565b9150509250929050565b610ecc8161118c565b82525050565b610edb8161119e565b82525050565b6000610eec826110e6565b610ef681856110f1565b9350610f068185602086016111e1565b610f0f816112a4565b840191505092915050565b6000610f27600c836110f1565b91507f53432069732050617573656400000000000000000000000000000000000000006000830152602082019050919050565b6000610f676013836110f1565b91507f556e617574686f72697a656420416363657373000000000000000000000000006000830152602082019050919050565b6000610fa7600d836110f1565b91507f556e617070726f766564207478000000000000000000000000000000000000006000830152602082019050919050565b610fe3816111ca565b82525050565b610ff2816111d4565b82525050565b600060208201905061100d6000830184610ec3565b92915050565b60006020820190506110286000830184610ed2565b92915050565b600060208201905081810360008301526110488184610ee1565b905092915050565b6000602082019050818103600083015261106981610f1a565b9050919050565b6000602082019050818103600083015261108981610f5a565b9050919050565b600060208201905081810360008301526110a981610f9a565b9050919050565b60006020820190506110c56000830184610fda565b92915050565b60006020820190506110e06000830184610fe9565b92915050565b600081519050919050565b600082825260208201905092915050565b600061110d826111ca565b9150611118836111ca565b9250827fffffffffffffffffffffffffffffffffffffffffffffffffffffffffffffffff0382111561114d5761114c611246565b5b828201905092915050565b6000611163826111ca565b915061116e836111ca565b92508282101561118157611180611246565b5b828203905092915050565b6000611197826111aa565b9050919050565b60008115159050919050565b600073ffffffffffffffffffffffffffffffffffffffff82169050919050565b6000819050919050565b600060ff82169050919050565b60005b838110156111ff5780820151818401526020810190506111e4565b8381111561120e576000848401525b50505050565b6000600282049050600182168061122c57607f821691505b602082108114156112405761123f611275565b5b50919050565b7f4e487b7100000000000000000000000000000000000000000000000000000000600052601160045260246000fd5b7f4e487b7100000000000000000000000000000000000000000000000000000000600052602260045260246000fd5b6000601f19601f8301169050919050565b6112be8161118c565b81146112c957600080fd5b50565b6112d5816111ca565b81146112e057600080fd5b5056fea26469706673582212205ef87159587890ba0ad62f4a52ac7524808522352dcabc1a8cfc8cc6ebff41e464736f6c63430008000033",
  "linkReferences": {},
  "deployedLinkReferences": {}
}