{
  "_format": "hh-sol-artifact-1",
  "contractName": "Ownable",
  "sourceName": "contracts/Ownable.sol",
  "abi": [
    {
      "anonymous": false,
      "inputs": [
        {
          "indexed": false,
          "internalType": "address",
          "name": "",
          "type": "address"
        }
      ],
      "name": "OwnerChanged",
      "type": "event"
    },
    {
      "inputs": [
        {
          "internalType": "bytes32",
          "name": "c__0x2ea11148",
          "type": "bytes32"
        }
      ],
      "name": "c_0x2ea11148",
      "outputs": [],
      "stateMutability": "pure",
      "type": "function"
    },
    {
      "inputs": [
        {
          "internalType": "address",
          "name": "newOwner",
          "type": "address"
        }
      ],
      "name": "changeOwner",
      "outputs": [
        {
          "internalType": "bool",
          "name": "success",
          "type": "bool"
        }
      ],
      "stateMutability": "nonpayable",
      "type": "function"
    },
    {
      "inputs": [],
      "name": "owner",
      "outputs": [
        {
          "internalType": "address",
          "name": "",
          "type": "address"
        }
      ],
      "stateMutability": "view",
      "type": "function"
    },
    {
      "inputs": [],
      "name": "renounceOwnership",
      "outputs": [
        {
          "internalType": "bool",
          "name": "success",
          "type": "bool"
        }
      ],
      "stateMutability": "nonpayable",
      "type": "function"
    },
    {
      "inputs": [],
      "name": "returnOwner",
      "outputs": [
        {
          "internalType": "address",
          "name": "",
          "type": "address"
        }
      ],
      "stateMutability": "view",
      "type": "function"
    }
  ],
  "bytecode": "0x608060405234801561001057600080fd5b50610b61806100206000396000f3fe608060405234801561001057600080fd5b50600436106100575760003560e01c806350acfe531461005c578063715018a6146100785780638da5cb5b1461009657806394a927fe146100b4578063a6f9dae1146100d2575b600080fd5b610076600480360381019061007191906109c7565b610102565b005b610080610105565b60405161008d9190610a69565b60405180910390f35b61009e61046f565b6040516100ab9190610a4e565b60405180910390f35b6100bc610493565b6040516100c99190610a4e565b60405180910390f35b6100ec60048036038101906100e7919061099e565b61053f565b6040516100f99190610a69565b60405180910390f35b50565b60006101337fc8b7047caa449fcb4650d3e95fb615e5f8aaaf82ad7865252a59cad7c0f2d28e60001b610102565b61015f7f2dd5f7ac4b2b72d1d5550569909caca3f18cd727a238ea4575d6cf79efb8ff1660001b610102565b61018b7f35ab2671c7dc5744467dacb3dbb9d212364ab64f6ef74dd54f6aaccd736e4fef60001b610102565b6101b77f11251ad21d0f71f8ff840535f90b8ec928f107492d02d6baaa79c397a7fd128c60001b610102565b60008054906101000a900473ffffffffffffffffffffffffffffffffffffffff1673ffffffffffffffffffffffffffffffffffffffff163373ffffffffffffffffffffffffffffffffffffffff1614610245576040517f08c379a000000000000000000000000000000000000000000000000000000000815260040161023c90610a84565b60405180910390fd5b6102717ffa9c188bec83e777947f5867bce0acc86329a2a7075a7d0279672d852c44be8f60001b610102565b61029c7e145bb05a5c2f8cc3266724f76666e1e3aefecd65508bb2dc08ef073b944afa60001b610102565b6102c87fa1cf0f93c879477a2d9fa3e9b36a80f358943366cd4ceded83d94ec45aa9b01260001b610102565b6102f47fd1311729216acb0d83912ef3363fdfcf02195a405b0dd8a23726eb0740b1a30f60001b610102565b6103207fff2a3292c3e6f8e47848a529c407a27c38790bf6e55b51b1b7837d46ce8c62cd60001b610102565b60008060006101000a81548173ffffffffffffffffffffffffffffffffffffffff021916908373ffffffffffffffffffffffffffffffffffffffff16021790555061038d7fc97ee9ddbc921c5f724e28e48917f3a8832b869e51e3bc5b686b60c41a3b768b60001b610102565b6103b97f1f8b0d57c6a343eecf4a994c11004a20c382e610a07810db7ecdbab8aa66f32f60001b610102565b7fa2ea9883a321a3e97b8266c2b078bfeec6d50c711ed71f874a90d500ae2eaf3660008054906101000a900473ffffffffffffffffffffffffffffffffffffffff166040516104089190610a4e565b60405180910390a161043c7f4b62937b7cd24f376ffe23df304d3098562ca2dcbc887d52d0f48b481a732cfe60001b610102565b6104687f7004f6f321856fd5a467aa26537c1e67d635296dce6499ff839ac5d398e6200760001b610102565b6001905090565b60008054906101000a900473ffffffffffffffffffffffffffffffffffffffff1681565b60006104c17fb81d6c1e37a1e1051536e206d36ced0f93f93a4c94216e57d562d35bab0afc5a60001b610102565b6104ed7fc34c1f66f9d28818f21f5fa7ef5c319221aa26565d6a798532b35f2217f6074f60001b610102565b6105197f2b31992af92d5dff20d5ce69779b115ad7f06fba2dbf4020d62c709b8bd0c7c360001b610102565b60008054906101000a900473ffffffffffffffffffffffffffffffffffffffff16905090565b600061056d7fc8b7047caa449fcb4650d3e95fb615e5f8aaaf82ad7865252a59cad7c0f2d28e60001b610102565b6105997f2dd5f7ac4b2b72d1d5550569909caca3f18cd727a238ea4575d6cf79efb8ff1660001b610102565b6105c57f35ab2671c7dc5744467dacb3dbb9d212364ab64f6ef74dd54f6aaccd736e4fef60001b610102565b6105f17f11251ad21d0f71f8ff840535f90b8ec928f107492d02d6baaa79c397a7fd128c60001b610102565b60008054906101000a900473ffffffffffffffffffffffffffffffffffffffff1673ffffffffffffffffffffffffffffffffffffffff163373ffffffffffffffffffffffffffffffffffffffff161461067f576040517f08c379a000000000000000000000000000000000000000000000000000000000815260040161067690610a84565b60405180910390fd5b6106ab7ffa9c188bec83e777947f5867bce0acc86329a2a7075a7d0279672d852c44be8f60001b610102565b6106d67e145bb05a5c2f8cc3266724f76666e1e3aefecd65508bb2dc08ef073b944afa60001b610102565b6107027f55bb1a1afd70e66259cb2bdbc0886788741d25f73ccfeaa3d3288b11ef5ff8db60001b610102565b61072e7f8f4b01e9179e4cdd8d1f155f2dc345566143c82ea85d2f17a5073547afa92b9960001b610102565b61075a7f5fe78410b42fec71eef94ccad0c535261bcd7e41a8ad744359e8cb5571c411a860001b610102565b6107867f881ce18438b4f80f22e3f757881e673aeb9a85e65732bc6fc0b8c40b384c9b2660001b610102565b600073ffffffffffffffffffffffffffffffffffffffff168273ffffffffffffffffffffffffffffffffffffffff1614156107c057600080fd5b6107ec7f071f8af13727be400e23e5e43f2229d76771a92b5cd881a1afc0bccadc52543260001b610102565b6108187fd909f2bf3c29e9c2fdc09ef79e30d71a0d1727380668d45d295062942b97af9860001b610102565b6108447f7b300cb776e76eaddcbeec7f5fc671ce3c858bba9c33dadf679baf9ca16f381960001b610102565b816000806101000a81548173ffffffffffffffffffffffffffffffffffffffff021916908373ffffffffffffffffffffffffffffffffffffffff1602179055506108b07f39db85048ffb9dacb7cff675ae0b406b176b29290d305cd6bf33a9045b93a0a860001b610102565b6108dc7fa494df1f4b83d7d7dd75681e8d839144c5e5f26cef18a5dc140908164a4235cf60001b610102565b7fa2ea9883a321a3e97b8266c2b078bfeec6d50c711ed71f874a90d500ae2eaf368260405161090b9190610a4e565b60405180910390a161093f7fb6fa6df4d7eb8ef433be89d650d6ec7b0eca0b369bb4df3eab71a2dacc0ab40d60001b610102565b61096b7f97c4819a5f2afd35d65ff5817ff50035679d4fc5c0c48be67afa43da592f462260001b610102565b60019050919050565b60008135905061098381610afd565b92915050565b60008135905061099881610b14565b92915050565b6000602082840312156109b057600080fd5b60006109be84828501610974565b91505092915050565b6000602082840312156109d957600080fd5b60006109e784828501610989565b91505092915050565b6109f981610ab5565b82525050565b610a0881610ac7565b82525050565b6000610a1b601383610aa4565b91507f556e617574686f72697a656420416363657373000000000000000000000000006000830152602082019050919050565b6000602082019050610a6360008301846109f0565b92915050565b6000602082019050610a7e60008301846109ff565b92915050565b60006020820190508181036000830152610a9d81610a0e565b9050919050565b600082825260208201905092915050565b6000610ac082610add565b9050919050565b60008115159050919050565b6000819050919050565b600073ffffffffffffffffffffffffffffffffffffffff82169050919050565b610b0681610ab5565b8114610b1157600080fd5b50565b610b1d81610ad3565b8114610b2857600080fd5b5056fea26469706673582212201b57aaf7bbcaf5422fa29490e79907f3371e3aac39b9ff65d8aefd7e79a02b8464736f6c63430008000033",
  "linkReferences": {},
  "deployedLinkReferences": {}
}