{
  "_format": "hh-sol-artifact-1",
  "contractName": "StakingContract",
  "sourceName": "contracts/StakingContract.sol",
  "abi": [
    {
      "inputs": [
        {
          "internalType": "contract IERC20",
          "name": "tokenAddress",
          "type": "address"
        },
        {
          "internalType": "address",
          "name": "treasuryAddress",
          "type": "address"
        }
      ],
      "stateMutability": "nonpayable",
      "type": "constructor"
    },
    {
      "anonymous": false,
      "inputs": [
        {
          "indexed": false,
          "internalType": "address",
          "name": "",
          "type": "address"
        }
      ],
      "name": "OwnerChanged",
      "type": "event"
    },
    {
      "anonymous": false,
      "inputs": [
        {
          "indexed": false,
          "internalType": "address",
          "name": "",
          "type": "address"
        },
        {
          "indexed": false,
          "internalType": "uint256",
          "name": "",
          "type": "uint256"
        },
        {
          "indexed": false,
          "internalType": "uint256",
          "name": "",
          "type": "uint256"
        }
      ],
      "name": "StakedEvent",
      "type": "event"
    },
    {
      "anonymous": false,
      "inputs": [
        {
          "indexed": false,
          "internalType": "address",
          "name": "",
          "type": "address"
        }
      ],
      "name": "TreasuryAddressChanged",
      "type": "event"
    },
    {
      "anonymous": false,
      "inputs": [
        {
          "indexed": false,
          "internalType": "address",
          "name": "",
          "type": "address"
        },
        {
          "indexed": false,
          "internalType": "uint256",
          "name": "",
          "type": "uint256"
        },
        {
          "indexed": false,
          "internalType": "uint256",
          "name": "",
          "type": "uint256"
        }
      ],
      "name": "UnstakedEvent",
      "type": "event"
    },
    {
      "inputs": [
        {
          "internalType": "address",
          "name": "newOwner",
          "type": "address"
        }
      ],
      "name": "changeOwner",
      "outputs": [
        {
          "internalType": "bool",
          "name": "success",
          "type": "bool"
        }
      ],
      "stateMutability": "nonpayable",
      "type": "function"
    },
    {
      "inputs": [
        {
          "internalType": "address",
          "name": "newTreasuryAddress",
          "type": "address"
        }
      ],
      "name": "changeTreasuryAddress",
      "outputs": [],
      "stateMutability": "nonpayable",
      "type": "function"
    },
    {
      "inputs": [],
      "name": "collectFees",
      "outputs": [],
      "stateMutability": "nonpayable",
      "type": "function"
    },
    {
      "inputs": [],
      "name": "erc20Address",
      "outputs": [
        {
          "internalType": "contract IERC20",
          "name": "",
          "type": "address"
        }
      ],
      "stateMutability": "view",
      "type": "function"
    },
    {
      "inputs": [],
      "name": "feesCollected",
      "outputs": [
        {
          "internalType": "uint256",
          "name": "",
          "type": "uint256"
        }
      ],
      "stateMutability": "view",
      "type": "function"
    },
    {
      "inputs": [],
      "name": "owner",
      "outputs": [
        {
          "internalType": "address",
          "name": "",
          "type": "address"
        }
      ],
      "stateMutability": "view",
      "type": "function"
    },
    {
      "inputs": [],
      "name": "renounceOwnership",
      "outputs": [
        {
          "internalType": "bool",
          "name": "success",
          "type": "bool"
        }
      ],
      "stateMutability": "nonpayable",
      "type": "function"
    },
    {
      "inputs": [],
      "name": "returnOwner",
      "outputs": [
        {
          "internalType": "address",
          "name": "",
          "type": "address"
        }
      ],
      "stateMutability": "view",
      "type": "function"
    },
    {
      "inputs": [
        {
          "internalType": "uint256",
          "name": "amount",
          "type": "uint256"
        }
      ],
      "name": "stake",
      "outputs": [],
      "stateMutability": "nonpayable",
      "type": "function"
    },
    {
      "inputs": [
        {
          "internalType": "address",
          "name": "",
          "type": "address"
        }
      ],
      "name": "staked",
      "outputs": [
        {
          "internalType": "uint256",
          "name": "stakedAmount",
          "type": "uint256"
        },
        {
          "internalType": "uint256",
          "name": "stakedTimestamp",
          "type": "uint256"
        }
      ],
      "stateMutability": "view",
      "type": "function"
    },
    {
      "inputs": [],
      "name": "treasury",
      "outputs": [
        {
          "internalType": "address",
          "name": "",
          "type": "address"
        }
      ],
      "stateMutability": "view",
      "type": "function"
    },
    {
      "inputs": [
        {
          "internalType": "uint256",
          "name": "amount",
          "type": "uint256"
        }
      ],
      "name": "unStake",
      "outputs": [],
      "stateMutability": "nonpayable",
      "type": "function"
    }
  ],
  "bytecode": "0x60a06040523480156200001157600080fd5b5060405162001b2d38038062001b2d833981810160405281019062000037919062000276565b8173ffffffffffffffffffffffffffffffffffffffff1660808173ffffffffffffffffffffffffffffffffffffffff1660601b81525050336000806101000a81548173ffffffffffffffffffffffffffffffffffffffff021916908373ffffffffffffffffffffffffffffffffffffffff160217905550620000bf81620000c760201b60201c565b50506200043a565b60008054906101000a900473ffffffffffffffffffffffffffffffffffffffff1673ffffffffffffffffffffffffffffffffffffffff163373ffffffffffffffffffffffffffffffffffffffff161462000158576040517f08c379a00000000000000000000000000000000000000000000000000000000081526004016200014f906200038b565b60405180910390fd5b600073ffffffffffffffffffffffffffffffffffffffff168173ffffffffffffffffffffffffffffffffffffffff161415620001cb576040517f08c379a0000000000000000000000000000000000000000000000000000000008152600401620001c29062000369565b60405180910390fd5b80600360006101000a81548173ffffffffffffffffffffffffffffffffffffffff021916908373ffffffffffffffffffffffffffffffffffffffff1602179055507f9073dfac663173e64aa95665faedae52e2246f9bcdd3890fbfaf6733b46bba13816040516200023d91906200034c565b60405180910390a150565b600081519050620002598162000406565b92915050565b600081519050620002708162000420565b92915050565b600080604083850312156200028a57600080fd5b60006200029a858286016200025f565b9250506020620002ad8582860162000248565b9150509250929050565b620002c281620003be565b82525050565b6000620002d7601983620003ad565b91507f4e6f6e207a65726f2061646472657373207265717569726564000000000000006000830152602082019050919050565b600062000319601383620003ad565b91507f556e617574686f72697a656420416363657373000000000000000000000000006000830152602082019050919050565b6000602082019050620003636000830184620002b7565b92915050565b600060208201905081810360008301526200038481620002c8565b9050919050565b60006020820190508181036000830152620003a6816200030a565b9050919050565b600082825260208201905092915050565b6000620003cb82620003e6565b9050919050565b6000620003df82620003be565b9050919050565b600073ffffffffffffffffffffffffffffffffffffffff82169050919050565b6200041181620003be565b81146200041d57600080fd5b50565b6200042b81620003d2565b81146200043757600080fd5b50565b60805160601c6116bf6200046e6000396000818161022e01528181610350015281816105a20152610a5001526116bf6000f3fe608060405234801561001057600080fd5b50600436106100b45760003560e01c806398807d841161007157806398807d841461016b578063a694fc3a1461019c578063a6f353f0146101b8578063a6f9dae1146101d4578063c879657214610204578063f071db5a1461020e576100b4565b8063276184ae146100b95780635d3eea91146100d757806361d027b3146100f3578063715018a6146101115780638da5cb5b1461012f57806394a927fe1461014d575b600080fd5b6100c161022c565b6040516100ce919061128e565b60405180910390f35b6100f160048036038101906100ec9190610ea9565b610250565b005b6100fb6103d3565b60405161010891906111c1565b60405180910390f35b6101196103f9565b6040516101269190611273565b60405180910390f35b610137610529565b60405161014491906111c1565b60405180910390f35b61015561054d565b60405161016291906111c1565b60405180910390f35b61018560048036038101906101809190610e57565b610576565b6040516101939291906113c6565b60405180910390f35b6101b660048036038101906101b19190610ea9565b61059a565b005b6101d260048036038101906101cd9190610e57565b6106d3565b005b6101ee60048036038101906101e99190610e57565b61084c565b6040516101fb9190611273565b60405180910390f35b61020c610997565b005b610216610a96565b60405161022391906113ab565b60405180910390f35b7f000000000000000000000000000000000000000000000000000000000000000081565b6000600160003373ffffffffffffffffffffffffffffffffffffffff1673ffffffffffffffffffffffffffffffffffffffff1681526020019081526020016000209050611c208160010154426102a69190611502565b10156102e7576040517f08c379a00000000000000000000000000000000000000000000000000000000081526004016102de906112eb565b60405180910390fd5b818160000154101561032e576040517f08c379a00000000000000000000000000000000000000000000000000000000081526004016103259061134b565b60405180910390fd5b818160000160008282546103429190611502565b9250508190555061039433837f000000000000000000000000000000000000000000000000000000000000000073ffffffffffffffffffffffffffffffffffffffff16610a9c9092919063ffffffff16565b7f267a093b38a82a99fd51624aac25cecd7fb617ec39af258f03f9680540d6bba23383426040516103c79392919061123c565b60405180910390a15050565b600360009054906101000a900473ffffffffffffffffffffffffffffffffffffffff1681565b60008060009054906101000a900473ffffffffffffffffffffffffffffffffffffffff1673ffffffffffffffffffffffffffffffffffffffff163373ffffffffffffffffffffffffffffffffffffffff161461048a576040517f08c379a00000000000000000000000000000000000000000000000000000000081526004016104819061132b565b60405180910390fd5b60008060006101000a81548173ffffffffffffffffffffffffffffffffffffffff021916908373ffffffffffffffffffffffffffffffffffffffff1602179055507fa2ea9883a321a3e97b8266c2b078bfeec6d50c711ed71f874a90d500ae2eaf3660008054906101000a900473ffffffffffffffffffffffffffffffffffffffff1660405161051a91906111c1565b60405180910390a16001905090565b60008054906101000a900473ffffffffffffffffffffffffffffffffffffffff1681565b60008060009054906101000a900473ffffffffffffffffffffffffffffffffffffffff16905090565b60016020528060005260406000206000915090508060000154908060010154905082565b6105e73330837f000000000000000000000000000000000000000000000000000000000000000073ffffffffffffffffffffffffffffffffffffffff16610b22909392919063ffffffff16565b60006103e86002836105f991906114a8565b6106039190611477565b905080600260008282546106179190611421565b92505081905550604051806040016040528082846106359190611502565b815260200142815250600160003373ffffffffffffffffffffffffffffffffffffffff1673ffffffffffffffffffffffffffffffffffffffff16815260200190815260200160002060008201518160000155602082015181600101559050507f9c124b95a803ee32203c8a3b4c3364da0aadeba2bd44cf4c2b80c1ecc9bf40823383426040516106c79392919061123c565b60405180910390a15050565b60008054906101000a900473ffffffffffffffffffffffffffffffffffffffff1673ffffffffffffffffffffffffffffffffffffffff163373ffffffffffffffffffffffffffffffffffffffff1614610761576040517f08c379a00000000000000000000000000000000000000000000000000000000081526004016107589061132b565b60405180910390fd5b600073ffffffffffffffffffffffffffffffffffffffff168173ffffffffffffffffffffffffffffffffffffffff1614156107d1576040517f08c379a00000000000000000000000000000000000000000000000000000000081526004016107c8906112cb565b60405180910390fd5b80600360006101000a81548173ffffffffffffffffffffffffffffffffffffffff021916908373ffffffffffffffffffffffffffffffffffffffff1602179055507f9073dfac663173e64aa95665faedae52e2246f9bcdd3890fbfaf6733b46bba138160405161084191906111c1565b60405180910390a150565b60008060009054906101000a900473ffffffffffffffffffffffffffffffffffffffff1673ffffffffffffffffffffffffffffffffffffffff163373ffffffffffffffffffffffffffffffffffffffff16146108dd576040517f08c379a00000000000000000000000000000000000000000000000000000000081526004016108d49061132b565b60405180910390fd5b600073ffffffffffffffffffffffffffffffffffffffff168273ffffffffffffffffffffffffffffffffffffffff16141561091757600080fd5b816000806101000a81548173ffffffffffffffffffffffffffffffffffffffff021916908373ffffffffffffffffffffffffffffffffffffffff1602179055507fa2ea9883a321a3e97b8266c2b078bfeec6d50c711ed71f874a90d500ae2eaf368260405161098691906111c1565b60405180910390a160019050919050565b60008054906101000a900473ffffffffffffffffffffffffffffffffffffffff1673ffffffffffffffffffffffffffffffffffffffff163373ffffffffffffffffffffffffffffffffffffffff1614610a25576040517f08c379a0000000000000000000000000000000000000000000000000000000008152600401610a1c9061132b565b60405180910390fd5b610a94600360009054906101000a900473ffffffffffffffffffffffffffffffffffffffff166002547f000000000000000000000000000000000000000000000000000000000000000073ffffffffffffffffffffffffffffffffffffffff16610a9c9092919063ffffffff16565b565b60025481565b610b1d8363a9059cbb60e01b8484604051602401610abb929190611213565b604051602081830303815290604052907bffffffffffffffffffffffffffffffffffffffffffffffffffffffff19166020820180517bffffffffffffffffffffffffffffffffffffffffffffffffffffffff8381831617835250505050610bab565b505050565b610ba5846323b872dd60e01b858585604051602401610b43939291906111dc565b604051602081830303815290604052907bffffffffffffffffffffffffffffffffffffffffffffffffffffffff19166020820180517bffffffffffffffffffffffffffffffffffffffffffffffffffffffff8381831617835250505050610bab565b50505050565b6000610c0d826040518060400160405280602081526020017f5361666545524332303a206c6f772d6c6576656c2063616c6c206661696c65648152508573ffffffffffffffffffffffffffffffffffffffff16610c729092919063ffffffff16565b9050600081511115610c6d5780806020019051810190610c2d9190610e80565b610c6c576040517f08c379a0000000000000000000000000000000000000000000000000000000008152600401610c639061138b565b60405180910390fd5b5b505050565b6060610c818484600085610c8a565b90509392505050565b606082471015610ccf576040517f08c379a0000000000000000000000000000000000000000000000000000000008152600401610cc69061130b565b60405180910390fd5b610cd885610d9e565b610d17576040517f08c379a0000000000000000000000000000000000000000000000000000000008152600401610d0e9061136b565b60405180910390fd5b6000808673ffffffffffffffffffffffffffffffffffffffff168587604051610d4091906111aa565b60006040518083038185875af1925050503d8060008114610d7d576040519150601f19603f3d011682016040523d82523d6000602084013e610d82565b606091505b5091509150610d92828286610db1565b92505050949350505050565b600080823b905060008111915050919050565b60608315610dc157829050610e11565b600083511115610dd45782518084602001fd5b816040517f08c379a0000000000000000000000000000000000000000000000000000000008152600401610e0891906112a9565b60405180910390fd5b9392505050565b600081359050610e2781611644565b92915050565b600081519050610e3c8161165b565b92915050565b600081359050610e5181611672565b92915050565b600060208284031215610e6957600080fd5b6000610e7784828501610e18565b91505092915050565b600060208284031215610e9257600080fd5b6000610ea084828501610e2d565b91505092915050565b600060208284031215610ebb57600080fd5b6000610ec984828501610e42565b91505092915050565b610edb81611536565b82525050565b610eea81611548565b82525050565b6000610efb826113ef565b610f058185611405565b9350610f158185602086016115a2565b80840191505092915050565b610f2a8161157e565b82525050565b6000610f3b826113fa565b610f458185611410565b9350610f558185602086016115a2565b610f5e81611633565b840191505092915050565b6000610f76601983611410565b91507f4e6f6e207a65726f2061646472657373207265717569726564000000000000006000830152602082019050919050565b6000610fb6601883611410565b91507f5761697420756e74696c20756e6c6f636b20706572696f6400000000000000006000830152602082019050919050565b6000610ff6602683611410565b91507f416464726573733a20696e73756666696369656e742062616c616e636520666f60008301527f722063616c6c00000000000000000000000000000000000000000000000000006020830152604082019050919050565b600061105c601383611410565b91507f556e617574686f72697a656420416363657373000000000000000000000000006000830152602082019050919050565b600061109c602e83611410565b91507f43616e6e6f7420756e7374616b65206d6f7265207468616e207468652064657060008301527f6f736974656420616d6f756e742e0000000000000000000000000000000000006020830152604082019050919050565b6000611102601d83611410565b91507f416464726573733a2063616c6c20746f206e6f6e2d636f6e74726163740000006000830152602082019050919050565b6000611142602a83611410565b91507f5361666545524332303a204552433230206f7065726174696f6e20646964206e60008301527f6f742073756363656564000000000000000000000000000000000000000000006020830152604082019050919050565b6111a481611574565b82525050565b60006111b68284610ef0565b915081905092915050565b60006020820190506111d66000830184610ed2565b92915050565b60006060820190506111f16000830186610ed2565b6111fe6020830185610ed2565b61120b604083018461119b565b949350505050565b60006040820190506112286000830185610ed2565b611235602083018461119b565b9392505050565b60006060820190506112516000830186610ed2565b61125e602083018561119b565b61126b604083018461119b565b949350505050565b60006020820190506112886000830184610ee1565b92915050565b60006020820190506112a36000830184610f21565b92915050565b600060208201905081810360008301526112c38184610f30565b905092915050565b600060208201905081810360008301526112e481610f69565b9050919050565b6000602082019050818103600083015261130481610fa9565b9050919050565b6000602082019050818103600083015261132481610fe9565b9050919050565b600060208201905081810360008301526113448161104f565b9050919050565b600060208201905081810360008301526113648161108f565b9050919050565b60006020820190508181036000830152611384816110f5565b9050919050565b600060208201905081810360008301526113a481611135565b9050919050565b60006020820190506113c0600083018461119b565b92915050565b60006040820190506113db600083018561119b565b6113e8602083018461119b565b9392505050565b600081519050919050565b600081519050919050565b600081905092915050565b600082825260208201905092915050565b600061142c82611574565b915061143783611574565b9250827fffffffffffffffffffffffffffffffffffffffffffffffffffffffffffffffff0382111561146c5761146b6115d5565b5b828201905092915050565b600061148282611574565b915061148d83611574565b92508261149d5761149c611604565b5b828204905092915050565b60006114b382611574565b91506114be83611574565b9250817fffffffffffffffffffffffffffffffffffffffffffffffffffffffffffffffff04831182151516156114f7576114f66115d5565b5b828202905092915050565b600061150d82611574565b915061151883611574565b92508282101561152b5761152a6115d5565b5b828203905092915050565b600061154182611554565b9050919050565b60008115159050919050565b600073ffffffffffffffffffffffffffffffffffffffff82169050919050565b6000819050919050565b600061158982611590565b9050919050565b600061159b82611554565b9050919050565b60005b838110156115c05780820151818401526020810190506115a5565b838111156115cf576000848401525b50505050565b7f4e487b7100000000000000000000000000000000000000000000000000000000600052601160045260246000fd5b7f4e487b7100000000000000000000000000000000000000000000000000000000600052601260045260246000fd5b6000601f19601f8301169050919050565b61164d81611536565b811461165857600080fd5b50565b61166481611548565b811461166f57600080fd5b50565b61167b81611574565b811461168657600080fd5b5056fea2646970667358221220711dd2aa87b7121089fdd0b2a9257a2e384979e36c10409665afe4b8f9d71a5e64736f6c63430008000033",
  "linkReferences": {},
  "deployedLinkReferences": {}
}