{
  "_format": "hh-sol-artifact-1",
  "contractName": "Pausable",
  "sourceName": "contracts/Pausable.sol",
  "abi": [
    {
      "anonymous": false,
      "inputs": [
        {
          "indexed": false,
          "internalType": "address",
          "name": "",
          "type": "address"
        }
      ],
      "name": "OwnerChanged",
      "type": "event"
    },
    {
      "inputs": [
        {
          "internalType": "bytes32",
          "name": "c__0x2ea11148",
          "type": "bytes32"
        }
      ],
      "name": "c_0x2ea11148",
      "outputs": [],
      "stateMutability": "pure",
      "type": "function"
    },
    {
      "inputs": [
        {
          "internalType": "bytes32",
          "name": "c__0xbeda7c0c",
          "type": "bytes32"
        }
      ],
      "name": "c_0xbeda7c0c",
      "outputs": [],
      "stateMutability": "pure",
      "type": "function"
    },
    {
      "inputs": [
        {
          "internalType": "address",
          "name": "newOwner",
          "type": "address"
        }
      ],
      "name": "changeOwner",
      "outputs": [
        {
          "internalType": "bool",
          "name": "success",
          "type": "bool"
        }
      ],
      "stateMutability": "nonpayable",
      "type": "function"
    },
    {
      "inputs": [],
      "name": "isPaused",
      "outputs": [
        {
          "internalType": "bool",
          "name": "",
          "type": "bool"
        }
      ],
      "stateMutability": "view",
      "type": "function"
    },
    {
      "inputs": [],
      "name": "owner",
      "outputs": [
        {
          "internalType": "address",
          "name": "",
          "type": "address"
        }
      ],
      "stateMutability": "view",
      "type": "function"
    },
    {
      "inputs": [],
      "name": "pause",
      "outputs": [],
      "stateMutability": "nonpayable",
      "type": "function"
    },
    {
      "inputs": [],
      "name": "renounceOwnership",
      "outputs": [
        {
          "internalType": "bool",
          "name": "success",
          "type": "bool"
        }
      ],
      "stateMutability": "nonpayable",
      "type": "function"
    },
    {
      "inputs": [],
      "name": "returnOwner",
      "outputs": [
        {
          "internalType": "address",
          "name": "",
          "type": "address"
        }
      ],
      "stateMutability": "view",
      "type": "function"
    },
    {
      "inputs": [],
      "name": "unPause",
      "outputs": [],
      "stateMutability": "nonpayable",
      "type": "function"
    }
  ],
  "bytecode": "0x608060405234801561001057600080fd5b5061106c806100206000396000f3fe608060405234801561001057600080fd5b50600436106100935760003560e01c806394a927fe1161006657806394a927fe146100fa578063a154674414610118578063a6f9dae114610134578063b187bd2614610164578063f7b188a51461018257610093565b806350acfe5314610098578063715018a6146100b45780638456cb59146100d25780638da5cb5b146100dc575b600080fd5b6100b260048036038101906100ad9190610ed2565b61018c565b005b6100bc61018f565b6040516100c99190610f74565b60405180910390f35b6100da6104f9565b005b6100e461072f565b6040516100f19190610f59565b60405180910390f35b610102610753565b60405161010f9190610f59565b60405180910390f35b610132600480360381019061012d9190610ed2565b6107ff565b005b61014e60048036038101906101499190610ea9565b610802565b60405161015b9190610f74565b60405180910390f35b61016c610c37565b6040516101799190610f74565b60405180910390f35b61018a610c4a565b005b50565b60006101bd7fc8b7047caa449fcb4650d3e95fb615e5f8aaaf82ad7865252a59cad7c0f2d28e60001b61018c565b6101e97f2dd5f7ac4b2b72d1d5550569909caca3f18cd727a238ea4575d6cf79efb8ff1660001b61018c565b6102157f35ab2671c7dc5744467dacb3dbb9d212364ab64f6ef74dd54f6aaccd736e4fef60001b61018c565b6102417f11251ad21d0f71f8ff840535f90b8ec928f107492d02d6baaa79c397a7fd128c60001b61018c565b60008054906101000a900473ffffffffffffffffffffffffffffffffffffffff1673ffffffffffffffffffffffffffffffffffffffff163373ffffffffffffffffffffffffffffffffffffffff16146102cf576040517f08c379a00000000000000000000000000000000000000000000000000000000081526004016102c690610f8f565b60405180910390fd5b6102fb7ffa9c188bec83e777947f5867bce0acc86329a2a7075a7d0279672d852c44be8f60001b61018c565b6103267e145bb05a5c2f8cc3266724f76666e1e3aefecd65508bb2dc08ef073b944afa60001b61018c565b6103527fa1cf0f93c879477a2d9fa3e9b36a80f358943366cd4ceded83d94ec45aa9b01260001b61018c565b61037e7fd1311729216acb0d83912ef3363fdfcf02195a405b0dd8a23726eb0740b1a30f60001b61018c565b6103aa7fff2a3292c3e6f8e47848a529c407a27c38790bf6e55b51b1b7837d46ce8c62cd60001b61018c565b60008060006101000a81548173ffffffffffffffffffffffffffffffffffffffff021916908373ffffffffffffffffffffffffffffffffffffffff1602179055506104177fc97ee9ddbc921c5f724e28e48917f3a8832b869e51e3bc5b686b60c41a3b768b60001b61018c565b6104437f1f8b0d57c6a343eecf4a994c11004a20c382e610a07810db7ecdbab8aa66f32f60001b61018c565b7fa2ea9883a321a3e97b8266c2b078bfeec6d50c711ed71f874a90d500ae2eaf3660008054906101000a900473ffffffffffffffffffffffffffffffffffffffff166040516104929190610f59565b60405180910390a16104c67f4b62937b7cd24f376ffe23df304d3098562ca2dcbc887d52d0f48b481a732cfe60001b61018c565b6104f27f7004f6f321856fd5a467aa26537c1e67d635296dce6499ff839ac5d398e6200760001b61018c565b6001905090565b6105257fc8b7047caa449fcb4650d3e95fb615e5f8aaaf82ad7865252a59cad7c0f2d28e60001b61018c565b6105517f2dd5f7ac4b2b72d1d5550569909caca3f18cd727a238ea4575d6cf79efb8ff1660001b61018c565b61057d7f35ab2671c7dc5744467dacb3dbb9d212364ab64f6ef74dd54f6aaccd736e4fef60001b61018c565b6105a97f11251ad21d0f71f8ff840535f90b8ec928f107492d02d6baaa79c397a7fd128c60001b61018c565b60008054906101000a900473ffffffffffffffffffffffffffffffffffffffff1673ffffffffffffffffffffffffffffffffffffffff163373ffffffffffffffffffffffffffffffffffffffff1614610637576040517f08c379a000000000000000000000000000000000000000000000000000000000815260040161062e90610f8f565b60405180910390fd5b6106637ffa9c188bec83e777947f5867bce0acc86329a2a7075a7d0279672d852c44be8f60001b61018c565b61068e7e145bb05a5c2f8cc3266724f76666e1e3aefecd65508bb2dc08ef073b944afa60001b61018c565b6106ba7f71501c7949d461a91631bf97a27722feded3a27cdb96c6af965d74771cd7730a60001b6107ff565b6106e67fc87ada97cfbf987d5a159b7f833b333160986cea928c9234d2cabab54ef7734a60001b6107ff565b6107127f419a3889ddca6e81e68c74a7d9d3d9144cff1e202442d3fadf5a095ae504682e60001b6107ff565b6001600060146101000a81548160ff021916908315150217905550565b60008054906101000a900473ffffffffffffffffffffffffffffffffffffffff1681565b60006107817fb81d6c1e37a1e1051536e206d36ced0f93f93a4c94216e57d562d35bab0afc5a60001b61018c565b6107ad7fc34c1f66f9d28818f21f5fa7ef5c319221aa26565d6a798532b35f2217f6074f60001b61018c565b6107d97f2b31992af92d5dff20d5ce69779b115ad7f06fba2dbf4020d62c709b8bd0c7c360001b61018c565b60008054906101000a900473ffffffffffffffffffffffffffffffffffffffff16905090565b50565b60006108307fc8b7047caa449fcb4650d3e95fb615e5f8aaaf82ad7865252a59cad7c0f2d28e60001b61018c565b61085c7f2dd5f7ac4b2b72d1d5550569909caca3f18cd727a238ea4575d6cf79efb8ff1660001b61018c565b6108887f35ab2671c7dc5744467dacb3dbb9d212364ab64f6ef74dd54f6aaccd736e4fef60001b61018c565b6108b47f11251ad21d0f71f8ff840535f90b8ec928f107492d02d6baaa79c397a7fd128c60001b61018c565b60008054906101000a900473ffffffffffffffffffffffffffffffffffffffff1673ffffffffffffffffffffffffffffffffffffffff163373ffffffffffffffffffffffffffffffffffffffff1614610942576040517f08c379a000000000000000000000000000000000000000000000000000000000815260040161093990610f8f565b60405180910390fd5b61096e7ffa9c188bec83e777947f5867bce0acc86329a2a7075a7d0279672d852c44be8f60001b61018c565b6109997e145bb05a5c2f8cc3266724f76666e1e3aefecd65508bb2dc08ef073b944afa60001b61018c565b6109c57f55bb1a1afd70e66259cb2bdbc0886788741d25f73ccfeaa3d3288b11ef5ff8db60001b61018c565b6109f17f8f4b01e9179e4cdd8d1f155f2dc345566143c82ea85d2f17a5073547afa92b9960001b61018c565b610a1d7f5fe78410b42fec71eef94ccad0c535261bcd7e41a8ad744359e8cb5571c411a860001b61018c565b610a497f881ce18438b4f80f22e3f757881e673aeb9a85e65732bc6fc0b8c40b384c9b2660001b61018c565b600073ffffffffffffffffffffffffffffffffffffffff168273ffffffffffffffffffffffffffffffffffffffff161415610a8357600080fd5b610aaf7f071f8af13727be400e23e5e43f2229d76771a92b5cd881a1afc0bccadc52543260001b61018c565b610adb7fd909f2bf3c29e9c2fdc09ef79e30d71a0d1727380668d45d295062942b97af9860001b61018c565b610b077f7b300cb776e76eaddcbeec7f5fc671ce3c858bba9c33dadf679baf9ca16f381960001b61018c565b816000806101000a81548173ffffffffffffffffffffffffffffffffffffffff021916908373ffffffffffffffffffffffffffffffffffffffff160217905550610b737f39db85048ffb9dacb7cff675ae0b406b176b29290d305cd6bf33a9045b93a0a860001b61018c565b610b9f7fa494df1f4b83d7d7dd75681e8d839144c5e5f26cef18a5dc140908164a4235cf60001b61018c565b7fa2ea9883a321a3e97b8266c2b078bfeec6d50c711ed71f874a90d500ae2eaf3682604051610bce9190610f59565b60405180910390a1610c027fb6fa6df4d7eb8ef433be89d650d6ec7b0eca0b369bb4df3eab71a2dacc0ab40d60001b61018c565b610c2e7f97c4819a5f2afd35d65ff5817ff50035679d4fc5c0c48be67afa43da592f462260001b61018c565b60019050919050565b600060149054906101000a900460ff1681565b610c767fc8b7047caa449fcb4650d3e95fb615e5f8aaaf82ad7865252a59cad7c0f2d28e60001b61018c565b610ca27f2dd5f7ac4b2b72d1d5550569909caca3f18cd727a238ea4575d6cf79efb8ff1660001b61018c565b610cce7f35ab2671c7dc5744467dacb3dbb9d212364ab64f6ef74dd54f6aaccd736e4fef60001b61018c565b610cfa7f11251ad21d0f71f8ff840535f90b8ec928f107492d02d6baaa79c397a7fd128c60001b61018c565b60008054906101000a900473ffffffffffffffffffffffffffffffffffffffff1673ffffffffffffffffffffffffffffffffffffffff163373ffffffffffffffffffffffffffffffffffffffff1614610d88576040517f08c379a0000000000000000000000000000000000000000000000000000000008152600401610d7f90610f8f565b60405180910390fd5b610db47ffa9c188bec83e777947f5867bce0acc86329a2a7075a7d0279672d852c44be8f60001b61018c565b610ddf7e145bb05a5c2f8cc3266724f76666e1e3aefecd65508bb2dc08ef073b944afa60001b61018c565b610e0b7f31bb6628c982e5f2aef05dc11910eb29274cf8a1e79eaaced313e5bffb4fdac160001b6107ff565b610e377ffd9ba05788d65bb80610beb89347b68bd09747d1d3acaa96e38db32b4745f44060001b6107ff565b610e637f0b9e075c4d08cd00d06fb288be1ba9c82b5eeb161ae3210d3f2a27b048989bcf60001b6107ff565b60008060146101000a81548160ff021916908315150217905550565b600081359050610e8e81611008565b92915050565b600081359050610ea38161101f565b92915050565b600060208284031215610ebb57600080fd5b6000610ec984828501610e7f565b91505092915050565b600060208284031215610ee457600080fd5b6000610ef284828501610e94565b91505092915050565b610f0481610fc0565b82525050565b610f1381610fd2565b82525050565b6000610f26601383610faf565b91507f556e617574686f72697a656420416363657373000000000000000000000000006000830152602082019050919050565b6000602082019050610f6e6000830184610efb565b92915050565b6000602082019050610f896000830184610f0a565b92915050565b60006020820190508181036000830152610fa881610f19565b9050919050565b600082825260208201905092915050565b6000610fcb82610fe8565b9050919050565b60008115159050919050565b6000819050919050565b600073ffffffffffffffffffffffffffffffffffffffff82169050919050565b61101181610fc0565b811461101c57600080fd5b50565b61102881610fde565b811461103357600080fd5b5056fea26469706673582212202fad02d2bea5c0885b59ecd0a100fedbc98e2751cf94556cc85bd0ef465a314264736f6c63430008000033",
  "linkReferences": {},
  "deployedLinkReferences": {}
}