{
  "_format": "hh-sol-artifact-1",
  "contractName": "Ownable",
  "sourceName": "contracts/Ownable.sol",
  "abi": [
    {
      "inputs": [
        {
          "internalType": "address",
          "name": "newOwner",
          "type": "address"
        }
      ],
      "name": "changeOwner",
      "outputs": [
        {
          "internalType": "bool",
          "name": "success",
          "type": "bool"
        }
      ],
      "stateMutability": "nonpayable",
      "type": "function"
    },
    {
      "inputs": [],
      "name": "owner",
      "outputs": [
        {
          "internalType": "address",
          "name": "",
          "type": "address"
        }
      ],
      "stateMutability": "view",
      "type": "function"
    },
    {
      "inputs": [],
      "name": "renounceOwnership",
      "outputs": [
        {
          "internalType": "bool",
          "name": "success",
          "type": "bool"
        }
      ],
      "stateMutability": "nonpayable",
      "type": "function"
    },
    {
      "inputs": [],
      "name": "returnOwner",
      "outputs": [
        {
          "internalType": "address",
          "name": "",
          "type": "address"
        }
      ],
      "stateMutability": "view",
      "type": "function"
    }
  ],
  "bytecode": "0x608060405234801561001057600080fd5b50610469806100206000396000f3fe608060405234801561001057600080fd5b506004361061004c5760003560e01c8063715018a6146100515780638da5cb5b1461006f57806394a927fe1461008d578063a6f9dae1146100ab575b600080fd5b6100596100db565b6040516100669190610392565b60405180910390f35b6100776101b4565b6040516100849190610377565b60405180910390f35b6100956101d8565b6040516100a29190610377565b60405180910390f35b6100c560048036038101906100c091906102f0565b610201565b6040516100d29190610392565b60405180910390f35b60008060009054906101000a900473ffffffffffffffffffffffffffffffffffffffff1673ffffffffffffffffffffffffffffffffffffffff163373ffffffffffffffffffffffffffffffffffffffff161461016c576040517f08c379a0000000000000000000000000000000000000000000000000000000008152600401610163906103ad565b60405180910390fd5b60008060006101000a81548173ffffffffffffffffffffffffffffffffffffffff021916908373ffffffffffffffffffffffffffffffffffffffff1602179055506001905090565b60008054906101000a900473ffffffffffffffffffffffffffffffffffffffff1681565b60008060009054906101000a900473ffffffffffffffffffffffffffffffffffffffff16905090565b60008060009054906101000a900473ffffffffffffffffffffffffffffffffffffffff1673ffffffffffffffffffffffffffffffffffffffff163373ffffffffffffffffffffffffffffffffffffffff1614610292576040517f08c379a0000000000000000000000000000000000000000000000000000000008152600401610289906103ad565b60405180910390fd5b816000806101000a81548173ffffffffffffffffffffffffffffffffffffffff021916908373ffffffffffffffffffffffffffffffffffffffff16021790555060019050919050565b6000813590506102ea8161041c565b92915050565b60006020828403121561030257600080fd5b6000610310848285016102db565b91505092915050565b610322816103de565b82525050565b610331816103f0565b82525050565b60006103446013836103cd565b91507f556e617574686f72697a656420416363657373000000000000000000000000006000830152602082019050919050565b600060208201905061038c6000830184610319565b92915050565b60006020820190506103a76000830184610328565b92915050565b600060208201905081810360008301526103c681610337565b9050919050565b600082825260208201905092915050565b60006103e9826103fc565b9050919050565b60008115159050919050565b600073ffffffffffffffffffffffffffffffffffffffff82169050919050565b610425816103de565b811461043057600080fd5b5056fea2646970667358221220329ad75a0e5c8752d4bd3e8ee0cc8c0cf481d7ba3db117199ec8d76e16ac034f64736f6c63430008000033",
  "linkReferences": {},
  "deployedLinkReferences": {}
}