{
  "_format": "hh-sol-artifact-1",
  "contractName": "StakingContract",
  "sourceName": "contracts/StakingContract.sol",
  "abi": [
    {
      "inputs": [
        {
          "internalType": "contract IERC20",
          "name": "tokenAddress",
          "type": "address"
        },
        {
          "internalType": "address",
          "name": "treasuryAddress",
          "type": "address"
        }
      ],
      "stateMutability": "nonpayable",
      "type": "constructor"
    },
    {
      "anonymous": false,
      "inputs": [
        {
          "indexed": false,
          "internalType": "address",
          "name": "",
          "type": "address"
        }
      ],
      "name": "OwnerChanged",
      "type": "event"
    },
    {
      "anonymous": false,
      "inputs": [
        {
          "indexed": false,
          "internalType": "address",
          "name": "",
          "type": "address"
        },
        {
          "indexed": false,
          "internalType": "uint256",
          "name": "",
          "type": "uint256"
        },
        {
          "indexed": false,
          "internalType": "uint256",
          "name": "",
          "type": "uint256"
        }
      ],
      "name": "StakedEvent",
      "type": "event"
    },
    {
      "anonymous": false,
      "inputs": [
        {
          "indexed": false,
          "internalType": "address",
          "name": "",
          "type": "address"
        }
      ],
      "name": "TreasuryAddressChanged",
      "type": "event"
    },
    {
      "anonymous": false,
      "inputs": [
        {
          "indexed": false,
          "internalType": "address",
          "name": "",
          "type": "address"
        },
        {
          "indexed": false,
          "internalType": "uint256",
          "name": "",
          "type": "uint256"
        },
        {
          "indexed": false,
          "internalType": "uint256",
          "name": "",
          "type": "uint256"
        }
      ],
      "name": "UnstakedEvent",
      "type": "event"
    },
    {
      "inputs": [
        {
          "internalType": "bytes32",
          "name": "c__0x2ea11148",
          "type": "bytes32"
        }
      ],
      "name": "c_0x2ea11148",
      "outputs": [],
      "stateMutability": "pure",
      "type": "function"
    },
    {
      "inputs": [
        {
          "internalType": "bytes32",
          "name": "c__0x5be14d66",
          "type": "bytes32"
        }
      ],
      "name": "c_0x5be14d66",
      "outputs": [],
      "stateMutability": "pure",
      "type": "function"
    },
    {
      "inputs": [
        {
          "internalType": "address",
          "name": "newOwner",
          "type": "address"
        }
      ],
      "name": "changeOwner",
      "outputs": [
        {
          "internalType": "bool",
          "name": "success",
          "type": "bool"
        }
      ],
      "stateMutability": "nonpayable",
      "type": "function"
    },
    {
      "inputs": [
        {
          "internalType": "address",
          "name": "newTreasuryAddress",
          "type": "address"
        }
      ],
      "name": "changeTreasuryAddress",
      "outputs": [],
      "stateMutability": "nonpayable",
      "type": "function"
    },
    {
      "inputs": [],
      "name": "collectFees",
      "outputs": [],
      "stateMutability": "nonpayable",
      "type": "function"
    },
    {
      "inputs": [],
      "name": "erc20Address",
      "outputs": [
        {
          "internalType": "contract IERC20",
          "name": "",
          "type": "address"
        }
      ],
      "stateMutability": "view",
      "type": "function"
    },
    {
      "inputs": [],
      "name": "feesCollected",
      "outputs": [
        {
          "internalType": "uint256",
          "name": "",
          "type": "uint256"
        }
      ],
      "stateMutability": "view",
      "type": "function"
    },
    {
      "inputs": [],
      "name": "owner",
      "outputs": [
        {
          "internalType": "address",
          "name": "",
          "type": "address"
        }
      ],
      "stateMutability": "view",
      "type": "function"
    },
    {
      "inputs": [],
      "name": "renounceOwnership",
      "outputs": [
        {
          "internalType": "bool",
          "name": "success",
          "type": "bool"
        }
      ],
      "stateMutability": "nonpayable",
      "type": "function"
    },
    {
      "inputs": [],
      "name": "returnOwner",
      "outputs": [
        {
          "internalType": "address",
          "name": "",
          "type": "address"
        }
      ],
      "stateMutability": "view",
      "type": "function"
    },
    {
      "inputs": [
        {
          "internalType": "uint256",
          "name": "amount",
          "type": "uint256"
        }
      ],
      "name": "stake",
      "outputs": [],
      "stateMutability": "nonpayable",
      "type": "function"
    },
    {
      "inputs": [
        {
          "internalType": "address",
          "name": "",
          "type": "address"
        }
      ],
      "name": "staked",
      "outputs": [
        {
          "internalType": "uint256",
          "name": "stakedAmount",
          "type": "uint256"
        },
        {
          "internalType": "uint256",
          "name": "stakedTimestamp",
          "type": "uint256"
        }
      ],
      "stateMutability": "view",
      "type": "function"
    },
    {
      "inputs": [],
      "name": "treasury",
      "outputs": [
        {
          "internalType": "address",
          "name": "",
          "type": "address"
        }
      ],
      "stateMutability": "view",
      "type": "function"
    },
    {
      "inputs": [
        {
          "internalType": "uint256",
          "name": "amount",
          "type": "uint256"
        }
      ],
      "name": "unStake",
      "outputs": [],
      "stateMutability": "nonpayable",
      "type": "function"
    }
  ],
  "bytecode": "0x60a06040523480156200001157600080fd5b506040516200383a3803806200383a8339818101604052810190620000379190620006f3565b6200006b7f3e4eb870e1c28051676996f94e07486c997aa594987b561bea5759d6e3e2edf760001b6200023360201b60201c565b6200009f7f59633c61222fcc321ed96bef7d4a4f48733a7dade5f582dfd1a3ae601a01750160001b6200023360201b60201c565b620000d37f0356e64824a33a92c009e88e94dfd343d9b4988f7a09bda752135cb7d52c18c860001b6200023360201b60201c565b8173ffffffffffffffffffffffffffffffffffffffff1660808173ffffffffffffffffffffffffffffffffffffffff1660601b815250506200013e7f4f26e5c5357190506551bea2fbf0279756e590e95736d9cece2a9a88b488b53460001b6200023360201b60201c565b620001727f04a75b6ddac42e051cbc92abe32c35eae87f5f0ac47ae2af3e91db2ba8d60ac160001b6200023360201b60201c565b336000806101000a81548173ffffffffffffffffffffffffffffffffffffffff021916908373ffffffffffffffffffffffffffffffffffffffff160217905550620001e67fa481279e7653fab4d6d51b80dc5cd7280ce9542504f666804284e06d761d6f7460001b6200023360201b60201c565b6200021a7f649b6a9d5f8f60fbe04d7343685208c3c76c51ae63d744ae6aa0d34f4119548360001b6200023360201b60201c565b6200022b816200023660201b60201c565b5050620008b7565b50565b6200026a7fc8b7047caa449fcb4650d3e95fb615e5f8aaaf82ad7865252a59cad7c0f2d28e60001b620006c260201b60201c565b6200029e7f2dd5f7ac4b2b72d1d5550569909caca3f18cd727a238ea4575d6cf79efb8ff1660001b620006c260201b60201c565b620002d27f35ab2671c7dc5744467dacb3dbb9d212364ab64f6ef74dd54f6aaccd736e4fef60001b620006c260201b60201c565b620003067f11251ad21d0f71f8ff840535f90b8ec928f107492d02d6baaa79c397a7fd128c60001b620006c260201b60201c565b60008054906101000a900473ffffffffffffffffffffffffffffffffffffffff1673ffffffffffffffffffffffffffffffffffffffff163373ffffffffffffffffffffffffffffffffffffffff161462000397576040517f08c379a00000000000000000000000000000000000000000000000000000000081526004016200038e9062000808565b60405180910390fd5b620003cb7ffa9c188bec83e777947f5867bce0acc86329a2a7075a7d0279672d852c44be8f60001b620006c260201b60201c565b620003fe7e145bb05a5c2f8cc3266724f76666e1e3aefecd65508bb2dc08ef073b944afa60001b620006c260201b60201c565b620004327f7840158ff8a3d4621a1d8d942322201a96737eb7d3d5c8b4ae765adb4df3403960001b6200023360201b60201c565b620004667fdd0d2e128f6a5bdc129200728d2ec702d7a11c032d978712f8816bf2610c638e60001b6200023360201b60201c565b6200049a7f193234d92fa47312053f4548556d17fa4b2dbb9aae8e97020343b9930d77a83b60001b6200023360201b60201c565b620004ce7f088149e54a4ac56b41530bd8d9c64f6742c51a3e99fb1babb3cff79aa2a6c1a760001b6200023360201b60201c565b600073ffffffffffffffffffffffffffffffffffffffff168173ffffffffffffffffffffffffffffffffffffffff16141562000541576040517f08c379a00000000000000000000000000000000000000000000000000000000081526004016200053890620007e6565b60405180910390fd5b620005757f05962fff9e6e6e413a51871dcec4b2b3ecc596de724489e808aad419aefe2e9760001b6200023360201b60201c565b620005a97f08031d7e16eb467fed997a4d64e704956cec527faff2c6a9eeb495045d02853c60001b6200023360201b60201c565b620005dd7fae0ff5f643d2ad1d072ea4531031b7d575a65f8b33de2e27e79cdb654beda85560001b6200023360201b60201c565b80600360006101000a81548173ffffffffffffffffffffffffffffffffffffffff021916908373ffffffffffffffffffffffffffffffffffffffff160217905550620006527f4d0de97aefa62785516ef4b5f58df60732af4771a9cab896443ed05912ab738760001b6200023360201b60201c565b620006867f7821719cde9c02172ceff5e322b68ab52e0330498d667d6a42bf7f47001c88fd60001b6200023360201b60201c565b7f9073dfac663173e64aa95665faedae52e2246f9bcdd3890fbfaf6733b46bba1381604051620006b79190620007c9565b60405180910390a150565b50565b600081519050620006d68162000883565b92915050565b600081519050620006ed816200089d565b92915050565b600080604083850312156200070757600080fd5b60006200071785828601620006dc565b92505060206200072a85828601620006c5565b9150509250929050565b6200073f816200083b565b82525050565b6000620007546019836200082a565b91507f4e6f6e207a65726f2061646472657373207265717569726564000000000000006000830152602082019050919050565b6000620007966013836200082a565b91507f556e617574686f72697a656420416363657373000000000000000000000000006000830152602082019050919050565b6000602082019050620007e0600083018462000734565b92915050565b60006020820190508181036000830152620008018162000745565b9050919050565b60006020820190508181036000830152620008238162000787565b9050919050565b600082825260208201905092915050565b6000620008488262000863565b9050919050565b60006200085c826200083b565b9050919050565b600073ffffffffffffffffffffffffffffffffffffffff82169050919050565b6200088e816200083b565b81146200089a57600080fd5b50565b620008a8816200084f565b8114620008b457600080fd5b50565b60805160601c612f4f620008eb6000396000818161029c0152818161065501528181610c4001526119590152612f4f6000f3fe608060405234801561001057600080fd5b50600436106100ea5760003560e01c806398807d841161008c578063a6f9dae111610066578063a6f9dae114610226578063c32aadcb14610256578063c879657214610272578063f071db5a1461027c576100ea565b806398807d84146101bd578063a694fc3a146101ee578063a6f353f01461020a576100ea565b806361d027b3116100c857806361d027b314610145578063715018a6146101635780638da5cb5b1461018157806394a927fe1461019f576100ea565b8063276184ae146100ef57806350acfe531461010d5780635d3eea9114610129575b600080fd5b6100f761029a565b6040516101049190612afd565b60405180910390f35b610127600480360381019061012291906126ef565b6102be565b005b610143600480360381019061013e9190612718565b6102c1565b005b61014d610730565b60405161015a9190612a30565b60405180910390f35b61016b610756565b6040516101789190612ae2565b60405180910390f35b610189610ac0565b6040516101969190612a30565b60405180910390f35b6101a7610ae4565b6040516101b49190612a30565b60405180910390f35b6101d760048036038101906101d2919061269d565b610b90565b6040516101e5929190612c35565b60405180910390f35b61020860048036038101906102039190612718565b610bb4565b005b610224600480360381019061021f919061269d565b610ed1565b005b610240600480360381019061023b919061269d565b6112dd565b60405161024d9190612ae2565b60405180910390f35b610270600480360381019061026b91906126ef565b611712565b005b61027a611715565b005b61028461199f565b6040516102919190612c1a565b60405180910390f35b7f000000000000000000000000000000000000000000000000000000000000000081565b50565b6102ed7f392fb6b119d44e4871718a7b15a863f6e8e8fc114892d6a29a4c732ca744452c60001b611712565b6103197f97bae838be126572ff5e6c3a4e738a30ad27fa061c2394d534aa39d163c2c55260001b611712565b6103457f3f6045e28ae39dcadc6365fbe557cad01e34fd960d2305b59cb2a61afa456a0760001b611712565b6000600160003373ffffffffffffffffffffffffffffffffffffffff1673ffffffffffffffffffffffffffffffffffffffff16815260200190815260200160002090506103b47f712f7ef8d70bf7f230a52ca1285040776fa7647128a17904481be0d1db94f00660001b611712565b6103e07feac9f17d50e0ce000d2675f4031c120c81a4308570c9551b0702c372c1d5a6dc60001b611712565b61040c7f7f79893589f1f25cbfe25415695c8bf49a420b6b359c7a14931ff9f407e8ec7960001b611712565b611c2081600101544261041f9190612d71565b1015610460576040517f08c379a000000000000000000000000000000000000000000000000000000000815260040161045790612b5a565b60405180910390fd5b61048c7f0d537770b30ba6f3adf28a5a67825493676ddd01d1f42c473ebfb117e775c5b960001b611712565b6104b87fa066df7545b5e8c086082947298b0cd6892bc415ee5e77498fec648445830ef960001b611712565b6104e47f720ae51e932fdc895d632d12f7a917bb9313db4390153f65c12a62178fc1293c60001b611712565b6105107f0fecb234d1743dc5608886a2b06b535c76e1314869947a5e2c0327c7e51d73dd60001b611712565b8181600001541015610557576040517f08c379a000000000000000000000000000000000000000000000000000000000815260040161054e90612bba565b60405180910390fd5b6105837ffe16c83151580e8d7bab56e6fb24e4a74b7e6e412f15e2164240d0867b49b7f060001b611712565b6105af7f9ae02790039a659bb536f53519e8be7966e1a401c5779782fb9529f2b9e5c77e60001b611712565b6105db7f3f6a4ab19769fd823188ebc5835f9188007067db1f6f282349792f2bb392490a60001b611712565b818160000160008282546105ef9190612d71565b925050819055506106227f8892761977cdedf38888f9610fe694b15e0b4087560719f62847b306b7df799060001b611712565b61064e7fbfc75cfd0f85fafad171efd84353616c6828ebc74c2a1fab129df60424fd1b7960001b611712565b61069933837f000000000000000000000000000000000000000000000000000000000000000073ffffffffffffffffffffffffffffffffffffffff166119a59092919063ffffffff16565b6106c57f47afa6edd4409465b22d5d6256a16a0f97831a6acb13fd043459ec894260ef9c60001b611712565b6106f17f9c56f207d6e6c5a99744d3da465ca31e034e4275417e2ce5232ecb953c0eb85460001b611712565b7f267a093b38a82a99fd51624aac25cecd7fb617ec39af258f03f9680540d6bba233834260405161072493929190612aab565b60405180910390a15050565b600360009054906101000a900473ffffffffffffffffffffffffffffffffffffffff1681565b60006107847fc8b7047caa449fcb4650d3e95fb615e5f8aaaf82ad7865252a59cad7c0f2d28e60001b6102be565b6107b07f2dd5f7ac4b2b72d1d5550569909caca3f18cd727a238ea4575d6cf79efb8ff1660001b6102be565b6107dc7f35ab2671c7dc5744467dacb3dbb9d212364ab64f6ef74dd54f6aaccd736e4fef60001b6102be565b6108087f11251ad21d0f71f8ff840535f90b8ec928f107492d02d6baaa79c397a7fd128c60001b6102be565b60008054906101000a900473ffffffffffffffffffffffffffffffffffffffff1673ffffffffffffffffffffffffffffffffffffffff163373ffffffffffffffffffffffffffffffffffffffff1614610896576040517f08c379a000000000000000000000000000000000000000000000000000000000815260040161088d90612b9a565b60405180910390fd5b6108c27ffa9c188bec83e777947f5867bce0acc86329a2a7075a7d0279672d852c44be8f60001b6102be565b6108ed7e145bb05a5c2f8cc3266724f76666e1e3aefecd65508bb2dc08ef073b944afa60001b6102be565b6109197fa1cf0f93c879477a2d9fa3e9b36a80f358943366cd4ceded83d94ec45aa9b01260001b6102be565b6109457fd1311729216acb0d83912ef3363fdfcf02195a405b0dd8a23726eb0740b1a30f60001b6102be565b6109717fff2a3292c3e6f8e47848a529c407a27c38790bf6e55b51b1b7837d46ce8c62cd60001b6102be565b60008060006101000a81548173ffffffffffffffffffffffffffffffffffffffff021916908373ffffffffffffffffffffffffffffffffffffffff1602179055506109de7fc97ee9ddbc921c5f724e28e48917f3a8832b869e51e3bc5b686b60c41a3b768b60001b6102be565b610a0a7f1f8b0d57c6a343eecf4a994c11004a20c382e610a07810db7ecdbab8aa66f32f60001b6102be565b7fa2ea9883a321a3e97b8266c2b078bfeec6d50c711ed71f874a90d500ae2eaf3660008054906101000a900473ffffffffffffffffffffffffffffffffffffffff16604051610a599190612a30565b60405180910390a1610a8d7f4b62937b7cd24f376ffe23df304d3098562ca2dcbc887d52d0f48b481a732cfe60001b6102be565b610ab97f7004f6f321856fd5a467aa26537c1e67d635296dce6499ff839ac5d398e6200760001b6102be565b6001905090565b60008054906101000a900473ffffffffffffffffffffffffffffffffffffffff1681565b6000610b127fb81d6c1e37a1e1051536e206d36ced0f93f93a4c94216e57d562d35bab0afc5a60001b6102be565b610b3e7fc34c1f66f9d28818f21f5fa7ef5c319221aa26565d6a798532b35f2217f6074f60001b6102be565b610b6a7f2b31992af92d5dff20d5ce69779b115ad7f06fba2dbf4020d62c709b8bd0c7c360001b6102be565b60008054906101000a900473ffffffffffffffffffffffffffffffffffffffff16905090565b60016020528060005260406000206000915090508060000154908060010154905082565b610be07fcded92767ff2bd8cc64afa6a119f52ec92956c440474d1dd85853a8b93c0b01a60001b611712565b610c0c7f9dc888ccaab6a490d1e62b2acf9c533050a6bb10952b6248ebc6e8ee1c82abfb60001b611712565b610c387ff22cd97bf47f00b7fee4a208f9e30d95ed01862b3624c36859f58757c86c912660001b611712565b610c853330837f000000000000000000000000000000000000000000000000000000000000000073ffffffffffffffffffffffffffffffffffffffff16611aaf909392919063ffffffff16565b610cb17f27aec9a788f97fcd96499e845235752cb557639170a44b1f526b8084840dab9360001b611712565b610cdd7f76428ac33664e6b21e44b042e3816e3c972c33b27e3464e1fa09c833c836511a60001b611712565b60006103e8600283610cef9190612d17565b610cf99190612ce6565b9050610d277f368c1e5333a7fdc28b2ea40c39c98212b20efed7ae177644d469967cd2623c0860001b611712565b610d537ff8f0df6c2cfc083d32b869d32e68733077c47c35cd53d49684171bcbd0cf91f460001b611712565b8060026000828254610d659190612c90565b92505081905550610d987f2f97146d1a23c21f7178123e7d45ad26a19962819d6a8f22f38bb6167028876760001b611712565b610dc47f108616dee96a1c35f8e56c549acef60b6bca0a2ae827cd0630d5b1942ae1138c60001b611712565b60405180604001604052808284610ddb9190612d71565b815260200142815250600160003373ffffffffffffffffffffffffffffffffffffffff1673ffffffffffffffffffffffffffffffffffffffff1681526020019081526020016000206000820151816000015560208201518160010155905050610e667f15404683f286d9d7029e446ec1f1b8f5721f7241ed0e122881c4ee2aea9931da60001b611712565b610e927f7c1c0bc643374740c51176b05937fa65c0a8090a6b80e4ca803e8f363ee1e27360001b611712565b7f9c124b95a803ee32203c8a3b4c3364da0aadeba2bd44cf4c2b80c1ecc9bf4082338342604051610ec593929190612aab565b60405180910390a15050565b610efd7fc8b7047caa449fcb4650d3e95fb615e5f8aaaf82ad7865252a59cad7c0f2d28e60001b6102be565b610f297f2dd5f7ac4b2b72d1d5550569909caca3f18cd727a238ea4575d6cf79efb8ff1660001b6102be565b610f557f35ab2671c7dc5744467dacb3dbb9d212364ab64f6ef74dd54f6aaccd736e4fef60001b6102be565b610f817f11251ad21d0f71f8ff840535f90b8ec928f107492d02d6baaa79c397a7fd128c60001b6102be565b60008054906101000a900473ffffffffffffffffffffffffffffffffffffffff1673ffffffffffffffffffffffffffffffffffffffff163373ffffffffffffffffffffffffffffffffffffffff161461100f576040517f08c379a000000000000000000000000000000000000000000000000000000000815260040161100690612b9a565b60405180910390fd5b61103b7ffa9c188bec83e777947f5867bce0acc86329a2a7075a7d0279672d852c44be8f60001b6102be565b6110667e145bb05a5c2f8cc3266724f76666e1e3aefecd65508bb2dc08ef073b944afa60001b6102be565b6110927f7840158ff8a3d4621a1d8d942322201a96737eb7d3d5c8b4ae765adb4df3403960001b611712565b6110be7fdd0d2e128f6a5bdc129200728d2ec702d7a11c032d978712f8816bf2610c638e60001b611712565b6110ea7f193234d92fa47312053f4548556d17fa4b2dbb9aae8e97020343b9930d77a83b60001b611712565b6111167f088149e54a4ac56b41530bd8d9c64f6742c51a3e99fb1babb3cff79aa2a6c1a760001b611712565b600073ffffffffffffffffffffffffffffffffffffffff168173ffffffffffffffffffffffffffffffffffffffff161415611186576040517f08c379a000000000000000000000000000000000000000000000000000000000815260040161117d90612b3a565b60405180910390fd5b6111b27f05962fff9e6e6e413a51871dcec4b2b3ecc596de724489e808aad419aefe2e9760001b611712565b6111de7f08031d7e16eb467fed997a4d64e704956cec527faff2c6a9eeb495045d02853c60001b611712565b61120a7fae0ff5f643d2ad1d072ea4531031b7d575a65f8b33de2e27e79cdb654beda85560001b611712565b80600360006101000a81548173ffffffffffffffffffffffffffffffffffffffff021916908373ffffffffffffffffffffffffffffffffffffffff1602179055506112777f4d0de97aefa62785516ef4b5f58df60732af4771a9cab896443ed05912ab738760001b611712565b6112a37f7821719cde9c02172ceff5e322b68ab52e0330498d667d6a42bf7f47001c88fd60001b611712565b7f9073dfac663173e64aa95665faedae52e2246f9bcdd3890fbfaf6733b46bba13816040516112d29190612a30565b60405180910390a150565b600061130b7fc8b7047caa449fcb4650d3e95fb615e5f8aaaf82ad7865252a59cad7c0f2d28e60001b6102be565b6113377f2dd5f7ac4b2b72d1d5550569909caca3f18cd727a238ea4575d6cf79efb8ff1660001b6102be565b6113637f35ab2671c7dc5744467dacb3dbb9d212364ab64f6ef74dd54f6aaccd736e4fef60001b6102be565b61138f7f11251ad21d0f71f8ff840535f90b8ec928f107492d02d6baaa79c397a7fd128c60001b6102be565b60008054906101000a900473ffffffffffffffffffffffffffffffffffffffff1673ffffffffffffffffffffffffffffffffffffffff163373ffffffffffffffffffffffffffffffffffffffff161461141d576040517f08c379a000000000000000000000000000000000000000000000000000000000815260040161141490612b9a565b60405180910390fd5b6114497ffa9c188bec83e777947f5867bce0acc86329a2a7075a7d0279672d852c44be8f60001b6102be565b6114747e145bb05a5c2f8cc3266724f76666e1e3aefecd65508bb2dc08ef073b944afa60001b6102be565b6114a07f55bb1a1afd70e66259cb2bdbc0886788741d25f73ccfeaa3d3288b11ef5ff8db60001b6102be565b6114cc7f8f4b01e9179e4cdd8d1f155f2dc345566143c82ea85d2f17a5073547afa92b9960001b6102be565b6114f87f5fe78410b42fec71eef94ccad0c535261bcd7e41a8ad744359e8cb5571c411a860001b6102be565b6115247f881ce18438b4f80f22e3f757881e673aeb9a85e65732bc6fc0b8c40b384c9b2660001b6102be565b600073ffffffffffffffffffffffffffffffffffffffff168273ffffffffffffffffffffffffffffffffffffffff16141561155e57600080fd5b61158a7f071f8af13727be400e23e5e43f2229d76771a92b5cd881a1afc0bccadc52543260001b6102be565b6115b67fd909f2bf3c29e9c2fdc09ef79e30d71a0d1727380668d45d295062942b97af9860001b6102be565b6115e27f7b300cb776e76eaddcbeec7f5fc671ce3c858bba9c33dadf679baf9ca16f381960001b6102be565b816000806101000a81548173ffffffffffffffffffffffffffffffffffffffff021916908373ffffffffffffffffffffffffffffffffffffffff16021790555061164e7f39db85048ffb9dacb7cff675ae0b406b176b29290d305cd6bf33a9045b93a0a860001b6102be565b61167a7fa494df1f4b83d7d7dd75681e8d839144c5e5f26cef18a5dc140908164a4235cf60001b6102be565b7fa2ea9883a321a3e97b8266c2b078bfeec6d50c711ed71f874a90d500ae2eaf36826040516116a99190612a30565b60405180910390a16116dd7fb6fa6df4d7eb8ef433be89d650d6ec7b0eca0b369bb4df3eab71a2dacc0ab40d60001b6102be565b6117097f97c4819a5f2afd35d65ff5817ff50035679d4fc5c0c48be67afa43da592f462260001b6102be565b60019050919050565b50565b6117417fc8b7047caa449fcb4650d3e95fb615e5f8aaaf82ad7865252a59cad7c0f2d28e60001b6102be565b61176d7f2dd5f7ac4b2b72d1d5550569909caca3f18cd727a238ea4575d6cf79efb8ff1660001b6102be565b6117997f35ab2671c7dc5744467dacb3dbb9d212364ab64f6ef74dd54f6aaccd736e4fef60001b6102be565b6117c57f11251ad21d0f71f8ff840535f90b8ec928f107492d02d6baaa79c397a7fd128c60001b6102be565b60008054906101000a900473ffffffffffffffffffffffffffffffffffffffff1673ffffffffffffffffffffffffffffffffffffffff163373ffffffffffffffffffffffffffffffffffffffff1614611853576040517f08c379a000000000000000000000000000000000000000000000000000000000815260040161184a90612b9a565b60405180910390fd5b61187f7ffa9c188bec83e777947f5867bce0acc86329a2a7075a7d0279672d852c44be8f60001b6102be565b6118aa7e145bb05a5c2f8cc3266724f76666e1e3aefecd65508bb2dc08ef073b944afa60001b6102be565b6118d67f5b39aa31862b70b7bf274e021255ed6d4706f734db7a542fa0e463e645f0860660001b611712565b6119027fd729b6afed4269d5a1d34ca12c6a4b4e7a12ee8c37e0dfbd48689d76650fc5cb60001b611712565b61192e7fe6f1aa81c56f5bf9a83e061d93ec3fd92e5de5224f8726be7d65396051c75cde60001b611712565b61199d600360009054906101000a900473ffffffffffffffffffffffffffffffffffffffff166002547f000000000000000000000000000000000000000000000000000000000000000073ffffffffffffffffffffffffffffffffffffffff166119a59092919063ffffffff16565b565b60025481565b6119d17f94599e8def5fe0343d8ed11c52553ee88939f92a371a00fc97664a1f86c3d9b160001b611bbc565b6119fd7f01060bbf2e23410742d48483060f8edac7255f153dc9178afe34af9ed394dab860001b611bbc565b611a297f99ec014316306de4a40be55f99c8b9a428ab1dc2864ec8b6ed691840f4aa64a260001b611bbc565b611aaa8363a9059cbb60e01b8484604051602401611a48929190612a82565b604051602081830303815290604052907bffffffffffffffffffffffffffffffffffffffffffffffffffffffff19166020820180517bffffffffffffffffffffffffffffffffffffffffffffffffffffffff8381831617835250505050611bbf565b505050565b611adb7f3e2226b67dac5845daf7cee0423df66ea56b3eb220a32ad926123b4bc0729f7060001b611bbc565b611b077fd70f8fd10e9d2c873acdb4de714b6fb68ccd6ec1974573c24ed01fad686f6c1460001b611bbc565b611b337fdfb1790ef8c6c2cd662248570fffa1af8daaeeeb68945e5a3b0db2f562a8ac3f60001b611bbc565b611bb6846323b872dd60e01b858585604051602401611b5493929190612a4b565b604051602081830303815290604052907bffffffffffffffffffffffffffffffffffffffffffffffffffffffff19166020820180517bffffffffffffffffffffffffffffffffffffffffffffffffffffffff8381831617835250505050611bbf565b50505050565b50565b611beb7f518cf5fe422d6337f04de7c612951917d28e2ee2d94a252940b20cc9a7aca22960001b611bbc565b611c177f34ef3b21d5bbdce5dc970042dd623d474f6b90ea975ec3b5be509a496ce8d6cb60001b611bbc565b611c437ff09970b586ad5a45ab59bb3e201b26d9787d2de25193b5c5e1d4a00cf94ac7fa60001b611bbc565b6000611ca5826040518060400160405280602081526020017f5361666545524332303a206c6f772d6c6576656c2063616c6c206661696c65648152508573ffffffffffffffffffffffffffffffffffffffff16611e6f9092919063ffffffff16565b9050611cd37fd9f4aed25e63119a1749f56ca7d44c9b254315e4260d91f703c73ac6bdd301f560001b611bbc565b611cff7fe5452b865aa0db9fd7dd4187a025a5ad605cc39a26faa23376d12276cb53ec5f60001b611bbc565b600081511115611e3d57611d357f23b19547fd70afff22f8689c394b14fb3048ede5a66617d466620a308467b23560001b611bbc565b611d617fd0eb6a5fe04835e447c0d5f13866ffb67b558bf333ca2b02fc674574f5cddcc460001b611bbc565b611d8d7f6654c64fa083fd7e0cda8a8467e24c1c3b39cfda2bd7b079a49c0b9f0c64dd3b60001b611bbc565b611db97f3d71f980c86e2508b6d160469a9dac12ca72e21d94f5318e0c905e8fe9df8a3160001b611bbc565b80806020019051810190611dcd91906126c6565b611e0c576040517f08c379a0000000000000000000000000000000000000000000000000000000008152600401611e0390612bfa565b60405180910390fd5b611e387f06e483c296949df53d021bba7068fb53fcb87905e10808ae042888398b06f00560001b611bbc565b611e6a565b611e697fc53b02a425fd82c866edebe30f6f72835fa0cdab30bea0d122f5e2cc8140444460001b611bbc565b5b505050565b6060611e9d7fcbb1ec2f7a52c33e40c4eac2fb58e4733f1bc5e6a503db01112dae66b8a81fd660001b611f0b565b611ec97f7513dc5961d8cdaa55b33fe7fca37d125af37700b57b6d82ac1127ad84de715960001b611f0b565b611ef57f312974799f52ed31fa727dc0a5c9fc42fd106d735ea3df3ca69c330c9702c13960001b611f0b565b611f028484600085611f0e565b90509392505050565b50565b6060611f3c7fe87259a38af9dd9661bb42b066a3fd8b3cfc91366ff19a5cd18ff80f5018f91960001b611f0b565b611f687f6fc4938d69c643505502884fc240435fa55729cd8d72bea129996562046b218560001b611f0b565b611f947f3c4c800084f7803795da82193f99796630c71195bcc46ae6379c79da5363d19f60001b611f0b565b611fc07fd5b680c8c0a83d21d83fd4c46d5e93b8f98a2e5debc2967fc4a4711664ca8e2b60001b611f0b565b82471015612003576040517f08c379a0000000000000000000000000000000000000000000000000000000008152600401611ffa90612b7a565b60405180910390fd5b61202f7f8d10f9ad62302e6364493c11fdd3f5eace1eeb9de62fbf738f48c17462a2f7f360001b611f0b565b61205b7f36295b72b08fb75d593b06ee0eaf731a76868bd625c6bc3119223c486b6064af60001b611f0b565b6120877f96d0ad907009f571befb5e6a247ff0604dc06ce92cca9d19bc2f5922725bd5a360001b611f0b565b6120b37fe4124b358e1f297c27189b190695204db8fe6bfaa6b51bc99320a7169521943060001b611f0b565b6120bc8561225e565b6120fb576040517f08c379a00000000000000000000000000000000000000000000000000000000081526004016120f290612bda565b60405180910390fd5b6121277ff0fec6390eef9d1e67e38c10d536d75c57f4c09e7ebc3a83c3b568430aacaf0a60001b611f0b565b6121537fc9ed6408ccf7970c9bfd958b80be7b43335694df8fc89c6827d5bdd228c7e70d60001b611f0b565b61217f7f0a4207b7f5f88ec884d21c7d6a018f17f9f9cfdf035aff7017e7fef0c79081d160001b611f0b565b6000808673ffffffffffffffffffffffffffffffffffffffff1685876040516121a89190612a19565b60006040518083038185875af1925050503d80600081146121e5576040519150601f19603f3d011682016040523d82523d6000602084013e6121ea565b606091505b509150915061221b7f9f8e2eb096fa917ce78db222578276e6f5784931748bef6a2595b958dd099d8660001b611f0b565b6122477fcd6b820c83007bb52cdcebe0a2c7b0c29f1279ee2b5b2fbaa1f0fb11fb89c0d360001b611f0b565b61225282828661237a565b92505050949350505050565b600061228c7ffae3278a897cf2f9c99f77c2d9ba2a27699c8e571d5225314acae26f2918295360001b611f0b565b6122b87f2ccdf497eb9e32d544e7769389f4254eb89dd88a2f40a21d8ecf024c3644223160001b611f0b565b6122e47f7cb125a28b38d6a0e25b3cd589b3acc38cd52291466d0b257963d5a2a97d7e4460001b611f0b565b60006123127f634411c501fc21cfb41b94a4eadd827d79cab978ed2d7cd5aab947498db6e5df60001b611f0b565b823b90506123427f3f24fadda569ad5ab079d5860ad101d6a8c9ebd39dcfbc763d474b5e8d1e6c6960001b611f0b565b61236e7fd80075dbcf6bac06f9a93cd04b721d370f898b43b56604d8f54fb75e986d9f6d60001b611f0b565b60008111915050919050565b60606123a87f18578336a298e1e411824cbbd9661fce9cbbfbc8ea6e54f5c617618a4093c65b60001b611f0b565b6123d47f04f614ae6c9fdad1ac6dc4f83f6fa90f58d2ac3ca454188cf3a10f3116f9f32460001b611f0b565b6124007f4d6b04a966afaffc231d95e2343462fc71a353d7e496bd07ae73df3cec57438c60001b611f0b565b8315612492576124327ff7db067b51469359899fd08fe6177a5a91b31387cacb2f25e452addb03dbe43c60001b611f0b565b61245e7fe81b4d41683c3d875ad7115faa30dd1434643802d87d63d5e69e379e6cfede7260001b611f0b565b61248a7f82d6d726566ff908fdd2901e01d07d5572c8aa3de395672ce22c0df2c994e8ae60001b611f0b565b829050612642565b6124be7fb584c4bb473e433929e2fec82b43cc985bed1817616fffeb00dd156809f1fb9260001b611f0b565b6124ea7f14f09325be47c7a8631e9af2d124b3b025906c672fa06f7a03cfb16af277020160001b611f0b565b6125167fafbe55000e0f395f577387ebca78ac8e2ba1be327d14d629f04afcb63eef56af60001b611f0b565b6000835111156125815761254c7fdc93eb0735d8333016a89c59eae05f682820ecd60037dfc5e43f0318977441f060001b611f0b565b6125787f443783a03c467c72e65106e42af73a17d1b606b9bc62fa926232176303b2af4160001b611f0b565b82518084602001fd5b6125ad7fea1fc116ac9a7b0a8a2fd3142175d23f18518ef3e71041ea9be15d7db620820060001b611f0b565b6125d97fc476462294e8603a9127b87c1458c790ddd18a96d9ea49e2e5383b6f7ad6941f60001b611f0b565b6126057ffaf6a5edf0eaeb46a46fba2d073a6a36a45f3d78b55736e8827b667414900ef560001b611f0b565b816040517f08c379a00000000000000000000000000000000000000000000000000000000081526004016126399190612b18565b60405180910390fd5b9392505050565b60008135905061265881612ebd565b92915050565b60008151905061266d81612ed4565b92915050565b60008135905061268281612eeb565b92915050565b60008135905061269781612f02565b92915050565b6000602082840312156126af57600080fd5b60006126bd84828501612649565b91505092915050565b6000602082840312156126d857600080fd5b60006126e68482850161265e565b91505092915050565b60006020828403121561270157600080fd5b600061270f84828501612673565b91505092915050565b60006020828403121561272a57600080fd5b600061273884828501612688565b91505092915050565b61274a81612da5565b82525050565b61275981612db7565b82525050565b600061276a82612c5e565b6127748185612c74565b9350612784818560208601612e1b565b80840191505092915050565b61279981612df7565b82525050565b60006127aa82612c69565b6127b48185612c7f565b93506127c4818560208601612e1b565b6127cd81612eac565b840191505092915050565b60006127e5601983612c7f565b91507f4e6f6e207a65726f2061646472657373207265717569726564000000000000006000830152602082019050919050565b6000612825601883612c7f565b91507f5761697420756e74696c20756e6c6f636b20706572696f6400000000000000006000830152602082019050919050565b6000612865602683612c7f565b91507f416464726573733a20696e73756666696369656e742062616c616e636520666f60008301527f722063616c6c00000000000000000000000000000000000000000000000000006020830152604082019050919050565b60006128cb601383612c7f565b91507f556e617574686f72697a656420416363657373000000000000000000000000006000830152602082019050919050565b600061290b602e83612c7f565b91507f43616e6e6f7420756e7374616b65206d6f7265207468616e207468652064657060008301527f6f736974656420616d6f756e742e0000000000000000000000000000000000006020830152604082019050919050565b6000612971601d83612c7f565b91507f416464726573733a2063616c6c20746f206e6f6e2d636f6e74726163740000006000830152602082019050919050565b60006129b1602a83612c7f565b91507f5361666545524332303a204552433230206f7065726174696f6e20646964206e60008301527f6f742073756363656564000000000000000000000000000000000000000000006020830152604082019050919050565b612a1381612ded565b82525050565b6000612a25828461275f565b915081905092915050565b6000602082019050612a456000830184612741565b92915050565b6000606082019050612a606000830186612741565b612a6d6020830185612741565b612a7a6040830184612a0a565b949350505050565b6000604082019050612a976000830185612741565b612aa46020830184612a0a565b9392505050565b6000606082019050612ac06000830186612741565b612acd6020830185612a0a565b612ada6040830184612a0a565b949350505050565b6000602082019050612af76000830184612750565b92915050565b6000602082019050612b126000830184612790565b92915050565b60006020820190508181036000830152612b32818461279f565b905092915050565b60006020820190508181036000830152612b53816127d8565b9050919050565b60006020820190508181036000830152612b7381612818565b9050919050565b60006020820190508181036000830152612b9381612858565b9050919050565b60006020820190508181036000830152612bb3816128be565b9050919050565b60006020820190508181036000830152612bd3816128fe565b9050919050565b60006020820190508181036000830152612bf381612964565b9050919050565b60006020820190508181036000830152612c13816129a4565b9050919050565b6000602082019050612c2f6000830184612a0a565b92915050565b6000604082019050612c4a6000830185612a0a565b612c576020830184612a0a565b9392505050565b600081519050919050565b600081519050919050565b600081905092915050565b600082825260208201905092915050565b6000612c9b82612ded565b9150612ca683612ded565b9250827fffffffffffffffffffffffffffffffffffffffffffffffffffffffffffffffff03821115612cdb57612cda612e4e565b5b828201905092915050565b6000612cf182612ded565b9150612cfc83612ded565b925082612d0c57612d0b612e7d565b5b828204905092915050565b6000612d2282612ded565b9150612d2d83612ded565b9250817fffffffffffffffffffffffffffffffffffffffffffffffffffffffffffffffff0483118215151615612d6657612d65612e4e565b5b828202905092915050565b6000612d7c82612ded565b9150612d8783612ded565b925082821015612d9a57612d99612e4e565b5b828203905092915050565b6000612db082612dcd565b9050919050565b60008115159050919050565b6000819050919050565b600073ffffffffffffffffffffffffffffffffffffffff82169050919050565b6000819050919050565b6000612e0282612e09565b9050919050565b6000612e1482612dcd565b9050919050565b60005b83811015612e39578082015181840152602081019050612e1e565b83811115612e48576000848401525b50505050565b7f4e487b7100000000000000000000000000000000000000000000000000000000600052601160045260246000fd5b7f4e487b7100000000000000000000000000000000000000000000000000000000600052601260045260246000fd5b6000601f19601f8301169050919050565b612ec681612da5565b8114612ed157600080fd5b50565b612edd81612db7565b8114612ee857600080fd5b50565b612ef481612dc3565b8114612eff57600080fd5b50565b612f0b81612ded565b8114612f1657600080fd5b5056fea2646970667358221220f25a697300a64b00ad634f176f3bcdb6b3f91ef4cbf3bc38885f443e60b08da964736f6c63430008000033",
  "linkReferences": {},
  "deployedLinkReferences": {}
}