{
  "_format": "hh-sol-artifact-1",
  "contractName": "StakingContract",
  "sourceName": "contracts/StakingContract.sol",
  "abi": [
    {
      "inputs": [
        {
          "internalType": "contract IERC20",
          "name": "tokenAddress",
          "type": "address"
        },
        {
          "internalType": "address",
          "name": "treasuryOwner",
          "type": "address"
        },
        {
          "internalType": "address",
          "name": "treasuryAddress",
          "type": "address"
        }
      ],
      "stateMutability": "nonpayable",
      "type": "constructor"
    },
    {
      "anonymous": false,
      "inputs": [
        {
          "indexed": true,
          "internalType": "bytes32",
          "name": "role",
          "type": "bytes32"
        },
        {
          "indexed": true,
          "internalType": "bytes32",
          "name": "previousAdminRole",
          "type": "bytes32"
        },
        {
          "indexed": true,
          "internalType": "bytes32",
          "name": "newAdminRole",
          "type": "bytes32"
        }
      ],
      "name": "RoleAdminChanged",
      "type": "event"
    },
    {
      "anonymous": false,
      "inputs": [
        {
          "indexed": true,
          "internalType": "bytes32",
          "name": "role",
          "type": "bytes32"
        },
        {
          "indexed": true,
          "internalType": "address",
          "name": "account",
          "type": "address"
        },
        {
          "indexed": true,
          "internalType": "address",
          "name": "sender",
          "type": "address"
        }
      ],
      "name": "RoleGranted",
      "type": "event"
    },
    {
      "anonymous": false,
      "inputs": [
        {
          "indexed": true,
          "internalType": "bytes32",
          "name": "role",
          "type": "bytes32"
        },
        {
          "indexed": true,
          "internalType": "address",
          "name": "account",
          "type": "address"
        },
        {
          "indexed": true,
          "internalType": "address",
          "name": "sender",
          "type": "address"
        }
      ],
      "name": "RoleRevoked",
      "type": "event"
    },
    {
      "anonymous": false,
      "inputs": [
        {
          "indexed": false,
          "internalType": "address",
          "name": "",
          "type": "address"
        },
        {
          "indexed": false,
          "internalType": "uint256",
          "name": "",
          "type": "uint256"
        },
        {
          "indexed": false,
          "internalType": "uint256",
          "name": "",
          "type": "uint256"
        }
      ],
      "name": "StakedEvent",
      "type": "event"
    },
    {
      "anonymous": false,
      "inputs": [
        {
          "indexed": false,
          "internalType": "address",
          "name": "",
          "type": "address"
        }
      ],
      "name": "TreasuryAddressChanged",
      "type": "event"
    },
    {
      "anonymous": false,
      "inputs": [
        {
          "indexed": false,
          "internalType": "address",
          "name": "",
          "type": "address"
        },
        {
          "indexed": false,
          "internalType": "uint256",
          "name": "",
          "type": "uint256"
        },
        {
          "indexed": false,
          "internalType": "uint256",
          "name": "",
          "type": "uint256"
        }
      ],
      "name": "UnstakedEvent",
      "type": "event"
    },
    {
      "inputs": [],
      "name": "DEFAULT_ADMIN_ROLE",
      "outputs": [
        {
          "internalType": "bytes32",
          "name": "",
          "type": "bytes32"
        }
      ],
      "stateMutability": "view",
      "type": "function"
    },
    {
      "inputs": [],
      "name": "TREASURY_ROLE",
      "outputs": [
        {
          "internalType": "bytes32",
          "name": "",
          "type": "bytes32"
        }
      ],
      "stateMutability": "view",
      "type": "function"
    },
    {
      "inputs": [
        {
          "internalType": "bytes32",
          "name": "c__0x79e07839",
          "type": "bytes32"
        }
      ],
      "name": "c_0x79e07839",
      "outputs": [],
      "stateMutability": "pure",
      "type": "function"
    },
    {
      "inputs": [
        {
          "internalType": "address",
          "name": "newTreasuryAddress",
          "type": "address"
        }
      ],
      "name": "changeTreasuryAddress",
      "outputs": [],
      "stateMutability": "nonpayable",
      "type": "function"
    },
    {
      "inputs": [],
      "name": "collectFees",
      "outputs": [],
      "stateMutability": "nonpayable",
      "type": "function"
    },
    {
      "inputs": [],
      "name": "erc20Address",
      "outputs": [
        {
          "internalType": "contract IERC20",
          "name": "",
          "type": "address"
        }
      ],
      "stateMutability": "view",
      "type": "function"
    },
    {
      "inputs": [],
      "name": "feesCollected",
      "outputs": [
        {
          "internalType": "uint256",
          "name": "",
          "type": "uint256"
        }
      ],
      "stateMutability": "view",
      "type": "function"
    },
    {
      "inputs": [
        {
          "internalType": "bytes32",
          "name": "role",
          "type": "bytes32"
        }
      ],
      "name": "getRoleAdmin",
      "outputs": [
        {
          "internalType": "bytes32",
          "name": "",
          "type": "bytes32"
        }
      ],
      "stateMutability": "view",
      "type": "function"
    },
    {
      "inputs": [
        {
          "internalType": "bytes32",
          "name": "role",
          "type": "bytes32"
        },
        {
          "internalType": "address",
          "name": "account",
          "type": "address"
        }
      ],
      "name": "grantRole",
      "outputs": [],
      "stateMutability": "nonpayable",
      "type": "function"
    },
    {
      "inputs": [
        {
          "internalType": "bytes32",
          "name": "role",
          "type": "bytes32"
        },
        {
          "internalType": "address",
          "name": "account",
          "type": "address"
        }
      ],
      "name": "hasRole",
      "outputs": [
        {
          "internalType": "bool",
          "name": "",
          "type": "bool"
        }
      ],
      "stateMutability": "view",
      "type": "function"
    },
    {
      "inputs": [
        {
          "internalType": "bytes32",
          "name": "role",
          "type": "bytes32"
        },
        {
          "internalType": "address",
          "name": "account",
          "type": "address"
        }
      ],
      "name": "renounceRole",
      "outputs": [],
      "stateMutability": "nonpayable",
      "type": "function"
    },
    {
      "inputs": [
        {
          "internalType": "bytes32",
          "name": "role",
          "type": "bytes32"
        },
        {
          "internalType": "address",
          "name": "account",
          "type": "address"
        }
      ],
      "name": "revokeRole",
      "outputs": [],
      "stateMutability": "nonpayable",
      "type": "function"
    },
    {
      "inputs": [
        {
          "internalType": "uint256",
          "name": "amount",
          "type": "uint256"
        }
      ],
      "name": "stake",
      "outputs": [],
      "stateMutability": "nonpayable",
      "type": "function"
    },
    {
      "inputs": [
        {
          "internalType": "address",
          "name": "",
          "type": "address"
        }
      ],
      "name": "staked",
      "outputs": [
        {
          "internalType": "uint256",
          "name": "stakedAmount",
          "type": "uint256"
        },
        {
          "internalType": "uint256",
          "name": "stakedTimestamp",
          "type": "uint256"
        }
      ],
      "stateMutability": "view",
      "type": "function"
    },
    {
      "inputs": [
        {
          "internalType": "bytes4",
          "name": "interfaceId",
          "type": "bytes4"
        }
      ],
      "name": "supportsInterface",
      "outputs": [
        {
          "internalType": "bool",
          "name": "",
          "type": "bool"
        }
      ],
      "stateMutability": "view",
      "type": "function"
    },
    {
      "inputs": [],
      "name": "treasury",
      "outputs": [
        {
          "internalType": "address",
          "name": "",
          "type": "address"
        }
      ],
      "stateMutability": "view",
      "type": "function"
    },
    {
      "inputs": [
        {
          "internalType": "uint256",
          "name": "amount",
          "type": "uint256"
        }
      ],
      "name": "unStake",
      "outputs": [],
      "stateMutability": "nonpayable",
      "type": "function"
    }
  ],
  "bytecode": "0x60a06040523480156200001157600080fd5b5060405162002b6938038062002b6983398181016040528101906200003791906200047d565b6200006b7f19f9aa7af194d1a49debab1cca017446b71dd8bc9ae1fc9993f4a292f65e54a760001b620002d360201b60201c565b6200009f7f28739ca6a5f156514f519be774359192b28dc25cbf01b474cab8f4ba55c6a38d60001b620002d360201b60201c565b620000d37f4db23740c1e35ffdad34235301d2e5810dedfb3027d7c7cf71b102ebd42c6cce60001b620002d360201b60201c565b620000e86000801b33620002d660201b60201c565b6200011c7f8fa2fd8e31693bbb088d5eb353054d57d531ba59b6537771ee7e4f0ef75c6d2b60001b620002d360201b60201c565b620001507ff4010d803fd35a23194a8405676954e1ac3451c3d767352808ce5a3d4ed600e160001b620002d360201b60201c565b620001827fe1dcbdb91df27212a29bc27177c840cf2f819ecf2187432e1fac86c2dd5dfca983620002d660201b60201c565b620001b67fbae2422904c4672467c0678324bd120e3e6d40df05aa1010f43bea3af3b8f67560001b620002d360201b60201c565b620001ea7f45edb48f68c4619298a3c211e690f6310d5ab588df6fdcc57415ececb250f8ad60001b620002d360201b60201c565b8273ffffffffffffffffffffffffffffffffffffffff1660808173ffffffffffffffffffffffffffffffffffffffff1660601b81525050620002557f60026f347cc8adda30bc5d0bdd446105cdfe1b344efd9bd375e0010a8f288f2860001b620002d360201b60201c565b620002897f42a135fddb8bb3e0f7be7886cea4d88eacad7a2a0f0a81aabe1bf38b5c69c19a60001b620002d360201b60201c565b80600360006101000a81548173ffffffffffffffffffffffffffffffffffffffff021916908373ffffffffffffffffffffffffffffffffffffffff1602179055505050506200054f565b50565b620002e88282620002ec60201b60201c565b5050565b620002fe8282620003dd60201b60201c565b620003d957600160008084815260200190815260200160002060000160008373ffffffffffffffffffffffffffffffffffffffff1673ffffffffffffffffffffffffffffffffffffffff16815260200190815260200160002060006101000a81548160ff0219169083151502179055506200037e6200044760201b60201c565b73ffffffffffffffffffffffffffffffffffffffff168173ffffffffffffffffffffffffffffffffffffffff16837f2f8788117e7eff1d82e926ec794901d17c78024a50270940304540a733656f0d60405160405180910390a45b5050565b600080600084815260200190815260200160002060000160008373ffffffffffffffffffffffffffffffffffffffff1673ffffffffffffffffffffffffffffffffffffffff16815260200190815260200160002060009054906101000a900460ff16905092915050565b600033905090565b60008151905062000460816200051b565b92915050565b600081519050620004778162000535565b92915050565b6000806000606084860312156200049357600080fd5b6000620004a38682870162000466565b9350506020620004b6868287016200044f565b9250506040620004c9868287016200044f565b9150509250925092565b6000620004e082620004fb565b9050919050565b6000620004f482620004d3565b9050919050565b600073ffffffffffffffffffffffffffffffffffffffff82169050919050565b6200052681620004d3565b81146200053257600080fd5b50565b6200054081620004e7565b81146200054c57600080fd5b50565b60805160601c6125e662000583600039600081816103d00152818161083501528181610a57015261107301526125e66000f3fe608060405234801561001057600080fd5b506004361061010b5760003560e01c806391d14854116100a2578063a6f353f011610071578063a6f353f0146102b7578063c8796572146102d3578063d11a57ec146102dd578063d547741f146102fb578063f071db5a146103175761010b565b806391d148541461021c57806398807d841461024c578063a217fddf1461027d578063a694fc3a1461029b5761010b565b80632f2ff15d116100de5780632f2ff15d146101aa57806336568abe146101c65780635d3eea91146101e257806361d027b3146101fe5761010b565b806301ffc9a714610110578063248a9ca314610140578063276184ae146101705780632cd42e291461018e575b600080fd5b61012a60048036038101906101259190611b73565b610335565b60405161013791906120c6565b60405180910390f35b61015a60048036038101906101559190611b0e565b6103af565b60405161016791906120e1565b60405180910390f35b6101786103ce565b60405161018591906120fc565b60405180910390f35b6101a860048036038101906101a39190611b0e565b6103f2565b005b6101c460048036038101906101bf9190611b37565b6103f5565b005b6101e060048036038101906101db9190611b37565b61041e565b005b6101fc60048036038101906101f79190611b9c565b6104a1565b005b610206610910565b6040516102139190612014565b60405180910390f35b61023660048036038101906102319190611b37565b610936565b60405161024391906120c6565b60405180910390f35b61026660048036038101906102619190611abc565b6109a0565b604051610274929190612254565b60405180910390f35b6102856109c4565b60405161029291906120e1565b60405180910390f35b6102b560048036038101906102b09190611b9c565b6109cb565b005b6102d160048036038101906102cc9190611abc565b610ce8565b005b6102db610f92565b005b6102e56110ba565b6040516102f291906120e1565b60405180910390f35b61031560048036038101906103109190611b37565b6110de565b005b61031f611107565b60405161032c9190612239565b60405180910390f35b60007f7965db0b000000000000000000000000000000000000000000000000000000007bffffffffffffffffffffffffffffffffffffffffffffffffffffffff1916827bffffffffffffffffffffffffffffffffffffffffffffffffffffffff191614806103a857506103a78261110d565b5b9050919050565b6000806000838152602001908152602001600020600101549050919050565b7f000000000000000000000000000000000000000000000000000000000000000081565b50565b6103fe826103af565b61040f8161040a611177565b61117f565b610419838361121c565b505050565b610426611177565b73ffffffffffffffffffffffffffffffffffffffff168173ffffffffffffffffffffffffffffffffffffffff1614610493576040517f08c379a000000000000000000000000000000000000000000000000000000000815260040161048a90612219565b60405180910390fd5b61049d82826112fc565b5050565b6104cd7fca92f347e69378195195346d5612955cd79128253a20c7b925a4b8b70951ec8660001b6103f2565b6104f97ff79de88fc968ac0c94f352616d61d09986b9cedfae22ae71bb0cd191ffb2719f60001b6103f2565b6105257fdf247b2821887ace4573560c37c035d7227f2405fe6c4a741e1736929919166160001b6103f2565b6000600160003373ffffffffffffffffffffffffffffffffffffffff1673ffffffffffffffffffffffffffffffffffffffff16815260200190815260200160002090506105947f58629ce8371ec829dba1ff8cf41ed56407c14e43bb78c481e798af83e8120d6260001b6103f2565b6105c07f656373fda4c9aa5abbcfd8bfb7e31c2340fa3c1345618c1c7201fba4f61fa9a360001b6103f2565b6105ec7f2809763ee828cbe29ce19fecb908bd083f552c644e8a30e125aebd640a71261f60001b6103f2565b611c208160010154426105ff919061239b565b1015610640576040517f08c379a000000000000000000000000000000000000000000000000000000000815260040161063790612179565b60405180910390fd5b61066c7f0943998b752ca3165f84729a826529cec8d3cb4a6506042d975d61c6f3f0c97e60001b6103f2565b6106987fa518b06c844095125bdf2f4fea12910937b17a0447890a573d2581820e5c64d160001b6103f2565b6106c47facc1363942dd9f830ecf8a74511da63c9125336caef79f8f07282c0e2b468d4f60001b6103f2565b6106f07f8f5c7d38147ddaddd32df0f0f1c1c8483edc28063df37ae9f9c334526dec950660001b6103f2565b8181600001541015610737576040517f08c379a000000000000000000000000000000000000000000000000000000000815260040161072e906121b9565b60405180910390fd5b6107637f04a8e35fa0d33ee372891a7f406f573561ad7f8a9137b97de5a6289f20d106cb60001b6103f2565b61078f7f513261616e9444aea748507c08897659bd46b38b90d33bf0533438bf62a7608360001b6103f2565b6107bb7fee7d88e981c658ab8e7c89b8d0439b2905a4242f0c216eb08baba77372b000da60001b6103f2565b818160000160008282546107cf919061239b565b925050819055506108027fd570294f3225eee76b4a97a5bac7e03ff88285fb396bbb7d45c2104b5099689860001b6103f2565b61082e7fa8b5148d74a29220b8ac4713d06a7f213cdf4f6eb6123c9217735891cc8dd28860001b6103f2565b61087933837f000000000000000000000000000000000000000000000000000000000000000073ffffffffffffffffffffffffffffffffffffffff166113dd9092919063ffffffff16565b6108a57f13b0f4a9976627897261a8c4a7100f88ad6310bc3025ae457feec54f7167f18260001b6103f2565b6108d17f1d3aea78a06a3f43c8d7047d4f2b363f6885420856ba3950a6c089eed265139560001b6103f2565b7f267a093b38a82a99fd51624aac25cecd7fb617ec39af258f03f9680540d6bba23383426040516109049392919061208f565b60405180910390a15050565b600360009054906101000a900473ffffffffffffffffffffffffffffffffffffffff1681565b600080600084815260200190815260200160002060000160008373ffffffffffffffffffffffffffffffffffffffff1673ffffffffffffffffffffffffffffffffffffffff16815260200190815260200160002060009054906101000a900460ff16905092915050565b60016020528060005260406000206000915090508060000154908060010154905082565b6000801b81565b6109f77f3170820d83106a65c510a78ce26869801124ab5b0c68813219653fca87ff0e5e60001b6103f2565b610a237f1bc07521aa0a9fae0af5d6d3c9cb20e198dd205600efe4ff2e0f146fbf4430f660001b6103f2565b610a4f7fa0f29d31b9619673fc98c61d59d537d039a3c6fbc9e0ea549b0a517ac02286ce60001b6103f2565b610a9c3330837f000000000000000000000000000000000000000000000000000000000000000073ffffffffffffffffffffffffffffffffffffffff16611463909392919063ffffffff16565b610ac87f52a97c65c40019fc66806dbff9d9109f875f74167c8c2bb6d12f1208bc769b4a60001b6103f2565b610af47f33e31ba5f00bb8591dd3ddbaf501bfb362dcfdb8b0e24b808f94174ea95a9cff60001b6103f2565b60006103e8600283610b069190612341565b610b109190612310565b9050610b3e7f1e93a58de61defbeeee1b6af98f186a26cef640bd7e754ce7a4873e871b4fc0260001b6103f2565b610b6a7f3c9f2684ca927704660fadbd3adf41ac27f124b24b47b61db156861d6b85e50960001b6103f2565b8060026000828254610b7c91906122ba565b92505081905550610baf7f29e725c4f2c9ebb66a94595011e92351f31c8524676851874b8f2a4f1c3386db60001b6103f2565b610bdb7f6f9e35de10f7dfed16bb0463890f0b68179e80ef2ccdf48df788d4b904f8017d60001b6103f2565b60405180604001604052808284610bf2919061239b565b815260200142815250600160003373ffffffffffffffffffffffffffffffffffffffff1673ffffffffffffffffffffffffffffffffffffffff1681526020019081526020016000206000820151816000015560208201518160010155905050610c7d7fe8cb288ca3672969a5d34770366312e3a747ec55f77fdf81fcea4ed2e453b87260001b6103f2565b610ca97fe20600211afbf7102385cc9947ad4b49a5ab4eb8e75bcc9da28a5d08d2b3b37360001b6103f2565b7f9c124b95a803ee32203c8a3b4c3364da0aadeba2bd44cf4c2b80c1ecc9bf4082338342604051610cdc9392919061208f565b60405180910390a15050565b7fe1dcbdb91df27212a29bc27177c840cf2f819ecf2187432e1fac86c2dd5dfca9610d1a81610d15611177565b61117f565b610d467f61050a95486b9444b3096889510e40e478cc0481c1d927eed8ff6e090ec064f660001b6103f2565b610d727f5b470afd4c2f44c808dc75ddf76a53b86e7aea3ed8fb1b3e1c755235f220455a60001b6103f2565b610d9e7f73e9be0a9d0e6020cd333bfb9d6fb1f13b4f9b66fdaeb905974d94800491e2b860001b6103f2565b610dca7f33251ac694983db1e12ded9f2bcf7a5241407bd9c0e9de213b37879e3537ad3d60001b6103f2565b600073ffffffffffffffffffffffffffffffffffffffff168273ffffffffffffffffffffffffffffffffffffffff161415610e3a576040517f08c379a0000000000000000000000000000000000000000000000000000000008152600401610e3190612139565b60405180910390fd5b610e667fcd45f0d170c11587da222a6e6ac0bbdde573b7dbcd8a735b58e39ced3ace33e060001b6103f2565b610e927f6ce2202a1707de7aed8bb32dccfede06271d00996caea9e468685d193586604160001b6103f2565b610ebe7fca44d4e38a11005a9d53e95b4a5f3070dfe93e2f13de2a71c94627ad44e79c3b60001b6103f2565b81600360006101000a81548173ffffffffffffffffffffffffffffffffffffffff021916908373ffffffffffffffffffffffffffffffffffffffff160217905550610f2b7fabc99a08d50549a3d2562c2468de437b5a2b3041c11890e3629da96b2966c9a260001b6103f2565b610f577f68d8efa7cb0afe548c8cbd7270a6489da10d26729fd6d19968954b051e4fdcd060001b6103f2565b7f9073dfac663173e64aa95665faedae52e2246f9bcdd3890fbfaf6733b46bba1382604051610f869190612014565b60405180910390a15050565b7fe1dcbdb91df27212a29bc27177c840cf2f819ecf2187432e1fac86c2dd5dfca9610fc481610fbf611177565b61117f565b610ff07f9e92a7050759d9c7211d87e87e266d49abff4fd7a852e12496ed9a26a13660ba60001b6103f2565b61101c7fd6760b779ca2b9cb92ba83cc80fef2110ecbe8128262dd3dae9daf4c41a11b4e60001b6103f2565b6110487f3ae9649528f890373fd7f760281cacc5e6567e4d5f585a86c4689d769fef41c760001b6103f2565b6110b7600360009054906101000a900473ffffffffffffffffffffffffffffffffffffffff166002547f000000000000000000000000000000000000000000000000000000000000000073ffffffffffffffffffffffffffffffffffffffff166113dd9092919063ffffffff16565b50565b7fe1dcbdb91df27212a29bc27177c840cf2f819ecf2187432e1fac86c2dd5dfca981565b6110e7826103af565b6110f8816110f3611177565b61117f565b61110283836112fc565b505050565b60025481565b60007f01ffc9a7000000000000000000000000000000000000000000000000000000007bffffffffffffffffffffffffffffffffffffffffffffffffffffffff1916827bffffffffffffffffffffffffffffffffffffffffffffffffffffffff1916149050919050565b600033905090565b6111898282610936565b611218576111ae8173ffffffffffffffffffffffffffffffffffffffff1660146114ec565b6111bc8360001c60206114ec565b6040516020016111cd929190611fda565b6040516020818303038152906040526040517f08c379a000000000000000000000000000000000000000000000000000000000815260040161120f9190612117565b60405180910390fd5b5050565b6112268282610936565b6112f857600160008084815260200190815260200160002060000160008373ffffffffffffffffffffffffffffffffffffffff1673ffffffffffffffffffffffffffffffffffffffff16815260200190815260200160002060006101000a81548160ff02191690831515021790555061129d611177565b73ffffffffffffffffffffffffffffffffffffffff168173ffffffffffffffffffffffffffffffffffffffff16837f2f8788117e7eff1d82e926ec794901d17c78024a50270940304540a733656f0d60405160405180910390a45b5050565b6113068282610936565b156113d957600080600084815260200190815260200160002060000160008373ffffffffffffffffffffffffffffffffffffffff1673ffffffffffffffffffffffffffffffffffffffff16815260200190815260200160002060006101000a81548160ff02191690831515021790555061137e611177565b73ffffffffffffffffffffffffffffffffffffffff168173ffffffffffffffffffffffffffffffffffffffff16837ff6391f5c32d9c69d2a47ea670b442974b53935d1edc7fd64eb21e047a839171b60405160405180910390a45b5050565b61145e8363a9059cbb60e01b84846040516024016113fc929190612066565b604051602081830303815290604052907bffffffffffffffffffffffffffffffffffffffffffffffffffffffff19166020820180517bffffffffffffffffffffffffffffffffffffffffffffffffffffffff83818316178352505050506117e6565b505050565b6114e6846323b872dd60e01b8585856040516024016114849392919061202f565b604051602081830303815290604052907bffffffffffffffffffffffffffffffffffffffffffffffffffffffff19166020820180517bffffffffffffffffffffffffffffffffffffffffffffffffffffffff83818316178352505050506117e6565b50505050565b6060600060028360026114ff9190612341565b61150991906122ba565b67ffffffffffffffff811115611548577f4e487b7100000000000000000000000000000000000000000000000000000000600052604160045260246000fd5b6040519080825280601f01601f19166020018201604052801561157a5781602001600182028036833780820191505090505b5090507f3000000000000000000000000000000000000000000000000000000000000000816000815181106115d8577f4e487b7100000000000000000000000000000000000000000000000000000000600052603260045260246000fd5b60200101907effffffffffffffffffffffffffffffffffffffffffffffffffffffffffffff1916908160001a9053507f780000000000000000000000000000000000000000000000000000000000000081600181518110611662577f4e487b7100000000000000000000000000000000000000000000000000000000600052603260045260246000fd5b60200101907effffffffffffffffffffffffffffffffffffffffffffffffffffffffffffff1916908160001a905350600060018460026116a29190612341565b6116ac91906122ba565b90505b6001811115611798577f3031323334353637383961626364656600000000000000000000000000000000600f861660108110611714577f4e487b7100000000000000000000000000000000000000000000000000000000600052603260045260246000fd5b1a60f81b828281518110611751577f4e487b7100000000000000000000000000000000000000000000000000000000600052603260045260246000fd5b60200101907effffffffffffffffffffffffffffffffffffffffffffffffffffffffffffff1916908160001a905350600485901c945080611791906124a4565b90506116af565b50600084146117dc576040517f08c379a00000000000000000000000000000000000000000000000000000000081526004016117d390612159565b60405180910390fd5b8091505092915050565b6000611848826040518060400160405280602081526020017f5361666545524332303a206c6f772d6c6576656c2063616c6c206661696c65648152508573ffffffffffffffffffffffffffffffffffffffff166118ad9092919063ffffffff16565b90506000815111156118a857808060200190518101906118689190611ae5565b6118a7576040517f08c379a000000000000000000000000000000000000000000000000000000000815260040161189e906121f9565b60405180910390fd5b5b505050565b60606118bc84846000856118c5565b90509392505050565b60608247101561190a576040517f08c379a000000000000000000000000000000000000000000000000000000000815260040161190190612199565b60405180910390fd5b611913856119d9565b611952576040517f08c379a0000000000000000000000000000000000000000000000000000000008152600401611949906121d9565b60405180910390fd5b6000808673ffffffffffffffffffffffffffffffffffffffff16858760405161197b9190611fc3565b60006040518083038185875af1925050503d80600081146119b8576040519150601f19603f3d011682016040523d82523d6000602084013e6119bd565b606091505b50915091506119cd8282866119ec565b92505050949350505050565b600080823b905060008111915050919050565b606083156119fc57829050611a4c565b600083511115611a0f5782518084602001fd5b816040517f08c379a0000000000000000000000000000000000000000000000000000000008152600401611a439190612117565b60405180910390fd5b9392505050565b600081359050611a628161253d565b92915050565b600081519050611a7781612554565b92915050565b600081359050611a8c8161256b565b92915050565b600081359050611aa181612582565b92915050565b600081359050611ab681612599565b92915050565b600060208284031215611ace57600080fd5b6000611adc84828501611a53565b91505092915050565b600060208284031215611af757600080fd5b6000611b0584828501611a68565b91505092915050565b600060208284031215611b2057600080fd5b6000611b2e84828501611a7d565b91505092915050565b60008060408385031215611b4a57600080fd5b6000611b5885828601611a7d565b9250506020611b6985828601611a53565b9150509250929050565b600060208284031215611b8557600080fd5b6000611b9384828501611a92565b91505092915050565b600060208284031215611bae57600080fd5b6000611bbc84828501611aa7565b91505092915050565b611bce816123cf565b82525050565b611bdd816123e1565b82525050565b611bec816123ed565b82525050565b6000611bfd8261227d565b611c078185612293565b9350611c17818560208601612471565b80840191505092915050565b611c2c8161244d565b82525050565b6000611c3d82612288565b611c47818561229e565b9350611c57818560208601612471565b611c608161252c565b840191505092915050565b6000611c7682612288565b611c8081856122af565b9350611c90818560208601612471565b80840191505092915050565b6000611ca960198361229e565b91507f4e6f6e207a65726f2061646472657373207265717569726564000000000000006000830152602082019050919050565b6000611ce960208361229e565b91507f537472696e67733a20686578206c656e67746820696e73756666696369656e746000830152602082019050919050565b6000611d2960188361229e565b91507f5761697420756e74696c20756e6c6f636b20706572696f6400000000000000006000830152602082019050919050565b6000611d6960268361229e565b91507f416464726573733a20696e73756666696369656e742062616c616e636520666f60008301527f722063616c6c00000000000000000000000000000000000000000000000000006020830152604082019050919050565b6000611dcf602e8361229e565b91507f43616e6e6f7420756e7374616b65206d6f7265207468616e207468652064657060008301527f6f736974656420616d6f756e742e0000000000000000000000000000000000006020830152604082019050919050565b6000611e35601d8361229e565b91507f416464726573733a2063616c6c20746f206e6f6e2d636f6e74726163740000006000830152602082019050919050565b6000611e756017836122af565b91507f416363657373436f6e74726f6c3a206163636f756e74200000000000000000006000830152601782019050919050565b6000611eb5602a8361229e565b91507f5361666545524332303a204552433230206f7065726174696f6e20646964206e60008301527f6f742073756363656564000000000000000000000000000000000000000000006020830152604082019050919050565b6000611f1b6011836122af565b91507f206973206d697373696e6720726f6c65200000000000000000000000000000006000830152601182019050919050565b6000611f5b602f8361229e565b91507f416363657373436f6e74726f6c3a2063616e206f6e6c792072656e6f756e636560008301527f20726f6c657320666f722073656c6600000000000000000000000000000000006020830152604082019050919050565b611fbd81612443565b82525050565b6000611fcf8284611bf2565b915081905092915050565b6000611fe582611e68565b9150611ff18285611c6b565b9150611ffc82611f0e565b91506120088284611c6b565b91508190509392505050565b60006020820190506120296000830184611bc5565b92915050565b60006060820190506120446000830186611bc5565b6120516020830185611bc5565b61205e6040830184611fb4565b949350505050565b600060408201905061207b6000830185611bc5565b6120886020830184611fb4565b9392505050565b60006060820190506120a46000830186611bc5565b6120b16020830185611fb4565b6120be6040830184611fb4565b949350505050565b60006020820190506120db6000830184611bd4565b92915050565b60006020820190506120f66000830184611be3565b92915050565b60006020820190506121116000830184611c23565b92915050565b600060208201905081810360008301526121318184611c32565b905092915050565b6000602082019050818103600083015261215281611c9c565b9050919050565b6000602082019050818103600083015261217281611cdc565b9050919050565b6000602082019050818103600083015261219281611d1c565b9050919050565b600060208201905081810360008301526121b281611d5c565b9050919050565b600060208201905081810360008301526121d281611dc2565b9050919050565b600060208201905081810360008301526121f281611e28565b9050919050565b6000602082019050818103600083015261221281611ea8565b9050919050565b6000602082019050818103600083015261223281611f4e565b9050919050565b600060208201905061224e6000830184611fb4565b92915050565b60006040820190506122696000830185611fb4565b6122766020830184611fb4565b9392505050565b600081519050919050565b600081519050919050565b600081905092915050565b600082825260208201905092915050565b600081905092915050565b60006122c582612443565b91506122d083612443565b9250827fffffffffffffffffffffffffffffffffffffffffffffffffffffffffffffffff03821115612305576123046124ce565b5b828201905092915050565b600061231b82612443565b915061232683612443565b925082612336576123356124fd565b5b828204905092915050565b600061234c82612443565b915061235783612443565b9250817fffffffffffffffffffffffffffffffffffffffffffffffffffffffffffffffff04831182151516156123905761238f6124ce565b5b828202905092915050565b60006123a682612443565b91506123b183612443565b9250828210156123c4576123c36124ce565b5b828203905092915050565b60006123da82612423565b9050919050565b60008115159050919050565b6000819050919050565b60007fffffffff0000000000000000000000000000000000000000000000000000000082169050919050565b600073ffffffffffffffffffffffffffffffffffffffff82169050919050565b6000819050919050565b60006124588261245f565b9050919050565b600061246a82612423565b9050919050565b60005b8381101561248f578082015181840152602081019050612474565b8381111561249e576000848401525b50505050565b60006124af82612443565b915060008214156124c3576124c26124ce565b5b600182039050919050565b7f4e487b7100000000000000000000000000000000000000000000000000000000600052601160045260246000fd5b7f4e487b7100000000000000000000000000000000000000000000000000000000600052601260045260246000fd5b6000601f19601f8301169050919050565b612546816123cf565b811461255157600080fd5b50565b61255d816123e1565b811461256857600080fd5b50565b612574816123ed565b811461257f57600080fd5b50565b61258b816123f7565b811461259657600080fd5b50565b6125a281612443565b81146125ad57600080fd5b5056fea2646970667358221220604b59768dde2617513df9bc9b56fd8fa3ce6ce2d8cdd55390472465696786bf64736f6c63430008000033",
  "linkReferences": {},
  "deployedLinkReferences": {}
}