{
  "_format": "hh-sol-artifact-1",
  "contractName": "StakingContract",
  "sourceName": "contracts/StakingContract.sol",
  "abi": [
    {
      "inputs": [
        {
          "internalType": "contract IERC20",
          "name": "tokenAddress",
          "type": "address"
        },
        {
          "internalType": "address",
          "name": "treasuryOwner",
          "type": "address"
        },
        {
          "internalType": "address",
          "name": "treasuryAddress",
          "type": "address"
        }
      ],
      "stateMutability": "nonpayable",
      "type": "constructor"
    },
    {
      "anonymous": false,
      "inputs": [
        {
          "indexed": true,
          "internalType": "bytes32",
          "name": "role",
          "type": "bytes32"
        },
        {
          "indexed": true,
          "internalType": "bytes32",
          "name": "previousAdminRole",
          "type": "bytes32"
        },
        {
          "indexed": true,
          "internalType": "bytes32",
          "name": "newAdminRole",
          "type": "bytes32"
        }
      ],
      "name": "RoleAdminChanged",
      "type": "event"
    },
    {
      "anonymous": false,
      "inputs": [
        {
          "indexed": true,
          "internalType": "bytes32",
          "name": "role",
          "type": "bytes32"
        },
        {
          "indexed": true,
          "internalType": "address",
          "name": "account",
          "type": "address"
        },
        {
          "indexed": true,
          "internalType": "address",
          "name": "sender",
          "type": "address"
        }
      ],
      "name": "RoleGranted",
      "type": "event"
    },
    {
      "anonymous": false,
      "inputs": [
        {
          "indexed": true,
          "internalType": "bytes32",
          "name": "role",
          "type": "bytes32"
        },
        {
          "indexed": true,
          "internalType": "address",
          "name": "account",
          "type": "address"
        },
        {
          "indexed": true,
          "internalType": "address",
          "name": "sender",
          "type": "address"
        }
      ],
      "name": "RoleRevoked",
      "type": "event"
    },
    {
      "anonymous": false,
      "inputs": [
        {
          "indexed": false,
          "internalType": "address",
          "name": "",
          "type": "address"
        },
        {
          "indexed": false,
          "internalType": "uint256",
          "name": "",
          "type": "uint256"
        },
        {
          "indexed": false,
          "internalType": "uint256",
          "name": "",
          "type": "uint256"
        }
      ],
      "name": "StakedEvent",
      "type": "event"
    },
    {
      "anonymous": false,
      "inputs": [
        {
          "indexed": false,
          "internalType": "address",
          "name": "",
          "type": "address"
        }
      ],
      "name": "TreasuryAddressChanged",
      "type": "event"
    },
    {
      "anonymous": false,
      "inputs": [
        {
          "indexed": false,
          "internalType": "address",
          "name": "",
          "type": "address"
        },
        {
          "indexed": false,
          "internalType": "uint256",
          "name": "",
          "type": "uint256"
        },
        {
          "indexed": false,
          "internalType": "uint256",
          "name": "",
          "type": "uint256"
        }
      ],
      "name": "UnstakedEvent",
      "type": "event"
    },
    {
      "inputs": [],
      "name": "DEFAULT_ADMIN_ROLE",
      "outputs": [
        {
          "internalType": "bytes32",
          "name": "",
          "type": "bytes32"
        }
      ],
      "stateMutability": "view",
      "type": "function"
    },
    {
      "inputs": [],
      "name": "TREASURY_ROLE",
      "outputs": [
        {
          "internalType": "bytes32",
          "name": "",
          "type": "bytes32"
        }
      ],
      "stateMutability": "view",
      "type": "function"
    },
    {
      "inputs": [
        {
          "internalType": "address",
          "name": "newTreasuryAddress",
          "type": "address"
        }
      ],
      "name": "changeTreasuryAddress",
      "outputs": [],
      "stateMutability": "nonpayable",
      "type": "function"
    },
    {
      "inputs": [],
      "name": "collectFees",
      "outputs": [],
      "stateMutability": "nonpayable",
      "type": "function"
    },
    {
      "inputs": [],
      "name": "erc20Address",
      "outputs": [
        {
          "internalType": "contract IERC20",
          "name": "",
          "type": "address"
        }
      ],
      "stateMutability": "view",
      "type": "function"
    },
    {
      "inputs": [],
      "name": "feesCollected",
      "outputs": [
        {
          "internalType": "uint256",
          "name": "",
          "type": "uint256"
        }
      ],
      "stateMutability": "view",
      "type": "function"
    },
    {
      "inputs": [
        {
          "internalType": "bytes32",
          "name": "role",
          "type": "bytes32"
        }
      ],
      "name": "getRoleAdmin",
      "outputs": [
        {
          "internalType": "bytes32",
          "name": "",
          "type": "bytes32"
        }
      ],
      "stateMutability": "view",
      "type": "function"
    },
    {
      "inputs": [
        {
          "internalType": "bytes32",
          "name": "role",
          "type": "bytes32"
        },
        {
          "internalType": "address",
          "name": "account",
          "type": "address"
        }
      ],
      "name": "grantRole",
      "outputs": [],
      "stateMutability": "nonpayable",
      "type": "function"
    },
    {
      "inputs": [
        {
          "internalType": "bytes32",
          "name": "role",
          "type": "bytes32"
        },
        {
          "internalType": "address",
          "name": "account",
          "type": "address"
        }
      ],
      "name": "hasRole",
      "outputs": [
        {
          "internalType": "bool",
          "name": "",
          "type": "bool"
        }
      ],
      "stateMutability": "view",
      "type": "function"
    },
    {
      "inputs": [
        {
          "internalType": "bytes32",
          "name": "role",
          "type": "bytes32"
        },
        {
          "internalType": "address",
          "name": "account",
          "type": "address"
        }
      ],
      "name": "renounceRole",
      "outputs": [],
      "stateMutability": "nonpayable",
      "type": "function"
    },
    {
      "inputs": [
        {
          "internalType": "bytes32",
          "name": "role",
          "type": "bytes32"
        },
        {
          "internalType": "address",
          "name": "account",
          "type": "address"
        }
      ],
      "name": "revokeRole",
      "outputs": [],
      "stateMutability": "nonpayable",
      "type": "function"
    },
    {
      "inputs": [
        {
          "internalType": "uint256",
          "name": "amount",
          "type": "uint256"
        }
      ],
      "name": "stake",
      "outputs": [],
      "stateMutability": "nonpayable",
      "type": "function"
    },
    {
      "inputs": [
        {
          "internalType": "address",
          "name": "",
          "type": "address"
        }
      ],
      "name": "staked",
      "outputs": [
        {
          "internalType": "uint256",
          "name": "stakedAmount",
          "type": "uint256"
        },
        {
          "internalType": "uint256",
          "name": "stakedTimestamp",
          "type": "uint256"
        }
      ],
      "stateMutability": "view",
      "type": "function"
    },
    {
      "inputs": [
        {
          "internalType": "bytes4",
          "name": "interfaceId",
          "type": "bytes4"
        }
      ],
      "name": "supportsInterface",
      "outputs": [
        {
          "internalType": "bool",
          "name": "",
          "type": "bool"
        }
      ],
      "stateMutability": "view",
      "type": "function"
    },
    {
      "inputs": [],
      "name": "treasury",
      "outputs": [
        {
          "internalType": "address",
          "name": "",
          "type": "address"
        }
      ],
      "stateMutability": "view",
      "type": "function"
    },
    {
      "inputs": [
        {
          "internalType": "uint256",
          "name": "amount",
          "type": "uint256"
        }
      ],
      "name": "unStake",
      "outputs": [],
      "stateMutability": "nonpayable",
      "type": "function"
    }
  ],
  "bytecode": "0x60a06040523480156200001157600080fd5b5060405162002288380380620022888339818101604052810190620000379190620002a6565b6200004c6000801b33620000ff60201b60201c565b6200007e7fe1dcbdb91df27212a29bc27177c840cf2f819ecf2187432e1fac86c2dd5dfca983620000ff60201b60201c565b8273ffffffffffffffffffffffffffffffffffffffff1660808173ffffffffffffffffffffffffffffffffffffffff1660601b8152505080600360006101000a81548173ffffffffffffffffffffffffffffffffffffffff021916908373ffffffffffffffffffffffffffffffffffffffff16021790555050505062000378565b6200011182826200011560201b60201c565b5050565b6200012782826200020660201b60201c565b6200020257600160008084815260200190815260200160002060000160008373ffffffffffffffffffffffffffffffffffffffff1673ffffffffffffffffffffffffffffffffffffffff16815260200190815260200160002060006101000a81548160ff021916908315150217905550620001a76200027060201b60201c565b73ffffffffffffffffffffffffffffffffffffffff168173ffffffffffffffffffffffffffffffffffffffff16837f2f8788117e7eff1d82e926ec794901d17c78024a50270940304540a733656f0d60405160405180910390a45b5050565b600080600084815260200190815260200160002060000160008373ffffffffffffffffffffffffffffffffffffffff1673ffffffffffffffffffffffffffffffffffffffff16815260200190815260200160002060009054906101000a900460ff16905092915050565b600033905090565b600081519050620002898162000344565b92915050565b600081519050620002a0816200035e565b92915050565b600080600060608486031215620002bc57600080fd5b6000620002cc868287016200028f565b9350506020620002df8682870162000278565b9250506040620002f28682870162000278565b9150509250925092565b6000620003098262000324565b9050919050565b60006200031d82620002fc565b9050919050565b600073ffffffffffffffffffffffffffffffffffffffff82169050919050565b6200034f81620002fc565b81146200035b57600080fd5b50565b620003698162000310565b81146200037557600080fd5b50565b60805160601c611edc620003ac600039600081816103a901528181610577015281816106bd01526109690152611edc6000f3fe608060405234801561001057600080fd5b50600436106101005760003560e01c806398807d8411610097578063c879657211610066578063c8796572146102ac578063d11a57ec146102b6578063d547741f146102d4578063f071db5a146102f057610100565b806398807d8414610225578063a217fddf14610256578063a694fc3a14610274578063a6f353f01461029057610100565b806336568abe116100d357806336568abe1461019f5780635d3eea91146101bb57806361d027b3146101d757806391d14854146101f557610100565b806301ffc9a714610105578063248a9ca314610135578063276184ae146101655780632f2ff15d14610183575b600080fd5b61011f600480360381019061011a9190611469565b61030e565b60405161012c91906119bc565b60405180910390f35b61014f600480360381019061014a9190611404565b610388565b60405161015c91906119d7565b60405180910390f35b61016d6103a7565b60405161017a91906119f2565b60405180910390f35b61019d6004803603810190610198919061142d565b6103cb565b005b6101b960048036038101906101b4919061142d565b6103f4565b005b6101d560048036038101906101d09190611492565b610477565b005b6101df6105fa565b6040516101ec919061190a565b60405180910390f35b61020f600480360381019061020a919061142d565b610620565b60405161021c91906119bc565b60405180910390f35b61023f600480360381019061023a91906113b2565b61068a565b60405161024d929190611b4a565b60405180910390f35b61025e6106ae565b60405161026b91906119d7565b60405180910390f35b61028e60048036038101906102899190611492565b6106b5565b005b6102aa60048036038101906102a591906113b2565b6107ee565b005b6102b461090c565b005b6102be6109b0565b6040516102cb91906119d7565b60405180910390f35b6102ee60048036038101906102e9919061142d565b6109d4565b005b6102f86109fd565b6040516103059190611b2f565b60405180910390f35b60007f7965db0b000000000000000000000000000000000000000000000000000000007bffffffffffffffffffffffffffffffffffffffffffffffffffffffff1916827bffffffffffffffffffffffffffffffffffffffffffffffffffffffff19161480610381575061038082610a03565b5b9050919050565b6000806000838152602001908152602001600020600101549050919050565b7f000000000000000000000000000000000000000000000000000000000000000081565b6103d482610388565b6103e5816103e0610a6d565b610a75565b6103ef8383610b12565b505050565b6103fc610a6d565b73ffffffffffffffffffffffffffffffffffffffff168173ffffffffffffffffffffffffffffffffffffffff1614610469576040517f08c379a000000000000000000000000000000000000000000000000000000000815260040161046090611b0f565b60405180910390fd5b6104738282610bf2565b5050565b6000600160003373ffffffffffffffffffffffffffffffffffffffff1673ffffffffffffffffffffffffffffffffffffffff1681526020019081526020016000209050611c208160010154426104cd9190611c91565b101561050e576040517f08c379a000000000000000000000000000000000000000000000000000000000815260040161050590611a6f565b60405180910390fd5b8181600001541015610555576040517f08c379a000000000000000000000000000000000000000000000000000000000815260040161054c90611aaf565b60405180910390fd5b818160000160008282546105699190611c91565b925050819055506105bb33837f000000000000000000000000000000000000000000000000000000000000000073ffffffffffffffffffffffffffffffffffffffff16610cd39092919063ffffffff16565b7f267a093b38a82a99fd51624aac25cecd7fb617ec39af258f03f9680540d6bba23383426040516105ee93929190611985565b60405180910390a15050565b600360009054906101000a900473ffffffffffffffffffffffffffffffffffffffff1681565b600080600084815260200190815260200160002060000160008373ffffffffffffffffffffffffffffffffffffffff1673ffffffffffffffffffffffffffffffffffffffff16815260200190815260200160002060009054906101000a900460ff16905092915050565b60016020528060005260406000206000915090508060000154908060010154905082565b6000801b81565b6107023330837f000000000000000000000000000000000000000000000000000000000000000073ffffffffffffffffffffffffffffffffffffffff16610d59909392919063ffffffff16565b60006103e86002836107149190611c37565b61071e9190611c06565b905080600260008282546107329190611bb0565b92505081905550604051806040016040528082846107509190611c91565b815260200142815250600160003373ffffffffffffffffffffffffffffffffffffffff1673ffffffffffffffffffffffffffffffffffffffff16815260200190815260200160002060008201518160000155602082015181600101559050507f9c124b95a803ee32203c8a3b4c3364da0aadeba2bd44cf4c2b80c1ecc9bf40823383426040516107e293929190611985565b60405180910390a15050565b7fe1dcbdb91df27212a29bc27177c840cf2f819ecf2187432e1fac86c2dd5dfca96108208161081b610a6d565b610a75565b600073ffffffffffffffffffffffffffffffffffffffff168273ffffffffffffffffffffffffffffffffffffffff161415610890576040517f08c379a000000000000000000000000000000000000000000000000000000000815260040161088790611a2f565b60405180910390fd5b81600360006101000a81548173ffffffffffffffffffffffffffffffffffffffff021916908373ffffffffffffffffffffffffffffffffffffffff1602179055507f9073dfac663173e64aa95665faedae52e2246f9bcdd3890fbfaf6733b46bba1382604051610900919061190a565b60405180910390a15050565b7fe1dcbdb91df27212a29bc27177c840cf2f819ecf2187432e1fac86c2dd5dfca961093e81610939610a6d565b610a75565b6109ad600360009054906101000a900473ffffffffffffffffffffffffffffffffffffffff166002547f000000000000000000000000000000000000000000000000000000000000000073ffffffffffffffffffffffffffffffffffffffff16610cd39092919063ffffffff16565b50565b7fe1dcbdb91df27212a29bc27177c840cf2f819ecf2187432e1fac86c2dd5dfca981565b6109dd82610388565b6109ee816109e9610a6d565b610a75565b6109f88383610bf2565b505050565b60025481565b60007f01ffc9a7000000000000000000000000000000000000000000000000000000007bffffffffffffffffffffffffffffffffffffffffffffffffffffffff1916827bffffffffffffffffffffffffffffffffffffffffffffffffffffffff1916149050919050565b600033905090565b610a7f8282610620565b610b0e57610aa48173ffffffffffffffffffffffffffffffffffffffff166014610de2565b610ab28360001c6020610de2565b604051602001610ac39291906118d0565b6040516020818303038152906040526040517f08c379a0000000000000000000000000000000000000000000000000000000008152600401610b059190611a0d565b60405180910390fd5b5050565b610b1c8282610620565b610bee57600160008084815260200190815260200160002060000160008373ffffffffffffffffffffffffffffffffffffffff1673ffffffffffffffffffffffffffffffffffffffff16815260200190815260200160002060006101000a81548160ff021916908315150217905550610b93610a6d565b73ffffffffffffffffffffffffffffffffffffffff168173ffffffffffffffffffffffffffffffffffffffff16837f2f8788117e7eff1d82e926ec794901d17c78024a50270940304540a733656f0d60405160405180910390a45b5050565b610bfc8282610620565b15610ccf57600080600084815260200190815260200160002060000160008373ffffffffffffffffffffffffffffffffffffffff1673ffffffffffffffffffffffffffffffffffffffff16815260200190815260200160002060006101000a81548160ff021916908315150217905550610c74610a6d565b73ffffffffffffffffffffffffffffffffffffffff168173ffffffffffffffffffffffffffffffffffffffff16837ff6391f5c32d9c69d2a47ea670b442974b53935d1edc7fd64eb21e047a839171b60405160405180910390a45b5050565b610d548363a9059cbb60e01b8484604051602401610cf292919061195c565b604051602081830303815290604052907bffffffffffffffffffffffffffffffffffffffffffffffffffffffff19166020820180517bffffffffffffffffffffffffffffffffffffffffffffffffffffffff83818316178352505050506110dc565b505050565b610ddc846323b872dd60e01b858585604051602401610d7a93929190611925565b604051602081830303815290604052907bffffffffffffffffffffffffffffffffffffffffffffffffffffffff19166020820180517bffffffffffffffffffffffffffffffffffffffffffffffffffffffff83818316178352505050506110dc565b50505050565b606060006002836002610df59190611c37565b610dff9190611bb0565b67ffffffffffffffff811115610e3e577f4e487b7100000000000000000000000000000000000000000000000000000000600052604160045260246000fd5b6040519080825280601f01601f191660200182016040528015610e705781602001600182028036833780820191505090505b5090507f300000000000000000000000000000000000000000000000000000000000000081600081518110610ece577f4e487b7100000000000000000000000000000000000000000000000000000000600052603260045260246000fd5b60200101907effffffffffffffffffffffffffffffffffffffffffffffffffffffffffffff1916908160001a9053507f780000000000000000000000000000000000000000000000000000000000000081600181518110610f58577f4e487b7100000000000000000000000000000000000000000000000000000000600052603260045260246000fd5b60200101907effffffffffffffffffffffffffffffffffffffffffffffffffffffffffffff1916908160001a90535060006001846002610f989190611c37565b610fa29190611bb0565b90505b600181111561108e577f3031323334353637383961626364656600000000000000000000000000000000600f86166010811061100a577f4e487b7100000000000000000000000000000000000000000000000000000000600052603260045260246000fd5b1a60f81b828281518110611047577f4e487b7100000000000000000000000000000000000000000000000000000000600052603260045260246000fd5b60200101907effffffffffffffffffffffffffffffffffffffffffffffffffffffffffffff1916908160001a905350600485901c94508061108790611d9a565b9050610fa5565b50600084146110d2576040517f08c379a00000000000000000000000000000000000000000000000000000000081526004016110c990611a4f565b60405180910390fd5b8091505092915050565b600061113e826040518060400160405280602081526020017f5361666545524332303a206c6f772d6c6576656c2063616c6c206661696c65648152508573ffffffffffffffffffffffffffffffffffffffff166111a39092919063ffffffff16565b905060008151111561119e578080602001905181019061115e91906113db565b61119d576040517f08c379a000000000000000000000000000000000000000000000000000000000815260040161119490611aef565b60405180910390fd5b5b505050565b60606111b284846000856111bb565b90509392505050565b606082471015611200576040517f08c379a00000000000000000000000000000000000000000000000000000000081526004016111f790611a8f565b60405180910390fd5b611209856112cf565b611248576040517f08c379a000000000000000000000000000000000000000000000000000000000815260040161123f90611acf565b60405180910390fd5b6000808673ffffffffffffffffffffffffffffffffffffffff16858760405161127191906118b9565b60006040518083038185875af1925050503d80600081146112ae576040519150601f19603f3d011682016040523d82523d6000602084013e6112b3565b606091505b50915091506112c38282866112e2565b92505050949350505050565b600080823b905060008111915050919050565b606083156112f257829050611342565b6000835111156113055782518084602001fd5b816040517f08c379a00000000000000000000000000000000000000000000000000000000081526004016113399190611a0d565b60405180910390fd5b9392505050565b60008135905061135881611e33565b92915050565b60008151905061136d81611e4a565b92915050565b60008135905061138281611e61565b92915050565b60008135905061139781611e78565b92915050565b6000813590506113ac81611e8f565b92915050565b6000602082840312156113c457600080fd5b60006113d284828501611349565b91505092915050565b6000602082840312156113ed57600080fd5b60006113fb8482850161135e565b91505092915050565b60006020828403121561141657600080fd5b600061142484828501611373565b91505092915050565b6000806040838503121561144057600080fd5b600061144e85828601611373565b925050602061145f85828601611349565b9150509250929050565b60006020828403121561147b57600080fd5b600061148984828501611388565b91505092915050565b6000602082840312156114a457600080fd5b60006114b28482850161139d565b91505092915050565b6114c481611cc5565b82525050565b6114d381611cd7565b82525050565b6114e281611ce3565b82525050565b60006114f382611b73565b6114fd8185611b89565b935061150d818560208601611d67565b80840191505092915050565b61152281611d43565b82525050565b600061153382611b7e565b61153d8185611b94565b935061154d818560208601611d67565b61155681611e22565b840191505092915050565b600061156c82611b7e565b6115768185611ba5565b9350611586818560208601611d67565b80840191505092915050565b600061159f601983611b94565b91507f4e6f6e207a65726f2061646472657373207265717569726564000000000000006000830152602082019050919050565b60006115df602083611b94565b91507f537472696e67733a20686578206c656e67746820696e73756666696369656e746000830152602082019050919050565b600061161f601883611b94565b91507f5761697420756e74696c20756e6c6f636b20706572696f6400000000000000006000830152602082019050919050565b600061165f602683611b94565b91507f416464726573733a20696e73756666696369656e742062616c616e636520666f60008301527f722063616c6c00000000000000000000000000000000000000000000000000006020830152604082019050919050565b60006116c5602e83611b94565b91507f43616e6e6f7420756e7374616b65206d6f7265207468616e207468652064657060008301527f6f736974656420616d6f756e742e0000000000000000000000000000000000006020830152604082019050919050565b600061172b601d83611b94565b91507f416464726573733a2063616c6c20746f206e6f6e2d636f6e74726163740000006000830152602082019050919050565b600061176b601783611ba5565b91507f416363657373436f6e74726f6c3a206163636f756e74200000000000000000006000830152601782019050919050565b60006117ab602a83611b94565b91507f5361666545524332303a204552433230206f7065726174696f6e20646964206e60008301527f6f742073756363656564000000000000000000000000000000000000000000006020830152604082019050919050565b6000611811601183611ba5565b91507f206973206d697373696e6720726f6c65200000000000000000000000000000006000830152601182019050919050565b6000611851602f83611b94565b91507f416363657373436f6e74726f6c3a2063616e206f6e6c792072656e6f756e636560008301527f20726f6c657320666f722073656c6600000000000000000000000000000000006020830152604082019050919050565b6118b381611d39565b82525050565b60006118c582846114e8565b915081905092915050565b60006118db8261175e565b91506118e78285611561565b91506118f282611804565b91506118fe8284611561565b91508190509392505050565b600060208201905061191f60008301846114bb565b92915050565b600060608201905061193a60008301866114bb565b61194760208301856114bb565b61195460408301846118aa565b949350505050565b600060408201905061197160008301856114bb565b61197e60208301846118aa565b9392505050565b600060608201905061199a60008301866114bb565b6119a760208301856118aa565b6119b460408301846118aa565b949350505050565b60006020820190506119d160008301846114ca565b92915050565b60006020820190506119ec60008301846114d9565b92915050565b6000602082019050611a076000830184611519565b92915050565b60006020820190508181036000830152611a278184611528565b905092915050565b60006020820190508181036000830152611a4881611592565b9050919050565b60006020820190508181036000830152611a68816115d2565b9050919050565b60006020820190508181036000830152611a8881611612565b9050919050565b60006020820190508181036000830152611aa881611652565b9050919050565b60006020820190508181036000830152611ac8816116b8565b9050919050565b60006020820190508181036000830152611ae88161171e565b9050919050565b60006020820190508181036000830152611b088161179e565b9050919050565b60006020820190508181036000830152611b2881611844565b9050919050565b6000602082019050611b4460008301846118aa565b92915050565b6000604082019050611b5f60008301856118aa565b611b6c60208301846118aa565b9392505050565b600081519050919050565b600081519050919050565b600081905092915050565b600082825260208201905092915050565b600081905092915050565b6000611bbb82611d39565b9150611bc683611d39565b9250827fffffffffffffffffffffffffffffffffffffffffffffffffffffffffffffffff03821115611bfb57611bfa611dc4565b5b828201905092915050565b6000611c1182611d39565b9150611c1c83611d39565b925082611c2c57611c2b611df3565b5b828204905092915050565b6000611c4282611d39565b9150611c4d83611d39565b9250817fffffffffffffffffffffffffffffffffffffffffffffffffffffffffffffffff0483118215151615611c8657611c85611dc4565b5b828202905092915050565b6000611c9c82611d39565b9150611ca783611d39565b925082821015611cba57611cb9611dc4565b5b828203905092915050565b6000611cd082611d19565b9050919050565b60008115159050919050565b6000819050919050565b60007fffffffff0000000000000000000000000000000000000000000000000000000082169050919050565b600073ffffffffffffffffffffffffffffffffffffffff82169050919050565b6000819050919050565b6000611d4e82611d55565b9050919050565b6000611d6082611d19565b9050919050565b60005b83811015611d85578082015181840152602081019050611d6a565b83811115611d94576000848401525b50505050565b6000611da582611d39565b91506000821415611db957611db8611dc4565b5b600182039050919050565b7f4e487b7100000000000000000000000000000000000000000000000000000000600052601160045260246000fd5b7f4e487b7100000000000000000000000000000000000000000000000000000000600052601260045260246000fd5b6000601f19601f8301169050919050565b611e3c81611cc5565b8114611e4757600080fd5b50565b611e5381611cd7565b8114611e5e57600080fd5b50565b611e6a81611ce3565b8114611e7557600080fd5b50565b611e8181611ced565b8114611e8c57600080fd5b50565b611e9881611d39565b8114611ea357600080fd5b5056fea264697066735822122036eeb6cd8c75b6b1414e8cdae6087fa5f04dc68be83fc5fd124c5a6185992de264736f6c63430008000033",
  "linkReferences": {},
  "deployedLinkReferences": {}
}